:020000040800F2
:1000000010070020710400088D0200088F0200080C
:1000100093020008970200089B02000800000000FD
:100020000000000000000000000000009F02000827
:10003000A102000800000000A3020008A5020008B9
:100040008B0400088B0400088B0400088B04000854
:100050008B0400088B0400088B0400088B04000844
:100060008B0400088B0400088B0400088B04000834
:100070008B0400088B0400088B0400088B04000824
:100080008B0400088B0400088B0400088B04000814
:100090008B0400088B0400088B0400088B04000804
:1000A0008B0400088B0400088B0400088B040008F4
:1000B00031460008594600088B0400088B040008EC
:1000C0008B0400088B0400088B0400088B040008D4
:1000D0008B0400082D1F00088B0400088B04000807
:1000E0008B0400088B0400088B04000800F002F861
:1000F00000F041F80AA090E8000C82448344AAF181
:100100000107DA4501D100F036F8AFF2090EBAE87E
:100110000F0013F0010F18BFFB1A43F0010318473B
:10012000745B0000945B0000103A24BF78C878C16B
:10013000FAD8520724BF30C830C144BF04680C60ED
:10014000704700000023002400250026103A28BF35
:1001500078C1FBD8520728BF30C148BF0B60704739
:10016000782904F00B83002070471FB5AFF300809F
:100170001FBD10B510BD04F0A3FB1146FFF7F5FF3E
:1001800000F006F804F0C1FBFFF7F3FF01F074FE86
:100190001CB500F0EDF8482001F01CFE4FF416509D
:1001A00001F078FE04F084FA01F060FE04F080FAB9
:1001B00000214FF6FF7004F04FF902F0C7F94FF439
:1001C000FC6300934FF4A073F0220021084603F073
:1001D000D5FE0020274908604BE004F01FFA0446D2
:1001E00004F068FE244A03C204F0E0F9044604F077
:1001F00061FE224A03C221480CC81F4803C804F00C
:1002000009FCCDE900011EA00CC8009804F058FEBE
:100210001D4A03C2194803C804F0FCFD044610231C
:100220000093082302460A21002004F065F81248D2
:1002300003C804F0EFFD0446102300930823024690
:100240002821002004F058F80F4803C804F0E2FD0C
:10025000044610230093082302465021002004F096
:100260004BF810230093002359226421184604F010
:1002700043F8B2E7A001214200000020080000205E
:100280000000000080843E4110000020704700BF45
:10029000FEE700BFFEE700BFFEE700BFFEE77047D6
:1002A000704770477047000000200021674A1268BD
:1002B00042F48032654B1A6000BF644A126802F44F
:1002C0000031401C11B9B0F5A06FF6D15F4A126839
:1002D00012F4003F01D0012100E00021012942D1A8
:1002E0005B4A126842F01002594B1A601A461268B3
:1002F00022F003021A601A46126842F002021A60E3
:10030000524A5268514B5A601A4652685A601A460D
:10031000526842F480625A601A46526822F47C1293
:100320005A601A46526842F4E8125A601A46126835
:1003300042F080721A6000BF444A126812F0007FD7
:10034000FAD0424A526822F00302404B5A601A46E1
:10035000526842F002025A6000BF3C4A526802F002
:100360000C02082AF9D1704710B5FFF79DFF10BDA8
:1003700010B53648006840F001003449086008466E
:1003800040683449084031494860084600683249AD
:1003900008402E4908600846006820F48020086064
:1003A0000846406820F4FE0048604FF41F00886053
:1003B000FFF7DAFF4FF000602849086010BD10B564
:1003C000002000210022214B5B6803F00C0020B1CB
:1003D000042806D0082828D107E0214B214C2360AF
:1003E00027E01F4B1F4C236023E0184B5B6803F48E
:1003F0007011164B5B6803F48032022303EB9141CA
:1004000022B9194B4B43174C23600DE00F4B5B682F
:1004100013F4003F04D0144B4B43124C236003E011
:100420000F4B4B430F4C236003E00D4B0D4C2360EF
:1004300000BF00BF054B5B68C3F303130B4CE05CCC
:10044000084B1B68C340074C236010BD00100240DE
:10045000002002400000FFF8FFFFF6FE08ED00E07C
:1004600000127A001800002000093D001C00002046
:100470000948804709480047FEE7FEE7FEE7FEE738
:10048000FEE7FEE7FEE7FEE7FEE7FEE70448054974
:10049000054A064B7047000071030008ED00000894
:1004A000100100201007002010030020100300207E
:1004B00032490143324A1160704770B50021002370
:1004C0000F22C4780CB32E4C246804F4E064C4F505
:1004D000E064210AC1F10403CA40447804FA03F13C
:1004E0008478144021430901264C0678A1550478EC
:1004F00004F01F050124AC4005786D114FF0E02693
:1005000006EB8505C5F8004109E0047804F01F04F6
:100510000125A5401C4C0678761144F8265070BD84
:100520001A4A0A400243164B1B1F1A60704741B11A
:10053000134A121D126802434FF0E023C3F8102D36
:1005400007E00F4A121D126882434FF0E023C3F800
:10055000102D7047042808D14FF0E021096941F0BF
:1005600004014FF0E022116107E04FF0E02109693A
:1005700021F004014FF0E022116170470000FA05FC
:100580000CED00E000E400E080E100E080FFFF1FF0
:1005900010B50446C748844208D10121042000F068
:1005A0001BFB0021042000F017FB46E0C2488442F8
:1005B00008D10121082000F00FFB0021082000F0E5
:1005C0000BFB3AE0BD48844208D10121102000F025
:1005D00003FB0021102000F0FFFA2EE0B84884420F
:1005E00008D10121202000F0F7FA0021202000F09E
:1005F000F3FA22E0B348844208D10121402000F000
:10060000EBFA0021402000F0E7FA16E0AE48844201
:1006100008D10121802000F0DFFA0021802000F0C5
:10062000DBFA0AE0A948844207D10121801500F0D5
:10063000D3FA0021A01500F0CFFA10BD10B50121AA
:10064000084600F0C9FA0021012000F0C5FA10BDEB
:10065000F0B500220023002400250026002791F891
:1006600003C00CF00F0291F803C01CF0100F03D070
:1006700091F802C04CEA0202B1F800C01CF0FF0F72
:1006800031D0066800242BE04FF0010C0CFA04F581
:10069000B1F800C00CEA0503AB4220D1A5004FF031
:1006A0000F0C0CFA05F7BE4302FA05FC4CEA0606ED
:1006B00091F803C0BCF1280F06D14FF0010C0CFAE1
:1006C00004FCC0F814C00AE091F803C0BCF1480F64
:1006D00005D14FF0010C0CFA04FCC0F810C0641CEA
:1006E000082CD1D30660B1F800C0BCF1FF0F34DD97
:1006F000466800242EE004F1080C4FF0010E0EFABB
:100700000CF5B1F800C00CEA0503AB4221D1A500FD
:100710004FF00F0C0CFA05F7BE4302FA05FC4CEA49
:10072000060691F803C0BCF1280F05D104F1080CAE
:100730000EFA0CFEC0F814E091F803C0BCF1480FAB
:1007400007D104F1080C4FF0010E0EFA0CFEC0F8B0
:1007500010E0641C082CCED34660F0BD4FF6FF714C
:100760000180022181700421C1707047024600207F
:1007700093680B4201D0012000E000207047014641
:10078000886880B2704702460020D3680B4201D0CF
:10079000012000E0002070470146C86880B2704721
:1007A00001617047416170470AB1016100E0416138
:1007B0007047C16070474FF480320A4382618161A3
:1007C00082618269826970470022414B1A684FF644
:1007D00080731A4042EA00120A433D4B1A60704788
:1007E0003C49C8617047F0B5002200230024002571
:1007F00000F00046B6F1004F02D1354EF46901E039
:10080000334E7468C0F3034582B200F44016B6F567
:10081000401F08D124F070642D4E766826F0706673
:100820002B4F7E6012E000F48016B6F5801F06D1D3
:10083000032606FA05F39C4344F0706406E0460D77
:10084000360102FA06F6B44344F0706421B1460D55
:10085000360102FA06F6344300F00046B6F1004FC6
:1008600002D11B4EF46101E0194E7460F0BD30B549
:1008700000228B071C0F0F2303FA04F2144B0833DA
:100880008C1053F8244094438D1043F825408C106D
:1008900053F824308C07240F00FA04F423430C4C43
:1008A00008348D1044F8253030BD0A49DC31086029
:1008B0007047000000080140000C0140001001409A
:1008C0000014014000180140001C014000200140BC
:1008D0000000014000002042DB48006840F00100B9
:1008E000D949086008464068D8490840D649486058
:1008F00008460068D6490840D349086008460068A1
:1009000020F4802008600846406820F4FE0048601B
:100910004FF41F0088607047CB49096821F480318B
:10092000C94A11601146096821F480211160B0F5AF
:10093000803F03D0B0F5802F0ED106E0C249096890
:1009400041F48031C04A116007E0BF49096841F4B1
:10095000A021BD4A116000E000BF00BF704710B584
:1009600001460022002300204A11012A02D1B64C80
:10097000236806E0022A02D1B34C236A01E0B24C9C
:10098000636A01F01F02012494401C4201D001203F
:1009900000E0002010BD70B500240025002600BF37
:1009A0003120FFF7DCFF0646641CB4F5A06F01D0D0
:1009B000002EF5D03120FFF7D2FF08B1012500E06D
:1009C0000025284670BD00219F4A116821F0F801DA
:1009D00041EAC001116070479E49086070470022DB
:1009E000994B5A6822F47C1240EA01031A43964B51
:1009F0005A6070479749086670470021924A5168CB
:100A000021F003010143516070478F48406800F0B6
:100A10000C00704700218C4A516821F0F00101431D
:100A2000516070470021884A516821F4E061014318
:100A3000516070470021844A516821F4605141EAB5
:100A4000C0015160704729B17F4A527A02437E4B00
:100A50005A7206E07C4A527AC343DBB21A407A4BA0
:100A60005A7270477B49D831086070470021764A36
:100A7000516821F440410143516070470021724A9E
:100A800020321170704A82F82010012802D0042808
:100A90000AD104E001216C4A2032117005E00521E1
:100AA000694A2032117000E000BF00BF70476A49F8
:100AB000086070476449096A0143634A11627047DC
:100AC000654944390860704730B500210022002391
:100AD00000245D4D6D6805F00C0121B1042905D09D
:100AE000082923D105E05D4D056022E05B4D0560DE
:100AF0001FE0554D6D6805F47012534D6D6805F497
:100B00008033022505EB92421BB9554D55430560D4
:100B10000BE04D4D6D6815F4003F03D0504D55432B
:100B2000056002E04D4D5543056002E04B4D056008
:100B300000BF00BF444D6D6805F0F0010909494D43
:100B40006C5C0568E54045603F4D6D6805F4E0610B
:100B5000090A444D6C5C4568E54085603A4D6D6816
:100B600005F46051C90A3F4D6C5C4568E540C560BD
:100B7000354D6D6805F44041890B3A4D10356C5C7C
:100B8000C568B5FBF4F5056130BD29B12E4A52693F
:100B900002432D4B5A6104E02B4A526982432A4B8F
:100BA0005A61704729B1284A92690243264B9A61DB
:100BB00004E0254A92698243234B9A61704729B128
:100BC000214AD2690243204BDA6104E01E4AD2690D
:100BD00082431D4BDA61704729B11B4AD268024338
:100BE000194BDA6004E0184AD2688243164BDA6087
:100BF000704729B1144A12690243134B1A6104E089
:100C0000114A12698243104B1A61704712494039E8
:100C1000086070470F49C86470470B49C871704736
:100C20000948406A40F080700749486270470146B1
:100C30000020054A92680A4201D0012000E000200D
:100C40007047014988727047001002400000FFF8A9
:100C5000FFFFF6FE000042428004424200127A008A
:100C600000093D002C00002010B50446FF488442D6
:100C700008D10121C014FFF7AFFF0021E014FFF7F6
:100C8000ABFFC4E0B4F1804F08D101210846FFF763
:100C9000B0FF00210120FFF7ACFFB8E0F448844228
:100CA00008D101210220FFF7A4FF00210220FFF755
:100CB000A0FFACE0EF48844208D101210420FFF7F7
:100CC00098FF00210420FFF794FFA0E0EA48844247
:100CD00008D101210820FFF78CFF00210820FFF731
:100CE00088FF94E0E548844208D101211020FFF7F5
:100CF00080FF00211020FFF77CFF88E0E04884425D
:100D000008D101212020FFF774FF00212020FFF7E8
:100D100070FF7CE0DB48844208D101214014FFF7DA
:100D20005BFF00216014FFF757FF70E0D648844254
:100D300009D10121C804FFF74FFF00214FF4002023
:100D4000FFF74AFF63E0D148844209D10121080539
:100D5000FFF742FF00214FF48010FFF73DFF56E000
:100D6000CB48844209D101214805FFF735FF002116
:100D70004FF40010FFF730FF49E0C648844208D125
:100D800001214020FFF735FF00214020FFF731FF10
:100D90003DE0C148844208D101218020FFF729FFAE
:100DA00000218020FFF725FF31E0BC48844208D1B4
:100DB00001218015FFF71DFF0021A015FFF719FF86
:100DC00025E0B748844209D101210804FFF704FF58
:100DD00000214FF48030FFF7FFFE18E0B148844255
:100DE00009D101214804FFF7F7FE00214FF400303C
:100DF000FFF7F2FE0BE0AC48844208D101218804E1
:100E0000FFF7EAFE00214FF48020FFF7E5FE10BD5A
:100E100000220288954B98420ED09A4B98420BD0F4
:100E2000B0F1804F08D0924B984205D0914B984238
:100E300002D0914B984204D14FF68F731A404B88E1
:100E40001A438E4B984207D08D4B984204D04FF6F0
:100E5000FF431A40CB881A4302808B8883850B8816
:100E60000385824B98420BD0864B984208D08C4B1E
:100E7000984205D08B4B984202D08B4B984201D1BF
:100E80000B7A038601238382704770B5002200230A
:100E90000024058C4FF6FE7635400584038C84884B
:100EA000028B4FF68F752A40B51E2A400D882A43C3
:100EB000751E2B400D892B434D882B436B4DA8424B
:100EC0000BD0704DA84208D0754DA84205D0754D85
:100ED000A84202D0744DA84213D14FF6F7752B40AB
:100EE0004D892B434FF6FB752B408D882B434FF6D6
:100EF000FF652C404FF6FF552C408D892C43CD8942
:100F00002C4384800283CD888586038470BD70B5B0
:100F1000002200230024058C4FF6EF76354005842F
:100F2000038C8488028B48F6FF752A404FF6FF45F4
:100F30002A400D882D0642EA15424FF6DF752B40F8
:100F40000D892D0543EA15434D882D0543EA1543C8
:100F5000464DA84202D04B4DA8421BD14FF67F759B
:100F60002B404D892D0543EA15434FF6BF752B40A5
:100F70008D882D0543EA15434FF6FF352C404FF27F
:100F8000FF752C408D89AD0444EA1544CD89AD042C
:100F900044EA154484800283CD880587038470BDAC
:100FA00070B5002200230024058C4FF6FF66354003
:100FB0000584038C8488828B4FF68F752A404FF608
:100FC000FC752A400D882A434FF6FF552B400D89AA
:100FD0002D0643EA15434D882D0643EA1543234D5C
:100FE000A84202D0274DA8421BD14FF2FF752B40DB
:100FF0004D892D0643EA15434FF6FF352B408D886A
:101000002D0643EA15434EF6FF752C404DF6FF754D
:101010002C408D892D0544EA1544CD892D0544EADF
:10102000154484808283CD888587038470BD70B524
:10103000002200230024058C4EF6FF7635400584FF
:10104000038C8488828B48F6FF752A404FF6FF4553
:101050002A400D882D0642EA15424DF6FF752B40B9
:101060000D892D0743EA15434D881FE0002C0140F0
:101070000004004000080040000C00400010004048
:101080000014004000340140004C01400050014079
:101090000054014000180040001C004000200040A7
:1010A0000040014000440140004801402D0743EA50
:1010B0001543F84DA84202D0F74DA84206D14BF691
:1010C000FF752C408D89AD0544EA154484808283E8
:1010D000CD88A0F84050038470BD828B4FF2FF335F
:1010E0001A408283828B0B0642EA13428283704746
:1010F000F0B5002400250026078C4EF6FF7C07EA99
:101100000C070784848B058C0F073E0C40F6FF47C5
:101110003C40170644EA17441F0744EA1744DD4FD2
:10112000B8420ED0DC4FB8420BD0B0F1804F08D09F
:10113000DA4FB84205D0DA4FB84202D0D94FB842A0
:1011400006D14DF6FF773D4046F480573D4305E01C
:1011500047F6FF573D4041F480573D438483058463
:10116000F0BD828B4FF6F3731A408283828B0A4361
:1011700082837047F0B5002400250026078C4FF6C7
:10118000FF6C07EA0C070784848B058C0F063E0C66
:101190004FF60C773C401F0542EA17473C43BD4FD2
:1011A000B8420ED0BC4FB8420BD0B0F1804F08D03F
:1011B000BA4FB84205D0BA4FB84202D0B94FB84280
:1011C00006D14FF6FF573D4046F480773D4305E09A
:1011D0004FF2FF573D4041F480773D4384830584BF
:1011E000F0BD028B4FF2FF331A400283028B0B06D5
:1011F00042EA134202837047F0B50024002500261E
:10120000078C4FF6EF7C07EA0C070784048B058CEC
:101210000F053E0C40F6FF473C401F0744EA1744C9
:10122000170644EA17449B4FB8420ED09A4FB84273
:101230000BD0B0F1804F08D0984FB84205D0984FEE
:10124000B84202D0974FB84206D14FF6DF773D4003
:1012500046F010073D4305E04FF65F773D4041F013
:1012600010073D4304830584F0BD028B4FF6F373F2
:101270001A400283028B0A4302837047F0B50024B0
:101280000025068C4FF6FE773E400684048B058CC5
:101290004FF60C7634401E0542EA164634437D4E26
:1012A000B0420ED07C4EB0420BD0B0F1804F08D08F
:1012B0007A4EB04205D07A4EB04202D0794EB0425A
:1012C00006D14FF6FD76354041F00106354305E085
:1012D0004FF6F576354041F0010635430483058429
:1012E000F0BD70B504460D466A4884420ED06A4887
:1012F00084420BD0B4F1804F08D06848844205D0B6
:101300006748844202D06748844200D100E000BFB1
:10131000288850B92B89AA8869882046FFF7AEFF34
:10132000E9882046FFF7A1FF25E0288804280AD194
:101330002B89AA8869882046FFF75EFFE988204646
:10134000FFF74FFF17E0288808280AD12B89AA88C1
:1013500069882046FFF70EFFE9882046FFF701FF66
:1013600009E02B89AA8869882046FFF7C1FEE98831
:101370002046FFF7B2FE70BD2DE9F04104460D4650
:1013800000260127688808B9022600E00026A88800
:10139000012801D1022700E001272888A0B92B8964
:1013A000AA8869882046FFF769FFE9882046FFF789
:1013B0005CFF2B893A4631462046FFF71DFFE9883E
:1013C0002046FFF70EFF13E02B89AA886988204684
:1013D000FFF712FFE9882046FFF703FF2B893A4603
:1013E00031462046FFF74AFFE9882046FFF73DFFD8
:1013F000BDE8F0810A884B881A438B881A43CB8852
:101400001A430B891A434B891A438B891A43A0F854
:10141000442070474FF6FF71818000210180C18018
:101420004180017270470021018041808180C1802C
:10143000018141818181C18170470021018041800A
:10144000012181800021C18001817047002101803C
:1014500041808180C180018141818181704721B1BA
:10146000028842F00102028004E002884FF6FE7317
:101470001A400280704731B1B0F8442042F4004273
:10148000A0F8442005E0B0F84420C2F30E02A0F812
:1014900044207047002C014000340140000400400B
:1014A00000080040000C004010B51AB183890B43BE
:1014B000838104E08389CC43A4B22340838110BD9F
:1014C0008182704741EA0203A0F84830704710B5A6
:1014D0001AB183890B43838104E08389CC43A4B28E
:1014E0002340838110BD01894FF6F87211400181BC
:1014F0007047002202894FF68F731A400A43028117
:10150000704730B504460D4629462046FFF7F1FFE7
:10151000208940F00700208130BD2DE9F0410446CC
:101520000D4616461F46602D06D13B460122314628
:101530002046FFF761FE05E03B460122314620468A
:10154000FFF79CFE29462046FFF7D3FF208940F095
:1015500007002081BDE8F08130B500240489E4B2A1
:101560001D0642EA15450D432C43048130BD2DE98B
:10157000F04104460D46164698460027434632463B
:1015800029462046FFF7E8FF27894FF6F870074005
:1015900047F007074FF68F70074047F07007278125
:1015A000BDE8F081F0B504460D4616461F463B46A1
:1015B000324629462046FFF7CFFF208940F480407D
:1015C0002081F0BD018582827047002202884FF69B
:1015D0008F731A400A4302807047F0B5002400253B
:1015E00000260489058B068C4FF6F8773C400C43A7
:1015F0004FF6FC473D4040F201173D434FF6DD7783
:101600003E401F0542EA17473E4304810583068496
:10161000F0BD0022028B4FF68F731A400A430283FB
:1016200070470022028B48F6FF731A400B0642EA0D
:101630001342028370470022828B4FF68F731A4049
:101640000A43828370470022828B48F6FF731A4058
:101650000B0642EA13428283704721B1028842F0AE
:101660008002028004E002884FF67F731A400280F5
:10167000704721B1828842F00402828004E08288AF
:101680004FF6FB731A408280704721B1828842F086
:101690000802828004E082884FF6F7731A40828045
:1016A000704721B1828842F00102828004E0828882
:1016B0004FF6FE731A40828070470022028B4FF66D
:1016C000F7731A400A43028370470022028B4FF2DD
:1016D000FF731A400B0642EA13420283704700224E
:1016E000828B4FF6F7731A400A43828370470022B9
:1016F000828B4FF2FF731A400B0642EA1342828339
:1017000070470022028B4FF6FB731A400A43028394
:1017100070470022028B4FF6FF331A400B0642EA55
:101720001342028370470022828B4FF6FB731A40EC
:101730000A43828370470022828B4FF6FF331A40A0
:101740000B0642EA1342828370470022028B4FF657
:101750007F731A400A43028370470022028BC2F350
:101760000E020B0642EA1342028370470022828B6C
:101770004FF67F731A400A43828370470022828BA0
:10178000C2F30E020B0642EA134282837047002224
:10179000028C4FF6FD731A400A4302847047002200
:1017A000028C4FF6F7731A400A43028470470022F6
:1017B000028C4FF6DF731A400B0542EA1342028493
:1017C00070470022028C4FF67F731A400B0542EAE5
:1017D0001342028470470022028C4FF6FF531A40D6
:1017E0000B0642EA1342028470470022028C4FF239
:1017F000FF731A400B0642EA13420284704700222C
:10180000028C4DF6FF731A400B0742EA1342028422
:10181000704730B5002301248C40A3B2048CDD4313
:10182000ADB22C400484048C02FA01F5ADB22C4315
:10183000048430BD30B5002304248C40A3B2048C52
:10184000DD43ADB22C400484048C02FA01F5ADB244
:101850002C43048430BD70B5002300240346184691
:10186000183301258D40ACB2058CE643B6B2354045
:10187000058409B1082909D103EB61031D6825F02E
:1018800070051D601D6815431D600CE00D1FADB295
:1018900003EB65031D6825F4E0451D601D68160611
:1018A00045EA16451D6070BD21B1028842F0020272
:1018B000028004E002884FF6FD731A4002807047F0
:1018C00021B1028842F00402028004E002884FF64F
:1018D000FB731A400280704721B1828842F0800277
:1018E000828004E082884FF67F731A4082807047BE
:1018F00002884FF6F7731A40028002880A4302807A
:10190000704782884FF68F731A40828082880A431C
:101910008280704702894FF6F8731A40028102896B
:101920000A430281704702894FF67F731A40028191
:1019300002890A430281704781847047818570471C
:10194000818670470187704781877047A0F84010F3
:10195000704702884FF6FF431A40028002880A430C
:10196000028070470146888E70470146088F704795
:101970000146888F70470146B1F840007047014624
:10198000888C70470146088D704702460020138AF4
:101990000B4201D0012000E000207047CA430282C0
:1019A000704730B50246002000230024158A05EA5E
:1019B0000103958905EA010413B10CB1012000E08F
:1019C000002030BDCA4302827047000010B50446B3
:1019D000FB48844209D101218803FFF7FDF800216B
:1019E0004FF48040FFF7F8F832E0F648844209D11E
:1019F00001214804FFF7FDF800214FF40030FFF704
:101A0000F8F825E0F048844209D101218804FFF765
:101A1000F0F800214FF48020FFF7EBF818E0EB48D6
:101A2000844209D10121C804FFF7E3F800214FF4F3
:101A30000020FFF7DEF80BE0E548844208D10121E1
:101A40000805FFF7D6F800214FF48010FFF7D1F812
:101A500010BD2DE9F04786B004460D46002600274C
:101A600000BFB146B246A88900B100BFA246268A8F
:101A70004CF6FF700640E88806432682A6894EF69B
:101A8000F3100640A888298908436989084306435A
:101A9000A681A68A4FF6FF400640A8890643A68283
:101AA00001A8FFF711F85446C548824501D1049FAB
:101AB00000E0039FA08910F4004F08D007EBC70097
:101AC00000EB071029684900B0FBF1F807E007EBCD
:101AD000C70000EB071029688900B0FBF1F864200B
:101AE000B8FBF0F006013009642101FB1089A089E0
:101AF00010F4004F09D0322101EBC9006421B0FB82
:101B0000F1F000F00700064308E0322101EB091074
:101B10006421B0FBF1F000F00F000643268106B00F
:101B2000BDE8F0874FF41651016000218180C1802B
:101B300001810C21418100218181704710B5002273
:101B4000028A4FF2FF031A400B884C8823438C888B
:101B50002343CC8823431A43028210BD0021018015
:101B600041808180C180704721B1828942F4005256
:101B7000828104E082894DF6FF731A4082817047AA
:101B8000F0B50024002500260023A1F510676A3F68
:101B900000D100BF0346C1F3421401F01F05012725
:101BA00007FA05F6012C01D10C3304E0022C01D117
:101BB000103300E014331AB11F6837431F6002E08E
:101BC0001F68B7431F60F0BD10B51AB1838A0B437D
:101BD000838204E0838ACC43A4B22340838210BD75
:101BE000028A4FF6F0731A400282028A0A43028286
:101BF000704782894FF2FF731A40828182890A43BB
:101C00008281704721B1828942F00202828104E020
:101C100082894FF6FD731A4082817047028A4FF61F
:101C2000DF731A400282028A0A430282704721B19E
:101C3000028A42F48042028204E0028A4BF6FF7379
:101C40001A4002827047C1F3080282807047014641
:101C50008888C0F308007047818941F001018181C3
:101C60007047028BD2B20283028B42EA01220283C6
:101C70007047028B02F47F420283028B0A43028385
:101C8000704721B1828A42F02002828204E0828A77
:101C90004FF6DF731A408282704721B1828A42F088
:101CA0001002828204E0828A4FF6EF731A40828229
:101CB000704721B1828A42F00802828204E0828A5F
:101CC0004FF6F7731A408282704721B1828942F43D
:101CD0000042828103E08289C2F30E028281704752
:101CE00021B1828A42F40062828204E0828A4FF249
:101CF000FF731A4082827047828A4FF6FB731A4044
:101D00008282828A0A438282704721B1828A42F0AB
:101D10000202828204E0828A4FF6FD731A408282B8
:101D2000704702460020B1F5007F00D100BF138844
:101D30000B4201D0012000E00020704701F4007246
:101D4000B2F5007F00D100BFCA430280704770B572
:101D500002460023002400250020A1F510666A3EFB
:101D600000D100BFC1F3421501F01F04012606FA9D
:101D700004F4012D02D19689344006E0022D02D1EF
:101D8000168A344001E0968A34400B12012606FA86
:101D900003F31688334014B10BB1012000E000209A
:101DA00070BD10B500220023A1F510646A3C00D17B
:101DB00000BF0A1201249440A3B2DC43048010BD8A
:101DC000003801400044004000480040004C004002
:101DD0000050004010B504466FF00400FEF7BAFB57
:101DE000E11704EB5171C9101F4A117010460078B9
:101DF0004FF47A714843911C088010BD1A4A921C16
:101E0000128842434FF0E0235A6100229A61012276
:101E10001A6100BF4FF0E022116911F0010F02D0EA
:101E200011F4803FF6D000224FF0E0231A619A614E
:101E300070470D4A127842434FF0E0235A61002266
:101E40009A6101221A6100BF4FF0E022116911F07E
:101E5000010F02D011F4803FF6D000224FF0E023B2
:101E60001A619A61704700004000002010B54FF4DD
:101E7000A060FEF71DFB10BD014600BF704700BF0C
:101E8000494A128812F0400FFAD0C2B2464B1B1DCD
:101E90001A80704710B586B00446012144F205004F
:101EA000FEF780FE4FF40070ADF8140003208DF8AB
:101EB000160018208DF8170005A93C48FEF7C8FB4E
:101EC0004FF48060ADF8140004208DF8170005A9C8
:101ED0003648FEF7BDFB25208DF8000003208DF865
:101EE00001008DF8020001208DF803006846FEF71E
:101EF000E4FA01940020ADF80800ADF80A00ADF84E
:101F00000C00ADF810000C20ADF80E0001A9264819
:101F1000FFF79FFD012240F225512348FFF730FED5
:101F200001212148FFF720FE06B010BD10B540F298
:101F300025511D48FFF70BFF002834D01A48FFF742
:101F400086FEC4B21A48007810F0800F2BD11848D2
:101F5000007810F0400F0CD00A2C03D00020144958
:101F6000087020E01248007840F0800010490870A6
:101F700019E00D2C06D10E48007840F040000C49C5
:101F8000087010E00A48007800F03F0009490C543E
:101F900007480078401C06490870084600783F282A
:101FA00001DD0020087010BD00380140000801402C
:101FB000440000206C0000204FF48071FF4A516102
:101FC00049005161FE490860802151611161890019
:101FD0001161704710B54FF08830F9490C3908602D
:101FE000F849C1F8040C0020F54908608815F34948
:101FF00008614000486140204861F3480088A0F52E
:102000000941893902D10220FFF713FF4020EB4933
:102010000861EB48001F006884B2481508614FF062
:102020003330E849C1F8000CE549083908604FF63B
:10203000FF70E449C1F80C0C204610BD10B50446F1
:102040000B462046FFF7B8FF4FF48070DB4908616C
:1020500040004861DA4803608020486108618000E0
:10206000086110BD10B504462046FFF7A5FFFFF735
:10207000B1FF10BD00B5D4480088A0F51341413927
:1020800003D12C20FFF798FF02E02220FFF794FFF6
:1020900000BD4FF48071C94A116149005161C849BE
:1020A000086080215161116189001161704730B56C
:1020B000014601F01F04C1F34513CA0AE50205EB0E
:1020C00043151544A8B230BD2DE9F04104460D4634
:1020D000F02C02DAB5F5A07F02DB0020BDE8F0812C
:1020E0002946204602F01CFCB7480088A0F51341A1
:1020F000413903D12E20FFF75FFF02E02220FFF7D6
:102100005BFF4FF08830AE490C390860AD49C1F82B
:10211000040C4FF6FF70AA4908608815A7490861AA
:10212000400048614020486108614861A648008835
:10213000A0F50941893902D10220FFF77AFE40203B
:102140009E4908619E48001F006886B29E4800882C
:10215000A0F5134141390AD14020984948610861EE
:102160009748001F00681FFA80F8F7B23F024FF44B
:102170000070924908614FF0333091490C39086082
:102180009049C1F8040C4FF6FF70C1F80C0C8E4852
:102190000088A0F58A41353911D08B480088A0F518
:1021A0008A4131390BD088480088A0F50941893926
:1021B00005D085480088A0F53541053901D1304664
:1021C0008CE781480088A0F51341413907D1F0120E
:1021D000C002B91240EA411040EAE8207EE73046EA
:1021E000FFF765FF7AE700B577480088A0F513414F
:1021F000413903D12920FFF7DFFE04E040F27311DB
:102200000720FFF71BFF00BD00B56F480088A0F551
:102210001341413903D12820FFF7CEFE03E000210E
:102220000720FFF70BFF00BD70B504460025002610
:1022300065480088A0F5134141397ED1082C1CD295
:10224000DFE804F00406090C0F12151800BF14E0B3
:1022500045F0800511E045F040050EE045F0C00571
:102260000BE045F0200508E045F0600505E045F08D
:10227000A00502E045F0E00500BF00BF362645F0AE
:10228000080529463046FFF7D9FE15F0200F76D015
:102290002A20FFF791FE4FF4807048490861400002
:1022A000486100204649086080204449486108612F
:1022B00080000861401008614000486100204149E9
:1022C000C1F80C0C80203D4948610861800008611C
:1022D00040100861400048610120394908608020B1
:1022E000364948610861800008614010086140007B
:1022F00048613F20324908608020304948610861C8
:10230000800008612B20FFF757FE4FF480702B49A7
:102310000861400048610020294908608020274961
:102320004861086180000861401008614000486110
:10233000002023490860802000E09DE01F4948619B
:102340000861800008614010086140004861002079
:102350001B490860802019494861086180000861B4
:102360004010086140004861EF2015490860802056
:1023700012494861086180000861AFE0FFE72A2048
:10238000FFF71AFE4FF480700C4908614000486165
:1023900000200B49086080200849486108618000DE
:1023A0000861401008614000486100200549C1F8FB
:1023B0000C0C802001494861086107E000100140D1
:1023C0000C0C01400000014050000020800008611A
:1023D00040100861400048610020FF4908608020EB
:1023E000FE494861086180000861401008614000B2
:1023F0004861EF20F84908608020F8494861086189
:10240000800008612B20FFF7D7FD4FF48070F3495F
:102410000861400048610020EF4908608020EF49D2
:10242000486108618000086140100861400048610F
:102430000020E94908608020E8494861086180007F
:10244000086140100861400048610120E2490860CD
:102450008020E249486108618000086140100861FD
:10246000400048613F20DC4908608020DB4948612A
:1024700008618000086131E0082C1CD2DFE804F01C
:1024800004070A0D0F12151845F0300513E045F04A
:10249000100510E045F020050DE000BF0BE045F011
:1024A000380508E045F0280505E045F0180502E08C
:1024B00045F0080500BF00BFC9480088A0F50941E4
:1024C000893904D1112646F24000054302E0032673
:1024D00045F4805529463046FFF7B0FD70BD70B514
:1024E00004460D462946204602F01AFAFFF7C2FDBF
:1024F0004FF48070B949086140004861B9480088CC
:10250000B54908608020B5494861086180000861CC
:1025100070BD70B5054600240021084602F000FA9F
:10252000FFF7A8FD00BF0DE04FF48070AB490861D4
:1025300040004861A848056080204861086180002B
:102540000861641CB4F5963FEED370BD08B5012157
:102550001920FEF727FB0121A348FEF744F94FF4A9
:10256000F860ADF8000010208DF8030003208DF80E
:10257000020069469948FEF76BF84FF4F8619748F6
:10258000FEF70EF94FF6FF70ADF80000694692486D
:102590000C38FEF75DF84FF6FF718F480C38FEF7E8
:1025A000FFF83220FFF72AFC01210020FFF746FD4B
:1025B0003220FFF723FC0020FFF754FD88490880F4
:1025C0000846008828B108460088A0F57F41FF39F9
:1025D00018D1D320FFF7F0FCFFF7FCFCFFF7FAFC63
:1025E000FFF7F8FC00F0BF007D490880084600882E
:1025F0000006000C0880FFF7EDFC794909880843C4
:10260000774908807648018878A002F06FF874480E
:102610000088A0F5134141397ED1CF20FFF7CCFCD3
:102620004FF480706D4908614000486100206A499C
:102630000860802069494861086180000861401095
:10264000086140004861C1206C49C1F80C0C802031
:1026500062494861086180000861401008614000DB
:10266000486130205C49086080205C49486108610D
:1026700080000861ED20FFF79FFC4FF48070574900
:102680000861400048616420534908608020534934
:10269000486108618000086140100861400048619D
:1026A00003204D49086080204C4948610861800042
:1026B00008614010086140004861122046490860E6
:1026C0008020464948610861800008614010086127
:1026D0004000486181204049086080203F494861AE
:1026E000086180000861E820FFF766FC4FF4807005
:1026F0003A490861400048618520374908608020D8
:102700003649486108618000086140100861400056
:1027100048611020304900E092E3086080202F4992
:10272000486108618000086140100861400048610C
:102730007A20294908608020284948610861800082
:102740000861CB20FFF738FC4FF480702349086103
:102750004000486139202049086080201F494861B5
:1027600008618000086140100861400048612C2029
:102770001949086080201949486108618000086192
:102780004010086140004861002013490860802023
:1027900012494861086180000861401008614000EA
:1027A000486134200C49086080200C494861086168
:1027B000800008614010086140004861022006491D
:1027C0000860802005494861086180000861F720A1
:1027D000FFF7F2FB14E000000C0C01400010014078
:1027E000500000204C00002000023000204C4344E8
:1027F0002049443A25780D0A0000000000000140FD
:102800004FF48070FF490861400048612020FE4974
:1028100008608020FB494861086180000861EA2067
:10282000FFF7CAFB4FF48070F64908614000486129
:102830000020F54908608020F24948610861800065
:10284000086140100861400048610020EE490860BE
:102850008020EC494861086180000861C020FFF7D2
:10286000ABFB4FF48070E7490861400048611B20D2
:10287000E54908608020E3494861086180000861FB
:10288000C120FFF799FB4FF48070DE4908614000DA
:1028900048610120DC4908608020DA49486108610C
:1028A00080000861C520FFF787FB4FF48070D54991
:1028B0000861400048613020D34908608020D14938
:1028C000486108618000086140100861400048616B
:1028D0003020CE49C1F80C0C8020CA4948610861FB
:1028E00080000861C720FFF767FB4FF48070C5497F
:1028F000086140004861B720C34908608020C14991
:1029000048610861800008613620FFF755FB4FF4ED
:102910008070BC490861400048614820BA4908609D
:102920008020B84948610861800008613A20FFF7BB
:1029300043FB4FF48070B349086140004861552063
:10294000B14908608020AF49486108618000086192
:10295000B120FFF731FB4FF48070AA4908614000B5
:1029600048610020A84908608020A64948610861A4
:102970008000086140100861400048611A20A249A7
:10298000086080209F494861086180000861B62086
:10299000FFF712FB4FF480709A49086140004861CC
:1029A0000A209949086080209649486108618000A2
:1029B00008614010086140004861A2209249086007
:1029C000802090494861086180000861F220FFF78B
:1029D000F3FA4FF480708B49086140004861002091
:1029E0008949086080208749486108618000086142
:1029F0002620FFF7E1FA4FF4807082490861400019
:102A0000486101208049086080207E494861086152
:102A100080000861E020FFF7CFFA4FF48070794919
:102A20000861400048610F2077490860802075499F
:102A300048610861800008614010086140004861F9
:102A40002A207149086080206E4948610861800031
:102A50000861401008614000486128206A49086008
:102A60008020684948610861800008614010086161
:102A7000400048610820644908608020614948613D
:102A800008618000086140100861400048610E2024
:102A90005D49086080205B494861086180000861E9
:102AA00040100861400048610820574908608020B4
:102AB0005449486108618000086140100861400085
:102AC000486154205049086080204E49486108619F
:102AD000800008614010086140004861A9204A490F
:102AE0000860802047494861086180000861401003
:102AF0000861400048614320434908608020414903
:102B00004861086180000861401008614000486128
:102B10000A203D49086080203A49486108618000E8
:102B2000086140100861400048610F203649086084
:102B300080203449486108618000086140100861C4
:102B40004000486100203149C1F80C0C80202D491B
:102B500048610861800008614010086140004861D8
:102B600000202949086080202649486108618000CA
:102B70000861401008614000486100202249086057
:102B80008020204948610861800008614010086188
:102B90004000486100201C490860802019494861B4
:102BA000086180000861E120FFF706FA4FF48070A9
:102BB00014490861400048610020134908608020E2
:102BC00010494861086180000861401008614000B8
:102BD000486115200C49086080200A494861086155
:102BE00080000861401008614000486117200649D4
:102BF0000860802003494861086180000861401036
:102C0000086105E0001001400C0C0140000001408B
:102C1000400048610720F94908608020F849486170
:102C2000086180000861401008614000486111207F
:102C3000F24908608020F24948610861800008611B
:102C400040100861400048610620EC49086080207F
:102C5000EB4948610861800008614010086140004C
:102C600048612B20E54908608020E54948610861FA
:102C70008000086140100861400048615620DF492B
:102C800008608020DE4948610861800008614010CA
:102C90000861400048613C20D84908608020D8493C
:102CA0004861086180000861401008614000486187
:102CB0000520D24908608020D14948610861800020
:102CC000086140100861400048611020CB4908604D
:102CD0008020CB494861086180000861401008618C
:102CE000400048610F20C54908608020C449486100
:102CF00008618000086140100861400048613F2081
:102D0000BE4908608020BE494861086180000861B2
:102D100040100861400048613F20B84908608020A9
:102D2000B7494861086180000861401008614000AF
:102D300048610F20B14908608020B14948610861AD
:102D4000800008612B20FFF737F94FF48070AC4901
:102D50000861400048610020A84908608020A84917
:102D600048610861800008614010086140004861C6
:102D70000020A24908608020A149486108618000C4
:102D80000861401008614000486101209D49C1F878
:102D90000C0C80209A49486108618000086140104D
:102DA0000861400048613F209449086080209449B0
:102DB00048610861800008612A20FFF7FDF84FF4A0
:102DC00080708F4908614000486100208B4908608D
:102DD00080208B49486108618000086140100861CB
:102DE000400048610020854908608020844948618E
:102DF00008618000086140100861400048610020BF
:102E00007E49086080207E49486108618000086131
:102E10004010086140004861EF2078490860802038
:102E2000774948610861800008611120FFF7C4F804
:102E30007820FEF7E3FF2920FFF7BEF801F093B8F2
:102E400071480088A0F5134125397ED147F6F0017D
:102E5000E520FFF7F3F84FF480710120FFF7EEF85B
:102E60004FF4E0610220FFF7E9F841F2300103205E
:102E7000FFF7E4F800210420FFF7E0F840F2022118
:102E80000820FFF7DBF800210920FFF7D7F8002121
:102E90000A20FFF7D3F800210C20FFF7CFF800211C
:102EA0000D20FFF7CBF800210F20FFF7C7F8002116
:102EB0001020FFF7C3F807211120FFF7BFF800210A
:102EC0001220FFF7BBF800211320FFF7B7F800210D
:102ED0000720FFF7B3F841F290611020FFF7AEF83A
:102EE00040F227211120FFF7A9F89D211220FFF7BA
:102EF000A5F84FF4C8511320FFF7A0F82521292089
:102F0000FFF79CF80D212B20FFF798F807213020C0
:102F1000FFF794F840F203313120FFF78FF80321D7
:102F20003220FFF78BF840F206213520FFF786F8B4
:102F300008213620FFF782F840F206413720FFF7DC
:102F40007DF84FF44171382000E05FE0FFF776F83C
:102F500007213920FFF772F840F202613C20FFF7A9
:102F60006DF808213D20FFF769F800215020FFF798
:102F700065F8EF215120FFF761F800215220FFF79B
:102F80005DF840F23F115320FFF758F84FF4274106
:102F90006020FFF753F801216120FFF74FF800216F
:102FA0006A20FFF74BF800218020FFF747F8002147
:102FB0008120FFF743F800218220FFF73FF800212E
:102FC0008320FFF73BF800218420FFF737F800212A
:102FD0008520FFF733F810219020FFF72FF84FF4EA
:102FE000C0619220FFF72AF840F233110720FFF763
:102FF00025F822210020FFF721F81FE70C0C0140E3
:10300000001001400000014050000020FF480088EF
:10301000A0F5134128397ED11021E720FFF70EF8E3
:1030200001210020FFF70AF84FF480710120FFF71B
:1030300005F84FF4E0610220FFF700F841F230019B
:103040000320FEF7FBFF00210420FEF7F7FF40F20C
:1030500007210820FEF7F2FF00210920FEF7EEFF0E
:1030600000210A20FEF7EAFF01210C20FEF7E6FF0F
:1030700000210D20FEF7E2FF00210F20FEF7DEFF0A
:1030800000211020FEF7DAFF07211120FEF7D6FFFE
:1030900000211220FEF7D2FF00211320FEF7CEFF01
:1030A0003220FEF7ABFE41F290511020FEF7C6FF32
:1030B00040F227211120FEF7C1FF3220FEF79EFECD
:1030C0009C211220FEF7BAFF3220FEF797FE4FF444
:1030D000C8511320FEF7B2FF23212920FEF7AEFFCF
:1030E0000E212B20FEF7AAFF3220FEF787FE0021DB
:1030F0002020FEF7A3FF40F23F112120FEF79EFFA4
:103100003220FEF77BFE07213020FEF797FF40F2CA
:103110000771312000E086E0FEF790FF06213220A3
:10312000FEF78CFF40F204713520FEF787FF41F671
:1031300004713620FEF782FF04213720FEF77EFF60
:1031400000213820FEF77AFF40F206713920FEF7A1
:1031500075FF40F201713C20FEF770FF0F213D200A
:10316000FEF76CFF3220FEF749FE00215020FEF7EB
:1031700065FFEF215120FEF761FF00215220FEF78D
:103180005DFF40F23F115320FEF758FF4FF42741F7
:103190006020FEF753FF01216120FEF74FFF002161
:1031A0006A20FEF74BFF00218020FEF747FF002139
:1031B0008120FEF743FF00218220FEF73FFF002120
:1031C0008320FEF73BFF00218420FEF737FF00211C
:1031D0008520FEF733FF10219020FEF72FFF0021FE
:1031E0009220FEF72BFF03219320FEF727FF4FF4D9
:1031F00088719520FEF722FF00219720FEF71EFF21
:1032000000219820FEF71AFF40F233110720FEF745
:1032100015FF00212020FEF711FF40F23F11212071
:10322000FEF70CFF0AE679480088A0F51341203923
:1032300004D076480088B0F5134F7ED100210846AF
:10324000FEF7FCFE4FF480710120FEF7F7FE4FF40D
:10325000E0610220FEF7F2FE41F230010320FEF7AA
:10326000EDFE00210420FEF7E9FE40F202210820D5
:10327000FEF7E4FE00210920FEF7E0FE00210A200F
:10328000FEF7DCFE01210C20FEF7D8FE00210D2008
:10329000FEF7D4FE00210F20FEF7D0FE3220FEF70D
:1032A000ADFD40F201110720FEF7C8FE3220FEF707
:1032B000A5FD4FF486511020FEF7C0FE0721112016
:1032C000FEF7BCFE4FF488711220FEF7B7FE4FF4F4
:1032D00030611320FEF7B2FE00212920FEF7AEFE7A
:1032E00044F210012B20FEF7A9FE00215020FEF72A
:1032F000A5FEEF215120FEF7A1FE00215220FEF78E
:103300009DFE40F23F115320FEF798FE4FF41C51F2
:103310006020FEF793FE01216120FEF78FFE002161
:103320006A20FEF78BFE00218020FEF787FE002139
:103330008120FEF783FE002100E02DE08220FEF7D1
:103340007DFE00218320FEF779FE00218420FEF718
:1033500075FE00218520FEF771FE10219020FEF7FA
:103360006DFE00219220FEF769FE01219320FEF7F9
:1033700065FE4FF488719520FEF760FE00219720CE
:10338000FEF75CFE00219820FEF758FE40F2731114
:103390000720FEF753FE51E51C480088A0F5A84120
:1033A00008397ED14FF480710120FEF747FE4FF4BB
:1033B000E0610220FEF742FE41F230010320FEF7F9
:1033C0003DFE00210420FEF739FE40F207210820CF
:1033D000FEF734FE00210920FEF730FE00210A200E
:1033E000FEF72CFE00210C20FEF728FE00210D2008
:1033F000FEF724FE00210F20FEF720FE1420FEF72A
:10340000FDFC41F2B061102002E0000050000020FD
:10341000FEF714FE01211120FEF710FE01211720F6
:10342000FEF70CFE4FF49C711220FEF707FE4FF4DE
:1034300000611320FEF702FE09212920FEF7FEFDA0
:1034400009212A20FEF7FAFD0021A420FEF7F6FD4F
:1034500000215020FEF7F2FDEF215120FEF7EEFD96
:1034600000215220FEF7EAFD40F23F115320FEF703
:10347000E5FD4FF41C516020FEF7E0FD01216120C5
:10348000FEF7DCFD00216A20FEF7D8FD0021802038
:10349000FEF7D4FD00218120FEF7D0FD002182201F
:1034A00000E027E0FEF7CAFD00218320FEF7C6FDFD
:1034B00000218420FEF7C2FD00218520FEF7BEFD1D
:1034C00013219020FEF7BAFD00219220FEF7B6FDF1
:1034D00003219320FEF7B2FD4FF488719520FEF78B
:1034E000ADFD40F273110720FEF7A8FD3220FEF774
:1034F00085FCA3E4FF480088A0F5A85105397ED1DA
:103500000720FEF79BFD3220FEF778FC4FF48E710A
:103510001220FEF793FD0121A420FEF78FFD0F215D
:103520000820FEF78BFD08210A20FEF787FD082101
:103530000D20FEF783FD40F207713020FEF77EFD7F
:1035400007213120FEF77AFD40F203613220FEF7B9
:1035500075FD4FF4E0613320FEF770FD40F202216B
:103560003420FEF76BFD02213520FEF767FD41F6A2
:103570000F713620FEF762FD40F207713720FEF72B
:103580005DFD00213820FEF759FD00213920FEF7AE
:1035900055FD40F207713A20FEF750FD00213B2017
:1035A000FEF74CFD07213C20FEF748FD00213D20A1
:1035B000FEF744FD3220FEF721FC01210720FEF733
:1035C0003DFD01211720FEF739FD3220FEF716FCE4
:1035D0004FF4BD511020FEF731FD40F217211120AC
:1035E000FEF72CFD4FF48F711220FEF727FD4FF4EC
:1035F00070611320FEF722FD00212A2000E093E0F5
:10360000FEF71CFD0A212920FEF718FD4FF49F71DB
:103610001220FEF713FD00215020FEF70FFDEF21D1
:103620005120FEF70BFD00215220FEF707FD40F26E
:103630003F115320FEF702FD4FF41C516020FEF7AE
:10364000FDFC01216120FEF7F9FC00216A20FEF754
:10365000F5FC00218020FEF7F1FC00218120FEF71F
:10366000EDFC00218220FEF7E9FC00218320FEF71B
:10367000E5FC00218420FEF7E1FC00218520FEF717
:10368000DDFC13219020FEF7D9FC4FF4407192200D
:10369000FEF7D4FC05219320FEF7D0FC00219520F5
:1036A000FEF7CCFC00219720FEF7C8FC00219820F3
:1036B000FEF7C4FC4FF480710120FEF7BFFC4FF40D
:1036C000E0610220FEF7BAFC41F230010320FEF770
:1036D000B5FC00210420FEF7B1FC00210C20FEF710
:1036E000ADFC00210F20FEF7A9FC00212020FEF7F1
:1036F000A5FC00212120FEF7A1FC21210720FEF7D7
:103700009DFC1420FEF77AFB61210720FEF796FC52
:103710001420FEF773FB40F273110720FEF78EFCB6
:103720001420FEF76BFB68E472480088A0F5354171
:1037300005397DD10846FEF781FC00210846FEF7D9
:103740007DFC00210846FEF779FC00210846FEF7C3
:1037500075FC0121A420FEF771FC1420FEF74EFB3E
:103760004FF41C516020FEF769FC40F20221082052
:10377000FEF764FC4FF405713020FEF75FFC43F266
:1037800015713120FEF75AFC40F204613220FEF739
:1037900055FC40F616613320FEF750FC42F2112131
:1037A0003420FEF74BFC4FF4A8513520FEF746FCC1
:1037B00048F207513620FEF741FC41F2074137201D
:1037C000FEF73CFC41F203413820FEF737FC202194
:1037D0003920FEF733FC1A219020FEF72FFC002140
:1037E0001020FEF72BFC07211120FEF727FC0021FB
:1037F0001220FEF723FC00211320FEF71FFC1420EB
:10380000FEF7FCFA4FF4E6611020FEF717FC40F2D9
:1038100037111120FEF712FC1420FEF7EFFA4FF4D7
:10382000DC711220FEF70AFC1420FEF7E7FA00E034
:1038300086E04FF470611320FEF700FC80212A20FF
:10384000FEF7FCFB48212920FEF7F8FB1420FEF7C9
:10385000D5FA4FF480710120FEF7F0FB4FF4E061E0
:103860000220FEF7EBFB41F230210320FEF7E6FBDE
:1038700040F202210820FEF7E1FB00210A20FEF7BA
:10388000DDFB00210C20FEF7D9FB00210D20FEF707
:10389000D5FB30210E20FEF7D1FB00215020FEF792
:1038A000CDFBEF215120FEF7C9FB00215220FEF78E
:1038B000C5FB40F23F115320FEF7C0FB4FF41C51F3
:1038C0006020FEF7BBFB01216120FEF7B7FB002162
:1038D0006A20FEF7B3FB11219020FEF7AFFB4FF4F7
:1038E000C0619220FEF7AAFB40F202419320FEF74E
:1038F000A5FB01E05000002002219420FEF79EFB72
:103900001420FEF77BFA01210720FEF797FB142015
:10391000FEF774FA61210720FEF790FB40F2731165
:103920000720FEF78BFB00212020FEF787FB0021FC
:103930002120FEF783FB22210020FEF77FFB12E30C
:10394000FF480088A0F5454105397DD10846FEF7BE
:1039500075FB00210846FEF771FB1420FEF74EFAB6
:1039600000210846FEF76AFB00210846FEF766FBC9
:1039700000210846FEF762FB00210846FEF75EFBC9
:103980000121A420FEF75AFB1420FEF737FA4FF46A
:103990001C516020FEF752FB40F606010820FEF79E
:1039A0004DFB40F203713020FEF748FB012131202E
:1039B000FEF744FB04213220FEF740FB4FF48171F7
:1039C0003320FEF73BFB4FF440713420FEF736FB0B
:1039D00040F203113520FEF731FB1F213620FEF7A0
:1039E0002DFB40F203713720FEF728FB0121382020
:1039F000FEF724FB04213920FEF720FB152190203F
:103A0000FEF71CFB4FF482611020FEF717FB40F21B
:103A100047211120FEF712FB4FF4DE711220FEF752
:103A20000DFB4FF460611320FEF708FB7820FEF7D2
:103A3000E5F94FF480710120FEF700FB4FF40071AF
:103A40000220FEF7FBFA00E050E041F230010320D3
:103A5000FEF7F4FA08210A20FEF7F0FA00210C2004
:103A6000FEF7ECFA20210E20FEF7E8FA00210F20E5
:103A7000FEF7E4FA00212020FEF7E0FA00212120E1
:103A8000FEF7DCFA3D212A20FEF7D8FA1420FEF7D3
:103A9000B5F92D212920FEF7D1FA00215020FEF79B
:103AA000CDFA4DF2EF015120FEF7C8FA0021522065
:103AB000FEF7C4FA40F23F115320FEF7BFFA00218F
:103AC0006120FEF7BBFA00216A20FEF7B7FA4FF437
:103AD00040719220FEF7B2FA05219320FEF7AEFA6C
:103AE0004FF480710720FEF7A9FA3CE29448008861
:103AF000A0F5094189397DD101210020FEF79EFA08
:103B00004AF6A4010320FEF799FA00210C20FEF7E3
:103B100095FA40F60C010D20FEF790FA4FF42C5167
:103B20000E20FEF78BFAB0211E20FEF787FA42F630
:103B30003F310120FEF782FA4FF4C0610220FEF708
:103B40007DFA00211020FEF779FA46F2700111206B
:103B5000FEF774FA00210520FEF770FA0021062016
:103B6000FEF76CFA4EF61C711620FEF767FA032179
:103B70001720FEF763FA40F233210720FEF75EFAC2
:103B800000210B20FEF75AFA00210F20FEF756FA0B
:103B900000214120FEF752FA00214220FEF74EFAA2
:103BA00000214820FEF74AFA40F23F114920FEF773
:103BB00045FA00214A20FEF741FA00214B20FEF78A
:103BC0003DFA4FF46F414420FEF738FA00214520BA
:103BD000FEF734FA40F23F114620FEF72FFA40F28A
:103BE00007713020FEF72AFA4FF401713120FEF7F9
:103BF00025FA00E03DE04FF401713220FEF71EFA95
:103C000040F202513320FEF719FA40F207513420F6
:103C1000FEF714FA4FF401713520FEF70FFA4FF456
:103C200001713620FEF70AFA40F202513720FEF702
:103C300005FA40F202313A20FEF700FA40F2023172
:103C40003B20FEF7FBF900212320FEF7F7F90021C6
:103C50002420FEF7F3F94FF400412520FEF7EEF99A
:103C600000214F20FEF7EAF900214E20FEF7E6F989
:103C700079E133480088A0F58A4131397ED10121AC
:103C80000020FEF7DBF90A20FEF7B8F841F22861C0
:103C90001020FEF7D3F90E211220FEF7CFF940F6DF
:103CA00039211320FEF7CAF90A20FEF7A7F84021B0
:103CB0001120FEF7C3F950211520FEF7BFF90A20A5
:103CC000FEF79CF81E211220FEF7B8F90A20FEF735
:103CD00095F84FF4B1511020FEF7B0F942F63921B2
:103CE0001320FEF7ABF90A20FEF788F84FF4807135
:103CF0000120FEF7A3F94FF440710220FEF79EF970
:103D000041F230010320FEF799F940F20221082028
:103D1000FEF794F908210A20FEF790F900213020DF
:103D2000FEF78CF940F202413120FEF787F94FF49B
:103D300083713220FEF782F940F20351332001E013
:103D400050000020FEF77AF94FF482713420FEF71C
:103D500075F940F201313520FEF770F940F2077134
:103D60003620FEF76BF940F205313720FEF766F991
:103D70004FF402713820FEF761F900E03EE040F6B2
:103D80000B713920FEF75AF902214120FEF756F94E
:103D90004FF41C516020FEF751F901216120FEF71C
:103DA0004DF94FF404719020FEF748F94FF48571F6
:103DB0009220FEF743F904219320FEF73FF94FF4D8
:103DC0008071A020FEF73AF901210720FEF736F9AD
:103DD00021210720FEF732F923210720FEF72EF9D3
:103DE00033210720FEF72AF940F233110720FEF7AE
:103DF00025F90021A020FEF721F9B4E0F948008858
:103E0000A0F58A413539F8D130211520FEF716F991
:103E100010219A20FEF712F920211120FEF70EF949
:103E200043F228411020FEF709F902211220FEF783
:103E300005F941F238011320FEF700F92820FDF7BB
:103E4000DDFF12210846FEF7F9F82820FDF7D6FF1E
:103E500043F220411020FEF7F1F843F2380113201D
:103E6000FEF7ECF84620FDF7C9FF00213020FEF7F1
:103E7000E5F840F202413120FEF7E0F840F2073168
:103E80003220FEF7DBF84FF441713320FEF7D6F80D
:103E900004213420FEF7D2F840F201413520FEF72C
:103EA000CDF840F207713620FEF7C8F840F2053130
:103EB0003720FEF7C3F84FF4C2613820FEF7BEF892
:103EC0004FF4C2613920FEF7B9F84FF48071012038
:103ED000FEF7B4F84FF440710220FEF7AFF841F25C
:103EE00030010320FEF7AAF840F608010820FEF78B
:103EF000A5F808210A20FEF7A1F84FF41C51602014
:103F0000FEF79CF801216120FEF798F84FF49F71AD
:103F10009020FEF793F84FF480719220FEF78EF810
:103F20004FF480719320FEF789F84FF44051A020A0
:103F3000FEF784F81021A320FEF780F80121072066
:103F4000FEF77CF821210720FEF778F823210720CF
:103F5000FEF774F833210720FEF770F840F23311B2
:103F60000720FEF76BF80020FEF75EF901209E495E
:103F700008604FF6FF70FEF7CCFA08BD2DE9F05F40
:103F800004460D4616461F46DDF828804FF0000B0C
:103F90000020FEF749F9301B401C1FFA80FBA946A0
:103FA00020E04946204600F0BBFCFEF763F84FF0E6
:103FB000000A11E04FF480708C49086140004861AC
:103FC0008B48C0F80C8C8020486108618000086133
:103FD0000AF101001FFA80FADA45EBDB09F1010072
:103FE0001FFA80F9B945DCDD0020FEF71DF9BDE8B8
:103FF000F09F2DE9FF4F85B004460D461646002080
:1040000004900390A6EB04080898A0EB0509A346CA
:104010000095B8F1000F02DD012001900AE0B8F12F
:10402000000F02D10020019004E04FF0FF3001901A
:10403000C8F10008B9F1000F02DD4FF0010A09E0F4
:10404000B9F1000F02D14FF0000A03E04FF0FF3A40
:10405000C9F10009C84502DDCDF8088001E0CDF8BE
:104060000890002722E0009881B21FFA8BF0FEF73B
:1040700036FA049840440490039848440390029907
:104080000498884205DD04990298081A0490019862
:104090008344DDE90210884206DDDDE90210401AA2
:1040A0000390009850440090781C87B20298401CFE
:1040B0008742D8DD09B0BDE8F08F2DE9F041044614
:1040C0000D4616461F462B46324629462046FFF728
:1040D00090FF3B46224629462046FFF78AFF3B4693
:1040E000324639462046FFF784FF3B463246294692
:1040F0003046FFF77EFFBDE8F0812DE9F04704462A
:104100000D4616460027B0460320A0EB460954E0B2
:10411000EA1B91B2A4EB080290B2FEF7E0F9EA1BA9
:1041200091B204EB080290B2FEF7D9F905EB080250
:1041300091B2E21B90B2FEF7D2F9EA1B91B2A4EB66
:10414000080290B2FEF7CBF9A5EB080291B2E21B90
:1041500090B2FEF7C4F9EA1991B204EB080290B2EA
:10416000FEF7BDF9A5EB080291B2E21990B2FEF795
:10417000B6F905EB080291B2E21990B2FEF7AFF979
:10418000EA1991B2A4EB080290B2FEF7A8F97F1CDD
:10419000B9F1000F03DAB800801D814406E0A7EBF7
:1041A000080080000A308144A8F1010805EB0802EC
:1041B00091B2E21990B2FEF792F94745A8DDBDE849
:1041C000F0872DE9F84F04460D4616461F46A346D4
:1041D000084800880090E82C02DCB5F59C7F0BDDD8
:1041E000BDE8F88F50000020A801224200100140D5
:1041F000000001404C000020A6F12000C6B20A9841
:10420000002839D1814634E00C2F07D106EB460057
:104210008D4901EB800010F8098004E08B4800EB29
:10422000061010F809804FF0000A16E018F0010F90
:1042300003D087490098088003E0864800888449B5
:10424000088029462046FEF74AF94FEA6808601CB4
:1042500084B20AF1010000F0FF0A07EBD771BAEB54
:10426000610FE3DB5C46681C85B209F1010000F0D8
:10427000FF09B945C8DB30E04FF000092BE00C2FF7
:1042800007D106EB4600704901EB800010F8098069
:1042900004E06E4800EB061010F809804FF0000AA9
:1042A00010E018F0010F07D005EB090291B204EB02
:1042B0000A0290B2FEF713F94FEA68080AF101000A
:1042C00000F0FF0A07EBD771BAEB610FE9DB09F1E8
:1042D000010000F0FF09B945D1DB5D490098088075
:1042E0007EE710B50246012000E050430B00A1F12B
:1042F0000104E1B2F9D110BD2DE9FF4F81B00446B0
:1043000015461E460E9F4FF0000AD0463EE0A6EB33
:104310000800401EC1B20A20FFF7E3FFB5FBF0F032
:104320000A21B0FBF1F201FB120000F0FF09BAF123
:10433000000F16D1701E404513DDB9F1000F0ED1EC
:104340000023BB4607EBD771491001FB084188B237
:1043500000933B4620220299FFF733FF12E04FF013
:10436000010A0023BB4607EBD771491001FB084146
:1043700088B200933B4609F13001CAB20299FFF7B7
:1043800020FF00BF08F1010000F0FF08B045BEDBD0
:1043900005B0BDE8F08F2DE9F84F04460D461646EE
:1043A0001F46DDF828804FF0000923E0A7EB090045
:1043B000401EC1B20A20FFF794FFB6FBF0F00A21BD
:1043C000B0FBF1F201FB120000F0FF0A0B9BC346A9
:1043D00008EBD871491001FB094188B200934346AC
:1043E0000AF13001CAB22946FFF7EBFE09F10100DC
:1043F00000F0FF09B945D9DBBDE8F88FF8B50446F0
:104400000D4616461BE0E82C03DD002405F11000E4
:1044100085B2B5F59C7F06DD0020044605464FF6C3
:10442000FF70FEF776F800230093327810232946B8
:104430002046FFF7C6FE04F1080084B2761C3078EF
:104440000028E0D1F8BD0000085200087C560008A2
:104450004C0000204E00002030B585B004460D46CB
:1044600001210420FCF79EFB0120ADF80000042090
:104470008DF8030003208DF8020069468148FCF79F
:10448000E7F801210846FCF79AFB4FF08040FCF763
:10449000EBFBADF80C40ADF808500020ADF80E0075
:1044A000ADF80A0002A94FF08040FCF7B1FC0122F0
:1044B00041218807FCF7F8FF1C208DF8040000203C
:1044C0008DF8050003208DF8060001208DF8070007
:1044D00001A8FBF7F2FF00231A4619464FF080406F
:1044E000FDF760F800214FF08040FDF725FA01212B
:1044F0008807FCF7B4FF01212020FCF753FB0420C0
:10450000ADF800008DF8030003208DF80200694625
:104510005D48FCF79DF801210220FCF750FB5B4849
:10452000C06940F002005949C8615948008840F00C
:1045300001008904A1F80C0455480C38FCF794FBE1
:10454000ADF80C40ADF808500020ADF80E00ADF805
:104550000A0002A94E480C38FCF75AFC01224121FE
:104560004B480C38FCF7A0FF1D208DF804000020FC
:104570008DF8050003208DF8060001208DF8070056
:1045800001A8FBF79AFF00231A46194640480C3849
:10459000FDF708F800213E480C38FDF7CDF9012160
:1045A0003B480C38FCF75BFF05B030BD10B501206F
:1045B000384908604FF49670FDF720FC4FF4967070
:1045C000FDF71CFC4FF49670FDF718FC4620FDF734
:1045D00015FC1E20FDF712FC00202F49C1F8A00198
:1045E0002B48183000882D49096800EB01402C4900
:1045F00008604FF08040808C2A49096800EB014038
:104600002949086026480468002024490860204998
:104610001831088009078884204610BD22480068A8
:104620002249086000201F49086020480068704740
:104630004FF08040008A10F0010F04D01948006844
:10464000401C184908604FF08040008A20F00100AB
:104650004FF08041088270470D48001D008810F01F
:10466000010F04D00D480068401C0C490860084840
:10467000001D008820F001004FF08041A1F81004D7
:104680007047000000080140001401400010024083
:104690000C040040A00121420000214254000020EF
:1046A000580000205C00002060000020680000200E
:1046B00008B501210420FCF775FA4FF48070ADF8BD
:1046C000000010208DF8030003208DF802006946D9
:1046D0000448FBF7BDFF4FF480710248FCF760F817
:1046E00008BD000000080140704700000FB4054AF3
:1046F000054910B503AB7944029800F0CEF810BC20
:104700005DF814FB4800002085D7FFFF2DE9F0413C
:1047100004460E4600202BE0E1682046884748B357
:10472000252802D0D4E901211FE0E16820460027B6
:10473000884705001ED0A5F14100192802D8203570
:104740004FF400673246294620462760FBF708FDF4
:1047500040B1012801D1361DDEE7F61D26F007061F
:104760000836D9E7D4E9012128469047206A401C41
:104770002062D1E7206ABDE8F081000070B50446F0
:104780000D4621461068AFF300802168090502D567
:10479000104A7A4402E00F4A7A440E32002104F1B2
:1047A000240306E000F00F064FEA1010965D5E54F9
:1047B000491C0028F6D120680023000704D5702D7D
:1047C00002D009B1113202232046BDE8704000F04A
:1047D00007B80000D6140000704770477047704754
:1047E0002DE9F0470D4604469246994600F124080B
:1047F0000168880604D5E06921F01001216000E01D
:1048000001200027A84200DD471BA1697A1902EBAD
:104810000900081AA0612068C00602D42046AFF340
:104820000080002608E0D4E901211AF8060090472C
:10483000206A401C761C20624E45F4DB2068C006CE
:104840000AD52046AFF3008006E0D4E901213020EC
:104850009047206A401C2062381EA7F10107F4DC53
:1048600007E0D4E9012118F805009047206A401CB0
:104870002062281EA5F10105F3DC2046AFF300807D
:1048800021680220090600D40120BDE8F08700005D
:1048900001694A1C02610878704710B50C46194638
:1048A00090B0CDE9024200220692044A7A44CDE952
:1048B000042001A8FFF72AFF10B010BDE1FFFFFFA1
:1048C000754600F029F8AE4605006946534620F0CB
:1048D0000700854618B020B5FBF7D8FDBDE820409D
:1048E0004FF000064FF000074FF000084FF0000BAC
:1048F00021F00701AC46ACE8C009ACE8C009ACE85F
:10490000C009ACE8C0098D4670470446AFF300808B
:104910002046FBF739FC000000487047AC0000203F
:1049200030B504460D462F480088A0F50941893965
:1049300008D121464E20FDF781FB29464F20FDF787
:104940007DFB4DE027480088A0F5134141393FD158
:104950002A20FDF731FB4FF48070234908614000A5
:10496000486120122149086080201F494861086180
:10497000800008614010086140004861E0B21C49B5
:10498000C1F80C0C8020184948610861800008615A
:104990002B20FDF711FB4FF4807013490861400094
:1049A000486128121149086080200F494861086158
:1049B000800008614010086140004861E8B20B497E
:1049C000086080200849486108618000086107E0AC
:1049D00021462020FDF732FB29462120FDF72EFB42
:1049E00030BD000050000020001001400C0C0140C0
:1049F0000000014002494FF0000000F0BBBB000086
:104A00000000F87F02494FF0000000F0B3BB000047
:104A10000000F87F70B5DFF8ECC33CEA111418BF52
:104A20003CEA131400F09B8081EA03050CEA1114A0
:104A300044EAD5741CEA131518BF11EA0C1F00F0E4
:104A400074804FEAC1214FEAC32341EA505143EA3F
:104A50005253A4EB050404F17F7441F0004143F08C
:104A600000434FEAC0204FEAC22200F0A9F84605F1
:104A70004FEAD02003EB244340EA41504FEAD121D2
:104A800001EB035282EAC47116D05FEA460E38BFCA
:104A90004FF0404610D314BF00234FF0004350F1B5
:104AA000000041F1000110EAD37F4FF0804620EA78
:104AB000D37018BF4FF0404691EAC47FDFF848E357
:104AC00016D412EA0E0F18BF3EEA010E10D070BDC8
:104AD000E50754BF1EF4000F1EF4800F0ABF4FF00D
:104AE00080464FF0404610F1010041F10001E3E73C
:104AF000B4F1806FDEBF01F1C04101F00041002040
:104B000000DC70BDA8BFA1F1C04146F0140CA8BFE5
:104B10004CF0805CBDE870406FF0000041EA50014D
:104B200081EA10314FF00000704711EA0C1F00D0ED
:104B30000AE013EA0C1F00F03D804FF0000081EA0C
:104B4000030101F0004170BD6FF0000081EA030134
:104B500041EA500181EA10314FF0000070BD4FEA88
:104B6000410EBEEB4C1F4FEA430508BF002898BF1B
:104B7000B5EB4C1F08BF002ABDE87040DFF88CC2BF
:104B80003FF638AFAFF300804FF4001C1CEB410F31
:104B900009D11CEB430F0FD04B4021F0004148BF1F
:104BA00041F0004170474FF0000081EA030303F039
:104BB00000417047BDE870404FF0000094497047D5
:104BC000E0B5054610B40C460FF238114FEA430C1D
:104BD0004FF0010E4FEA9C6C51F82CC04FF00001D1
:104BE000ACFB02604FF00006ECFB0301001841EB48
:104BF0000101301A66EB0101E1FB0C6C4FF0000182
:104C0000ACFB02604FF00006ECFB0301001841EB27
:104C10000101301A66EB0101E1FB0C6C4FF0000161
:104C2000ACFB0560ECFB0401A2FB0167E3FB006E3B
:104C300017EB0E074FF0000EE3FB017E4EF1000E66
:104C4000B6197F414EEB0E0E764275EB070764EB0B
:104C50000E0EECFB0E01ACFB07E64FF0000E8019C8
:104C600041F10001A2FB0067B619E2FB017EE3FB04
:104C7000007E7F4103FB01EE4EEB0E0E76424FF0BD
:104C8000000676EB070765EB0E0EACFB0E674FF0E8
:104C9000000E4FEA857C4FEA9505C01941F10001ED
:104CA00045EA847549084FEA3000A2FB0067764266
:104CB000E2FB017EE3FB007E7CEB070703FB01EEDA
:104CC00065EB0E0EB51A77EB03047EF1000E24BFE0
:104CD0002E46274650F1000041F10001012E38BF59
:104CE000012F404141EB010111F0004F18BF022399
:104CF00001D0F0BC00BDF0BC4FF00103001841EB47
:104D0000010100BDFCC00FFC830F3EF85F8D89F4EC
:104D1000F0F0F0F0B50373EDEAA00EEA48B4C2E695
:104D2000E3388EE31C3870E0A6C867DDA70D74DA9F
:104D3000E53594D7037BC7D4D2200DD2A87464CFB5
:104D4000CCCCCCCCE68745CA7C0CCEC77BC865C52D
:104D5000C3300CC3C0C0C0C00BFA82BE0B6452BCCF
:104D6000A28B2EBAE00217B8B6600BB6B4400BB4F3
:104D7000C84216B2020B2CB05C414CAE849176ACAA
:104D8000AAAAAAAA573FE8A839052FA702B57EA567
:104D90003D0AD7A32BC337A2A0A0A0A0E765119F0F
:104DA0009DD8899D9CC0099CD9E7909A511A1F995A
:104DB000ED25B4976CDA4F964F09F294C4859A9317
:104DC0009224499209BCFD90EE23B88F6D35788E00
:104DD00008CB3D8D8CC0088CFBF2D88A8940AE8907
:104DE000888888885FAB67877D8A4B8653083485BF
:104DF00042082184976E128382200882080402816F
:104E0000000000800000FF070000F07F1400000495
:104E10000000F87F4FEAC12303B40A1543EA505358
:104E200018BF43F000430CD4A2F56072D2F19E0289
:104E300011DBFF2ACCBF002123FA02F1084602B0A1
:104E4000704701F1804212F5801F80F204804FF01C
:104E5000000002B0704703BCDFF828C0012841EB16
:104E6000010313F5001F88BF4CF4803C3FF6CAAD28
:104E70003CBF6FEAE1707047AFF300806FEAE1700A
:104E800070470000E800020410F0004314BF4142E4
:104E9000014643F08043B1FA81FC03F1F87311FA43
:104EA0000CF1A3EB0C534FEA415008BF704703EBE2
:104EB000E12170474FF080430146FFF7ECBF00004F
:104EC000DFF8B4C170B53CEA111E18BF3CEA131EEE
:104ED00000F0A68081EA03050CEA111E4EEAD57E99
:104EE0001CEA131518BF11EA0C1F00F08F80AE44A6
:104EF00021EA4C1123EA4C13AEF17F7E41F480117C
:104F000043F48013A1FB024CA0FB0365361955EB5B
:104F10000C05A1FB034C4CF10003A0FB021C16EB9B
:104F20000C06654153F10003094218BF46F0010623
:104F30004FF0140CB3F5007F4CF1000CCCF12004C1
:104F400025FA0CF203FA04F141EA020105FA04F031
:104F500026FA0CF240EA02006FF0030242EB2E4206
:104F600016FA04F401EB025585EACE7115D05FEA1A
:104F7000440C38BF4FF040440FD308BF43F0004308
:104F800050F1000041F1000110EAD37F4FF080445E
:104F900020EAD37018BF4FF0404415F0004FDFF8FF
:104FA000DCC017D415EA0C0F18BF3CEA010C11D075
:104FB00070BD5FEACE7454BF1CF4000F1CF4800F68
:104FC0000ABF4FF080444FF0404410F1010041F11E
:104FD0000001E2E7BEF1806FA2BFA1F1C04144F041
:104FE000130C4CF0805CBDE8704006DA4FF0000016
:104FF00001F1C04101F0004170476FF0000041EA4B
:10500000500181EA10314FF0000070474FEACE7135
:105010004FF0000070BD4FEACE714FF0000070BD40
:105020004FEA4105B5EB4C1F4FEA430608BF002885
:1050300098BFB6EB4C1F08BF002ABDE87040DFF8F0
:1050400040C03FF6D7ACAFF300804FF4001CBCEB80
:10505000410F98BFBCEB430F0AD84FF0000081EA24
:10506000030101F0004141F0FE4141F4700170473D
:1050700004494FF0000070470000FF070000F07F78
:10508000130000040000F87F094248BF4CF4803C44
:105090004FF4C0634FEA115203F1010321EA0251B8
:1050A00022F400629A1A48BF6FF0FE0241F48011A8
:1050B000352A3CD830D0152A1ED3203A0CD90028E6
:1050C000C2F1200321FA02F001FA03F218BF42F004
:1050D00001024FF0000130E0C2F1000302F12002B2
:1050E00001FA03F120FA02F241EA020100FA03F2A6
:1050F00008464FF0000120E0C2F1200310B400FA8E
:1051000003F401FA03F320FA02F021FA02F1224635
:1051100010BC43EA000010E050EA01324FF00000FA
:105120004FF000014FF0004218BF521C05E04FF055
:1051300001024FF000014FF000001CF4803F2CF4FE
:10514000803C18BF41F00041124208BF7047520036
:1051500003D303D0401C41F1000170475FEAAC72F9
:10516000F8D4FAD1401C41F1000120F00100F4E72D
:10517000704770470CF00F03092B08BF082000F0A0
:105180002B800A2B0BD0082B18BF704708BF1CF0D0
:10519000400F0AD04FF000004FF0000170471CF0A4
:1051A000400F18BF4FF0004070471CF0100F08D0A0
:1051B00020F0704300F07F4242EAD3014FEA43708F
:1051C000704700F0604021F07F4242EA000201F0A7
:1051D0007F4040EA727070471CF4801F11D01CF4AD
:1051E000E02F03D06FEACC31490070474FF04050B8
:1051F000EFF3008222F0704242EA000282F300885C
:1052000070474FF0000070470000000000000000F1
:105210000000000000000404040404040004000072
:1052200000140A0A0000000000000000000014142E
:105230003F140A3F0A0A000000041E1505060C145C
:10524000150F0400000012150D0A142C2A1200007C
:105250000000040A0A1E15150936000000020201AA
:1052600000000000000000000020100808080808E6
:1052700008102000000204080808080808040200BA
:1052800000000004150E0E150400000000000404C8
:10529000041F0404040000000000000000000000DF
:1052A0000002020100000000001F000000000000DA
:1052B00000000000000000000002000000100808CC
:1052C000080404020202010000000E111111111164
:1052D000110E00000000040604040404040E000083
:1052E00000000E1111080402011F000000000E1141
:1052F000100C1010110E00000000080C0A0A091E04
:105300000818000000001F01010F1010110E00000E
:1053100000000E09010F1111110E000000001F09FD
:10532000080404040404000000000E11110E111101
:10533000110E000000000E1111111E10120E0000BF
:105340000000000004000000000400000000000055
:1053500000040000000404000020100804020408F7
:1053600010200000000000001F00001F00000000CF
:1053700000020408102010080402000000000E11B2
:10538000110804040004000000000E111915151D79
:10539000011E0000000004040C0A0A1E1233000063
:1053A00000000F12120E1212120F000000001E1148
:1053B00001010101110E000000000F121212121261
:1053C000120F000000001F120A0E0A02121F000036
:1053D00000001F120A0E0A020207000000001C1241
:1053E00001013911120C000000003312121E1212BA
:1053F0001233000000001F0404040404041F000012
:1054000000003E08080808080809070000003712D5
:105410000A060A0A1237000000000702020202020E
:10542000223F000000001B1B1B1B1515151500005B
:1054300000003B1216161A1A1217000000000E1177
:1054400011111111110E000000000F12120E0202B4
:105450000207000000000E1111111117190E18009B
:1054600000000F12120E0A121237000000001E1167
:1054700001060810110F000000001F1504040404A9
:10548000040E00000000331212121212120C00005F
:1054900000003312120A0A0C040400000000151563
:1054A000150E0A0A0A0A000000001B0A0A04040A70
:1054B0000A1B000000001B0A0A040404040E00007A
:1054C00000001F0908040402121F0000001C04044D
:1054D0000404040404041C0000020202040408087A
:1054E00008100000000E08080808080808080E0048
:1054F00000040A000000000000000000000000009E
:10550000000000000000003F000400000000000058
:105510000000000000000000000C121C123C000003
:1055200000000302020E1212120E00000000000022
:10553000001C1202021C000000001810101C1212A5
:10554000123C000000000000000C121E021C0000B3
:1055500000003804041E0404041E000000000000C3
:10556000003C120C021E221C00000302020E12124A
:10557000123700000000040000060404040E0000BE
:1055800000000800000C08080808080700000302D3
:10559000023A0A0E12370000000007040404040453
:1055A000041F000000000000000F15151515000075
:1055B00000000000000F121212370000000000006F
:1055C000000C1212120C000000000000000F12125A
:1055D000120E020700000000001C1212121C1038EC
:1055E00000000000001B060202070000000000008F
:1055F000001E020C101E000000000004040E040433
:105600000418000000000000001B1212123C0000F1
:10561000000000000037120A0C0400000000000027
:105620000015150E0A0A000000000000001B0A0405
:105630000A1B0000000000000037120A0C040403DB
:1056400000000000001E0804041E000000180808E6
:1056500008040808080818000808080808080808C6
:1056600008080808000604040408040404040600EA
:1056700002251800000000000000000000000000EB
:105680000000000000000000000000000000000812
:1056900008080808080800001818000000486C24D2
:1056A00012000000000000000000000000000024C4
:1056B00024247F1212127F12121200000000081C14
:1056C0002A2A0A0C1828282A2A1C08080000002266
:1056D000251515152A585454542200000000000CBA
:1056E0001212120A76252911916E00000006060496
:1056F0000300000000000000000000000040201037
:1057000010080808080808101020400000020408CB
:10571000081010101010100808040200000000000B
:1057200008086B1C1C6B080800000000000000004B
:10573000080808087F0808080800000000000000AA
:105740000000000000000000060604030000000046
:1057500000000000FE00000000000000000000004B
:10576000000000000000000006060000000080406D
:105770004020201010080804040202000000001855
:1057800024424242424242422418000000000008E3
:105790000E08080808080808083E00000000003C41
:1057A0004242422020100804427E00000000003CDB
:1057B0004242201820404042221C000000000020ED
:1057C0003028242422227E20207800000000007E41
:1057D0000202021A26404042221C0000000000384B
:1057E0002402021A26424242241800000000007ED1
:1057F0002222101008080808080800000000003CD9
:105800004242422418244242423C00000000001858
:105810002442424264584040241C00000000000022
:105820000000181800000000181800000000000018
:10583000000000080000000000080804000000400C
:10584000201008040204081020400000000000009E
:1058500000007F0000007F00000000000000000248
:105860000408102040201008040200000000003C42
:105870004242464020101000181800000000001C92
:10588000225A555555552D42221C00000000000893
:1058900008181414243C224242E700000000001FB4
:1058A0002222221E22424242221F00000000007CCF
:1058B0004242010101010142221C00000000001FC0
:1058C0002242424242424242221F00000000003F68
:1058D0004212121E12120242423F00000000003F1C
:1058E0004212121E12120202020700000000003CC7
:1058F0002222010101712122221C0000000000E788
:10590000424242427E42424242E700000000003EE4
:105910000808080808080808083E00000000007C85
:1059200010101010101010101010110F0000007740
:1059300022120A0E0A12122222770000000000072B
:105940000202020202020202427F0000000000770F
:10595000363636362A2A2A2A2A6B0000000000E34F
:1059600046464A4A52525262624700000000001CFA
:105970002241414141414141221C00000000003FC1
:10598000424242423E020202020700000000001CA6
:105990002241414141414D53321C60000000003F13
:1059A0004242423E1212222242C700000000007C06
:1059B0004242020418204042423E00000000007FA4
:1059C0004908080808080808081C0000000000E74B
:1059D0004242424242424242423C0000000000E752
:1059E0004242222424141418080800000000006B0E
:1059F000494949495555362222220000000000E756
:105A0000422424181818242442E7000000000077DC
:105A10002222141408080808081C00000000007E58
:105A20002120101008040442423F000000780808BA
:105A3000080808080808080808087800000002029A
:105A4000040408080810102020204040001E1010F8
:105A5000101010101010101010101E00003844000C
:105A60000000000000000000000000000000000036
:105A70000000000000000000000000FF0006080019
:105A80000000000000000000000000000000000016
:105A90000000003C4278444242FC00000000000349
:105AA0000202021A26424242261A000000000000AA
:105AB0000000003844020202443800000000006088
:105AC000404040784442424264D800000000000058
:105AD0000000003C427E0202423C0000000000F058
