:020000040800F2
:100000003807002045010008510B0008110B0008BB
:100010004D0B000851020008AD1800080000000058
:100020000000000000000000000000007110000847
:100030008504000800000000FD0D0008F51100080F
:100040005F0100085F0100085F0100085F01000810
:100050005F0100085F0100085F0100085F01000800
:100060005F0100085F0100085F0100085F010008F0
:100070005F0100085F0100085F0100085F010008E0
:100080005F0100085F0100085F0100085F010008D0
:100090005F0100085F0100085F0100085F010008C0
:1000A0005F010008811200085F0100085F0100087D
:1000B0005F0100085F0100085F0100085F010008A0
:1000C0005F0100085F0100085F0100085F01000890
:1000D0005F0100085F01000815140008CD14000836
:1000E0005F0100085F0100085F0100085F01000870
:1000F0005F0100085F0100085F0100085F01000860
:100100005F0100085F0100085F0100085F0100084F
:100110005F0100085F0100085F0100085F0100083F
:100120005F0100085F0100085F0100085F0100082F
:10013000DFF80CD000F07AF80048004741200008B2
:10014000380700200648804706480047FEE7FEE7DC
:10015000FEE7FEE7FEE7FEE7FEE7FEE7FEE7FEE777
:10016000F911000831010008D2B201E000F8012BBA
:10017000491EFBD270470022F6E710B513460A4627
:1001800004461946FFF7F0FF204610BD421E12F844
:10019000013F002BFBD111F8013B02F8013B002B82
:1001A000F9D1704730B505462A460B4612F8010BC7
:1001B00013F8014B08B1A042F8D01CB1002802D0BE
:1001C0006D1CF1E7284630BD421C10F8011B0029C8
:1001D000FBD1801A704710B5044600E0401C03783C
:1001E000002BFBD100E0401C521E04D311F8013B50
:1001F0000370002BF7D100210170204610BD30B5EF
:100200000B46014600202022012409E021FA02F5D4
:100210009D4205D303FA02F5491B04FA02F528446E
:10022000151EA2F10102F1DC30BD0000064C074DA5
:1002300006E0E06840F0010394E8070098471034B6
:10024000AC42F6D3FFF778FF88320008A8320008E6
:1002500000BFFEE708B50121082000F0F1FD0121F3
:10026000134800F009FC4FF47040ADF80000102076
:100270008DF8030003208DF8020069460D4800F058
:100280006FFB10210B4800F03FFC2021094800F0D3
:100290003BFC4021074800F037FC8021054800F076
:1002A00033FC0821034800F02FFC01F045FE08BD97
:1002B00000023000000C014010B508E003E04FF4EC
:1002C0007A7001F049FC00F09DFC0028F7D102484B
:1002D00000680028F2D010BD3C00002010B50024BA
:1002E0001548006820F4704013490860084600680B
:1002F00040F40040086004E0601CC4B2012001F03A
:1003000051FC0E48006808B1642CF5DB642C01DB5D
:10031000012010BD002404E0601CC4B2012001F0E3
:1003200041FC0648006808B9642CF5DB642C01DB4D
:100330000120EEE70020ECE7040C01402C81214273
:1003400008B50121082000F07BFD4FF40060ADF8F6
:10035000000010208DF8030003208DF8020069468C
:10036000064800F0FDFA4FF40061044800F0CEFBAF
:1003700000F068F8FFF7B2FF08BD0000000C014074
:1003800010B5002404E0601CC4B2012001F00AFC96
:100390000D48006808B1642CF5DB002404E0601C03
:1003A000C4B2012001F0FEFB0748006808B9642CC4
:1003B000F5DB282001F0F6FB0348006808B10120B6
:1003C00010BD0020FCE700002C81214270B5002404
:1003D000002506E06006040EFFF7D2FF0443681C08
:1003E000C5B2082DF6DB204670BD7CB505460E462D
:1003F00000F028F8FFF772FFF8B9002405E0FFF7D6
:10040000E5FF0DF80400601CC4B2052CF7DB9DF875
:1004100000009DF8011008449DF8021008449DF862
:10042000031008449DF80410884208D19DF800008C
:1004300030709DF80200287001E001207CBD002092
:10044000FCE7000010B50C48006820F470400A4931
:1004500008600846006840F44050086000200749E2
:100460000860142001F078FB01200549C1F8AC01B7
:100470001E2001F097FB10BD040C0140AC8121420D
:1004800000802142704710B50446207B012802D12C
:10049000206801F029FD002020606060A0602073CA
:1004A00010BD70B504460E460025206898B901209D
:1004B0002073304601F07CFE20602068E0B100200F
:1004C0006060A66003E00020216848556D1CA068AC
:1004D000A842F8D810E00220207303E00020216831
:1004E00048556D1CA068A842F8D800206060A0683C
:1004F000B04201D20020206070BD00002DE9F0471D
:100500008046894617461C464046FFF75DFEC5B249
:100510004846FFF759FEC6B238212046FFF7C1FF13
:10052000206810B90120BDE8F0871020216808700C
:100530006068401C606005F10D003044216848701F
:100540006068401C6060002021688870032021687A
:10055000C8706068801C60602168081D032221A1AA
:10056000FFF739FE6068C01C606001202168C87117
:100570006068401C60604020216808726068401C10
:100580006060380A2168487221688F726068801C38
:10059000606000202168C87221680D736068801C4B
:1005A0006060216801F10D002A464146FFF713FE05
:1005B000606828446060002105F10D002268115434
:1005C000401C226816546068801C606021680F31EE
:1005D000481932464946FFF7FEFD606830446060C6
:1005E0000020A0E74544500010B5044602212046F3
:1005F000FFF757FF206808B9012010BDC0216268CD
:10060000501C60602068815400216268501C60604A
:1006100020688154A28891B2206800F099F92046A0
:1006200001F062FC0020E8E72DE9F84F81460D4615
:1006300017461E460A9C002000904846FFF7C4FD5E
:1006400000F0FF08022E03D117B90120BDE8F88F92
:10065000022E08D13846FFF7B7FD824651462046A4
:10066000FFF71FFF04E005F118012046FFF719FF0F
:10067000206808B90220E9E780216268501C6060A8
:1006800020688154B9F1000F40D0022E07D13846BE
:10069000FFF79AFD0C30284400B2009004E005F109
:1006A0000800404400B20090A1888AB220680099F6
:1006B00001F0FEF8616808446060C0216268501C67
:1006C00060602068815400216268501C606020686E
:1006D00081546168481C6060206800F80180D4E99A
:1006E0000012881842464946FFF775FD606840448D
:1006F000606055216268501C606020688154AA21A6
:100700006268501C60602068815427E0022E07D187
:100710003846FFF759FD0A30284400B2009002E045
:10072000A81D00B20090A1888AB22068009901F04B
:10073000BFF861680844606040216268501C6060D6
:100740002068815455216268501C60602068815483
:10075000AA216268501C6060206881546168481C4E
:10076000606020684654022E3AD13846FFF72CFDCF
:1007700000F0FF0A4FF0000B00216268501C60601F
:10078000206881546168481C6060206800F801A0FE
:100790000AE017F80B106268501C606020688154F2
:1007A0000BF1010000F0FF0BD345F2DB290E62686C
:1007B000501C606020688154C5F307416268501C7A
:1007C000606020688154C5F307216268501C606036
:1007D000206881546268501C6060206885540BE07A
:1007E000C5F307216268501C60602068815462680C
:1007F000501C606020688554002027E710B54FF436
:10080000FA74012016490870224616A116A000F0BD
:1008100031FC224613A116A000F02CFC224611A1A7
:1008200017A000F027FC600001F096F940F2A462E6
:100830000CA116A000F01EFC22460AA11BA000F08D
:1008400019FC224607A123A000F014FC224625A192
:1008500025A000F00FFC00200149087010BD000029
:10086000080000204F4B000041540D0A000000001A
:1008700041542B43574D4F44453D330D0A00000072
:1008800041542B5253540D0A0000000041542B4395
:10089000574A41503D2241363135222C22413631D2
:1008A0003541363135220D0A0000000041542B43FA
:1008B000495053544152543D22544350222C22312A
:1008C00038332E3233302E34302E3339222C383711
:1008D000360D0A0041542B4349504D4F44453D319C
:1008E0000D0A00003E00000041542B43495053457F
:1008F0004E440D0A0000000008B50121042000F05C
:100900009FFA10208DF803004002ADF8000003208C
:100910008DF8020069460D4800F022F84FF40051AE
:100920000A4800F0F3F810208DF803008002ADF8BB
:10093000000003208DF802006946044800F010F81A
:100940004FF48041014800F0E1F808BD002001406B
:1009500070B504460D462946204600F08BFF70BD59
:100960002DE9F04102460025002600200023002446
:10097000002791F803C00CF00F0591F803C00CF0AC
:10098000100CBCF1000F03D091F802C04CEA050531
:1009900091F800C0BCF1000F31D0146800202BE0AA
:1009A0004FF0010C0CFA00F3B1F800C00CEA03069A
:1009B0009E4220D183004FF00F0C0CFA03F7BC438A
:1009C00005FA03FC4CEA040491F803C0BCF1280FBB
:1009D00006D14FF0010C0CFA00FCC2F814C00AE07A
:1009E00091F803C0BCF1480F05D14FF0010C0CFA8F
:1009F00000FCC2F810C0401C0828D1D31460B1F824
:100A000000C0BCF1FF0F34DD546800202EE000F17F
:100A1000080C4FF0010808FA0CF3B1F800C00CEA1A
:100A200003069E4221D183004FF00F0C0CFA03F70E
:100A3000BC4305FA03FC4CEA040491F803C0BCF182
:100A4000280F05D100F1080C08FA0CF8C2F8148040
:100A500091F803C0BCF1480F07D100F1080C4FF02A
:100A6000010808FA0CF8C2F81080401C0828CED300
:100A70005460BDE8F0810000F0B50A460023002470
:100A80000021002500F00046B6F1004F02D11D4EB6
:100A9000F16901E01B4E7168C0F3034583B200F4B5
:100AA0004016B6F5401F08D121F07061154E7668EA
:100AB00026F07066134F7E6012E000F48016B6F5E3
:100AC000801F06D1032606FA05F4A14341F07061A8
:100AD00006E0460D360103FA06F6B14341F07061B7
:100AE00022B1460D360103FA06F6314300F0004606
:100AF000B6F1004F02D1034EF16101E0014E716089
:100B0000F0BD000000000140416170470161704785
:100B100000BFFEE708B50121082000F091F94FF46D
:100B20008060ADF8000010208DF8030003208DF8E0
:100B3000020069460448FFF713FF4FF48061024842
:100B4000FFF7E4FF08BD0000000C014000BFFEE716
:100B50007047000070B5002100230F22C47804B351
:100B6000154C246804F4E064C4F5E064210AC1F182
:100B70000403CA40447804FA03F184781440214302
:100B800009010E4C0678A155047804F01F050124D4
:100B9000AC4005786D11AD0005F1E025C5F80041C8
:100BA00009E0047804F01F050124AC40044D0678E8
:100BB000761145F8264070BD0CED00E000E400E041
:100BC00080E100E002490143024A116070470000E1
:100BD0000000FA050CED00E008B50121082000F046
:100BE0002FF90320ADF8000010208DF8030003203A
:100BF0008DF8020069460248FFF7B2FE08BD00000A
:100C0000000C01401FB5002000900190029003905D
:100C100001246B4622020CA113A0FFF76FFC60B900
:100C2000019A91B20098FFF793FE4FF4FA7000F02A
:100C300093FF6846FFF727FC002414B1012004B09D
:100C400010BD0020FBE700005A3D75484B726A3921
:100C5000644F32694D4D6E5A3D76696B5A415573FA
:100C60004E6A593D00000000353235303939313691
:100C7000310000002DE9FF4104460D4617461E468F
:100C80000020009001900290039025A00088208011
:100C900000200090019002900390012221A168465B
:100CA00000F01EFE69462046FFF770FA0020009013
:100CB0000190029003902A461EA1684600F010FEA3
:100CC00069462046FFF762FA0020009001900290EA
:100CD00003903A461AA1684600F002FE6946204693
:100CE000FFF754FA002000900190029003903246E2
:100CF00018A1684600F0F4FD69462046FFF746FA61
:100D000018A12046FFF742FA0020009001900290BF
:100D100003902046FFF758FAC0B204B0BDE8F08156
:100D20007B00000022477265656E5F4C6564223A65
:100D300025642C002274657374223A25642C00000B
:100D40002254656D70657274757265223A25642C43
:100D5000000000002268756D6964697479223A2583
:100D6000640000007D0000002DE9F041A6B00646B9
:100D70000F46904600202290239024902590002436
:100D80000025802102A8FFF7F6F9C8211648FFF7D1
:100D9000F2F900201549086043463A46314602A858
:100DA000FFF768FF0446E4B122A80323002221468E
:100DB00000900FA0FFF738FC98B908E002A8415D49
:100DC000239A501C239022988154681C05B2A54296
:100DD000F4DB239A91B22298FFF7BAFD22A8FFF71D
:100DE00052FB26B0BDE8F0815800002040000020F2
:100DF0003532353039393136310000007047000066
:100E000029B1064AD2690243044BDA6104E0034A7D
:100E1000D2698243014BDA61704700000010024042
:100E200029B1064A12690243044B1A6104E0034ADD
:100E300012698243014B1A617047000000100240A2
:100E400029B1064A92690243044B9A6104E0034ABD
:100E500092698243014B9A61704700000010024082
:100E600029B1064AD2680243044BDA6004E0034A1F
:100E7000D2688243014BDA607047000000100240E4
:100E800030B500210022002400232D4D6D6805F0AF
:100E90000C0121B1042905D0082923D105E0294DF1
:100EA000056022E0274D05601FE0254D6D6805F4C3
:100EB0007012234D6D6805F48034022505EB9242D3
:100EC0001CB9214D554305600BE01D4D6D6805F4BF
:100ED00000351DB11C4D5543056002E0194D5543C9
:100EE000056002E0174D056000BF00BF144D6D683E
:100EF00005F0F0010909154D6B5C0568DD404560A2
:100F00000F4D6D6805F4E061090A104D6B5C456892
:100F1000DD4085600A4D6D6805F46051C90A0B4DCE
:100F20006B5C4568DD40C560054D6D6805F440416A
:100F3000890B074D6B5CC568B5FBF3F5056130BDEA
:100F40000010024000127A0000093D00200000203D
:100F50003000002010B515A11548FFF723F948B956
:100F600014A11348FFF71EF920B913A11048FFF789
:100F700019F950B1C8210E48FFF7FDF801201049BA
:100F8000086000200F4908600EE00E480068401C11
:100F90000C49086008460068962805D100200860C2
:100FA000C8210348FFF7E7F810BD00004F4B0000D1
:100FB000580000203E000000726561647900000066
:100FC000440000204000002010B524480068962806
:100FD00006D1002021490860C8212148FFF7CBF83D
:100FE00020480078002811DD1D481C490968405C34
:100FF0001D491E4A126888541C480068401C1B4941
:10100000086018480078401E1649087013480068A8
:1010100003281DDD11480068801E1149085CB8B91D
:101020000E480068401E085C90B908460B490968E4
:10103000405C00280CDD14210B48FFF79CF80848A1
:1010400006490968405C07490870002007490860A4
:1010500002480068401C0149086010BD40000020A3
:101060005800002038000020200100204C00002003
:10107000704700002DE9F04105460F46144622E076
:10108000C8211348FFF777F8002012490860284666
:10109000FFF79AF806463146284600F0EBFBA0B26F
:1010A00000F05AFD0C480068C0430C49C1F8A40187
:1010B0000B480068012803D100200949086003E0BB
:1010C000642000F049FDDBE700BFBDE8F0810000CF
:1010D0005800002040000020A481214200802142CD
:1010E0004400002010B500F001F810BD0CB5002040
:1010F000019000903348006840F480303149086026
:1011000000BF3048006800F4003000900198401C97
:101110000190009818B90198B0F5A06FF1D1294855
:10112000006800F4003010B10120009001E00020C0
:1011300000900098012843D12348006840F0100037
:10114000214908600846006820F00300086008464E
:10115000006840F0020008601A4840681949486079
:101160000846406848600846406840F4806048602F
:101170000846406820F47C1048600846406840F407
:10118000E81048600846006840F08070086000BFC2
:101190000C48006800F000700028F9D00948406849
:1011A00020F00300074948600846406840F002000C
:1011B000486000BF0348406800F00C000828F9D1DF
:1011C0000CBD00000010024000200240042808D19D
:1011D0004FF0E021096941F004014FF0E022116174
:1011E00007E04FF0E021096921F004014FF0E0220F
:1011F000116170477047000010B51348006840F057
:1012000001001149086008464068104908400E492D
:101210004860084600680E4908400B4908600846C7
:10122000006820F4802008600846406820F4FE0032
:1012300048604FF41F008860FFF754FF4FF00060D4
:101240000449086010BD0000001002400000FFF8D3
:10125000FFFFF6FE08ED00E010B500F05BFC4FF478
:10126000E13001F04FF8FFF755FCFFF745FBFFF7C2
:10127000C5FA482141F2883000F094F810BD000012
:1012800010B50121064800F021F840B101210448C1
:1012900000F00DF803480068401C0249086010BDCA
:1012A000002C014004000020CA4302827047CA4358
:1012B0000282704721B1028842F00102028004E0FC
:1012C00002884FF6FE731A400280704730B502461E
:1012D000002000230024158A05EA0103958905EA08
:1012E000010413B10CB1012000E0002030BD1AB19F
:1012F00083890B43838102E083898B438381704719
:10130000002202881D4B98420ED01D4B98420BD0F4
:10131000B0F1804F08D01B4B984205D01A4B984231
:1013200002D01A4B984204D14FF68F731A404B8863
:101330001A43174B984207D0164B984204D04FF6E9
:10134000FF431A40CB881A4302808B8883850B8821
:1013500003850A4B98420BD0094B984208D00E4B9C
:10136000984205D00D4B984202D00D4B984201D1C6
:101370000B7A03860123838270470000002C014012
:10138000003401400004004000080040000C004010
:1013900000100040001400400040014000440140A3
:1013A000004801407FB505460C460121C802FFF701
:1013B00047FD681E80B2ADF80800601E80B2ADF82F
:1013C00004000020ADF80600ADF80A008DF80C000E
:1013D00001A90F48FFF794FF19208DF800000120A4
:1013E0008DF8030000208DF801008DF8020068469A
:1013F000FFF7B0FB01210648FFF756FF0122114617
:101400000348FFF774FF01210148FFF753FF7FBD39
:10141000002C014010B540F22551274800F065F935
:10142000C0B1254800F01CFAC4B224482449096818
:10143000445424480078012802D1FFF78BFD04E0D2
:101440002048007808B9FFF7BFFD40F225511A483F
:1014500000F0D5F81A480068C01E1849085C20281A
:1014600012D117480068801E085C02280CD114486D
:101470000068401E085C38B9084611490968405C9C
:1014800010B90120104908600D480068801E0B4902
:10149000085C64280ED10A480068401E085C0128D8
:1014A00008D1084606490968405C602802D100203E
:1014B0000549086010BD00000044004058000020AD
:1014C00040000020080000203C00002010B540F241
:1014D0002551184800F009F901282AD1154800F0D3
:1014E000BFF915490870084600783038052813D22E
:1014F000DFE800F00306090C0F0000F0DDFA0BE056
:1015000000F01AFD08E000F0BFFA05E000F0CAFEA6
:1015100002E000F0DFFE00BF00BF07480178054889
:1015200000F0A3F900BF4021024800F0D1F80028E4
:10153000F9D010BD004800400000002010B586B072
:10154000044601210820FFF77BFC01218804FFF7F6
:1015500057FC4FF40060ADF8000004208DF8030044
:1015600069462048FFF7FCF94FF48060ADF80000B1
:1015700003208DF8020018208DF8030069461948F1
:10158000FFF7EEF902940020ADF80C00ADF80E0064
:10159000ADF81000ADF814000C20ADF8120002A94F
:1015A000114800F0F1F8012240F225510E4800F0F8
:1015B000C6F801210C4800F031F84FF4A060FFF7A5
:1015C00001FB27208DF8040003208DF80500022080
:1015D0008DF8060001208DF8070001A8FFF7BAFA80
:1015E00006B010BD000C01400048004001F400723C
:1015F000B2F5007F00D100BFCA430280704710B52A
:101600000022002340F66A14A14200D100BF0A1252
:1016100001249440A3B2DC43048010BD21B182892F
:1016200042F40052828104E082894DF6FF731A4031
:101630008281704710B504462048844209D10121B7
:101640008803FFF70DFC00214FF48040FFF708FCF2
:1016500032E01B48844209D101214804FFF7E0FB36
:1016600000214FF40030FFF7DBFB25E015488442F2
:1016700009D101218804FFF7D3FB00214FF480201A
:10168000FFF7CEFB18E01048844209D10121C804BD
:10169000FFF7C6FB00214FF40020FFF7C1FB0BE072
:1016A0000A48844208D101210805FFF7B9FB00214F
:1016B0004FF48010FFF7B4FB10BD0000003801406C
:1016C0000044004000480040004C004000500040F2
:1016D00002460020B1F5007F00D100BF13880B4007
:1016E0000BB1012000E00020704770B502460024D5
:1016F00000230025002040F66A16B14200D100BF49
:10170000C1F3421501F01F03012606FA03F3012D70
:1017100002D19689334006E0022D02D1168A334069
:1017200001E0968A33400C12012606FA04F416886A
:10173000344013B10CB1012000E0002070BDF0B5C1
:101740000346002400260025002040F66A17B9420F
:1017500000D100BF1846C1F3421401F01F06012753
:1017600007FA06F5012C01D10C3004E0022C01D15E
:10177000103000E014301AB107682F43076002E010
:101780000768AF430760F0BD2DE9F04786B0054616
:101790000E460024A24600BFA1460027B08900B132
:1017A00000BF2F462C8A4CF6FF700440F08804439B
:1017B0002C82AC894EF6F3100440B088318908437E
:1017C000718908430443AC81AC8A4FF6FF40044062
:1017D000B0890443AC8201A8FFF752FB1F4887423F
:1017E00002D1DDF810A001E0DDF80CA0A88900F41A
:1017F000004040B10AEBCA0000EB0A103168490012
:10180000B0FBF1F807E00AEBCA0000EB0A10316800
:101810008900B0FBF1F86420B8FBF0F00401200966
:10182000642101FB1089A88900F4004040B13220F6
:1018300000EBC900B0FBF1F000F00700044308E042
:10184000322000EB09106421B0FBF1F000F00F0032
:1018500004432C8106B0BDE8F08700000038014049
:1018600001468888C0F308007047C1F308028280EF
:101870007047000070B504460D4640210A48FFF746
:10188000B5FE00260CE021780748FFF7EEFF00BF09
:1018900040210548FFF71CFF0128F9D1641C761C84
:1018A000AE42F0DB70BD00000044004000BFFEE728
:1018B00070B503460024002500BF01F07F05C9096B
:1018C00009B145F080051046561CB2B21D54641C87
:1018D00009B1052CF1DB501E80B2024670BD00003C
:1018E0000FB4084B10B504A902AA039800F01CF825
:1018F000044602A9002000F0C1F8204610BC5DF8A3
:1019000014FB00007D1A000802E008C8121F08C17D
:10191000002AFAD170477047002001E001C1121F70
:10192000002AFBD1704700002DE9FF4F89B09B468C
:101930000446002506E025280BD05A460B9990470F
:10194000641C6D1C20780028F5D10DB02846BDE838
:10195000F08F0027B8460122474900E0074314F8FA
:10196000013F203B02FA03F00842F7D120782E28ED
:1019700019D114F8010F47F004072A280ED06FF090
:101980002F022078A0F1300109290CD808EB88013A
:1019900002EB410100EB0108641CF2E70A98641CA9
:1019A00050F8048B0A9020780028CED0642808D004
:1019B000692806D075281ED05A460B9990476D1C91
:1019C00058E00A994FF00A0901C90A91002802DA81
:1019D00040422D2102E0390504D52B218DF820103D
:1019E000012103E0F90704D02021F7E78A4608AE79
:1019F0000DE00021FAE70A994FF00A0901C90A919E
:101A0000F7E74946FEF7FBFB303106F8011D0028D9
:101A1000F7D1ADEB060000F12009780701D44FF0B3
:101A20000108C84502DDA8EB090000E0002080465F
:101A3000002706E008A85A46C05D0B9990476D1C28
:101A40007F1C5745F6DB04E030205A460B9990473F
:101A50006D1CB8F10001A8F10108F5DC05E016F8ED
:101A6000010B5A460B9990476D1CB9F10001A9F181
:101A70000109F4DC641C65E7092801000A68531CAD
:101A80000B6010707047000010B54FF4805109488A
:101A9000FFF73AF84FF400510648FFF737F84FF4D4
:101AA00080410448FFF730F84FF400410148FFF748
:101AB0002DF810BD000C014010B54FF480510948BD
:101AC000FFF722F84FF400510648FFF71DF84FF4D6
:101AD00080410448FFF718F84FF400410148FFF730
:101AE00013F810BD000C014070B500240FE0611C1C
:101AF000C8B2012100F08EFA002504E0002000F0B9
:101B0000C1FB681CC5B2802DF8DB601CC4B2082C78
:101B1000EDDB70BD10B56FF00400FFF757FB0A480E
:101B200000680A49B0FBF1F00949087008460078DE
:101B300000EB4001C1EBC0104FF6FF7101EAC0009D
:101B40000449088010BD00000C00002000127A003B
:101B500034000020360000200146114A12884A4312
:101B60004FF0E0235A6100229A611A46126942F04E
:101B700001021A6100BF4FF0E022106900F001027B
:101B80001AB100F48032002AF5D04FF0E022126939
:101B900022F001024FF0E0231A6100229A6170479F
:101BA000360000200146114A12784A434FF0E023E4
:101BB0005A6100229A611A46126942F001021A61C2
:101BC00000BF4FF0E022106900F001021AB100F4EA
:101BD0008032002AF5D04FF0E022126922F0010293
:101BE0004FF0E0231A6100229A6170473400002010
:101BF000F8B507460E461546002427E0285D7E28E6
:101C000014DD285D8DF80000601C285C8DF8010053
:101C100000208DF802006A463146384600F094F8FC
:101C200006F11000C6B2A01CC4B20FE0285D8DF80A
:101C3000000000208DF801006A463146384600F069
:101C4000F1F806F10800C6B2601CC4B2285D002895
:101C5000D4D1F8BD2DE9F8438146884616460024C4
:101C600000270025002000900A2096FBF0F100FBE1
:101C70001160C0B28DF803000A2096FBF0F00A2133
:101C800090FBF1F201FB1200C0B28DF8020064205B
:101C900096FBF0F090FBF1F201FB1200C0B28DF860
:101CA00001004FF47A7096FBF0F090FBF1F201FB2B
:101CB0001200C0B28DF8000000BF3FE01DF8040024
:101CC0001030C0B20DF80400002716E0082000FB19
:101CD0000480C1B2484600F09DF9002509E01DF8D6
:101CE0000410184A02EB0111485D00F0CBFA681CA1
:101CF000C5B2082DF3DB781CC7B2022FE6DB002744
:101D000018E0082202FB0482D1B209F10102D0B22C
:101D100000F080F9082509E01DF80410094A02EBDB
:101D20000111485D00F0AEFA681CC5B2102DF3DB5E
:101D3000781CC7B2022FE4DB601CC4B2042CBDDBEC
:101D4000BDE8F8830C2400082DE9F04707468946D2
:101D5000904600265CE000244FF0010A12E02F4874
:101D6000005D18F8061088420AD12C49601C095CF5
:101D7000701C18F80000814202D14FEA041A05E0F5
:101D8000A01CC4B22548005D7E28E8DC00BFB9F184
:101D9000710F03DD4FF00009B81CC7B2BAF1010F93
:101DA0001CD0002515E07919C8B2494600F032F977
:101DB00000240AE01A4911F80A0000F063FA0AF157
:101DC00001001FFA80FA601CC4B2102CF2DB681C00
:101DD000C5B2022DE7DBB01CC6B215E000250FE04E
:101DE0007919C8B2494600F015F9002404E0002032
:101DF00000F048FA601CC4B2102CF8DB681CC5B2B5
:101E0000022DEDDB701CC6B209F1100000F0FF09D5
:101E100018F8060000289ED1BDE8F0879731000829
:101E2000A63100082DE9F04780460E4615460024ED
:101E30007B2E04DD012608F102001FFA80F830E055
:101E4000285D20282BDB285D7E2828DC285D2038B3
:101E50001FFA80FA00271AE0F1B208EB0702D0B2AD
:101E600000F0D8F84FF000090CE0104901EB0A111E
:101E7000082202FB0792885C00F004FA09F10100D5
:101E80001FFA80F9B9F1080FEFDB781C87B2022F37
:101E9000E2DB601C84B206F1080086B201E0601C3F
:101EA00084B2285D0028CBDCBDE8F0870C24000854
:101EB00008B501210820FEF7C3FF4FF40070ADF80C
:101EC000000010208DF8030003208DF80200694601
:101ED0000448FEF745FD4FF400710248FEF716FE78
:101EE00008BD0000000C014010B5002821D0114BA6
:101EF0000022001F196803E0814203D80A4649689E
:101F00000029F9D152B11368841A9C4204D10068A7
:101F100018441060104602E0506000E0186039B1CB
:101F200002680B1A934203D10B681A440260496895
:101F3000416010BD5000002010B54FF48051094899
:101F4000FEF7E4FD4FF400510648FEF7DDFD4FF4C7
:101F500080410448FEF7DAFD4FF400410148FEF7E6
:101F6000D3FD10BD000C014010B5002027490860CA
:101F70004FF4FA70FFF7F0FD01202549C1F88C01FC
:101F8000AE2000F06FF9D52000F06CF9802000F051
:101F900069F9A82000F066F93F2000F063F9D3202A
:101FA00000F060F9002000F05DF9402000F05AF9DF
:101FB0008D2000F057F9142000F054F9202000F093
:101FC00051F9022000F04EF9C82000F04BF9A12091
:101FD00000F048F9DA2000F045F9122000F042F94B
:101FE000812000F03FF9CF2000F03CF9D92000F02B
:101FF00039F9F12000F036F9DB2000F033F9402008
:1020000000F030F9AF2000F02DF910BD8C01224214
:102010000000224270B505460C46601EC4B2681E20
:10202000C5B205F1B00000F01DF9102101EB14104C
:1020300000F018F904F00F0000F014F970BD000072
:1020400086B00024FFF766FD4FF4A060FEF7BAFDEE
:10205000FEF776F9FEF7C0FDFFF786FFFFF744FDB8
:10206000FEF7F8F8FFF756FDFFF722FF4FF4164092
:10207000FFF764FA00200090019002900390FFF7B0
:10208000EBF8FEF719F972E03948006841F288313F
:10209000884205D16846FEF7A7FA00203449086057
:1020A00034A13648FEF77EF890B14FF40071344801
:1020B000FEF72AFD9DF810209DF814100120FEF770
:1020C00053FE1420FFF748FD14212C48FEF753F867
:1020D0002CA12A48FEF766F890B14FF40071284809
:1020E000FEF714FD9DF810209DF814100020FEF757
:1020F0003BFE1420FFF730FD14212048FEF73BF88B
:1021000022A201210846FFF773FD22A2012103202C
:10211000FFF76EFD21A250210120FFF769FD20A2EB
:1021200050210320FFF764FD1EA201210520FFF7C7
:102130005FFD0A2094FBF0F100FB114078B904A97F
:1021400005A8FEF752F99DF814202E210120FFF773
:1021500081FD9DF810202E210320FFF77BFD0A2032
:10216000FFF7FAFC601CC4B2142C00D100248BE7EA
:10217000040000204F50454E0000000020010020C8
:10218000000C0140434C4F5345000000CEC2B6C87E
:102190003A000000CAAAB6C83A0000004300000096
:1021A00025000000CED2BAC3B2CBB0A1000000001F
:1021B000F0B50B30154D20F007010024144A0FE054
:1021C00003688B420BD38B4205D95E1A43184768CC
:1021D000C3E9006700E04368136002C004E0021D29
:1021E00010680028ECD12046002802D1286808B1E8
:1021F0000020F0BD064A07481060074A121A22F074
:102200000702C0E9002401202860D7E7540000201D
:10221000500000203C010020380300200120064926
:1022200008600649C1F8840100200349091D0860BF
:102230000249C1F88001704780812142008021421B
:102240000020064908600649C1F8840101200349BD
:10225000091D08600249C1F8800170478081214250
:102260000080214210B50446FFF7D8FF782000F027
:102270009DF8002000F09AF8E0B200F097F8FFF720
:10228000DFFF10BD10B50446FFF7C8FF782000F04F
:102290008DF8402000F08AF8E0B200F087F8FFF7F0
:1022A000CFFF10BD10B54FF480510948FEF72CFC4C
:1022B0004FF400510648FEF729FC4FF480410448D2
:1022C000FEF724FC4FF400410148FEF71DFC10BD51
:1022D000000C014010B54FF480510948FEF716FC80
:1022E0004FF400510648FEF70FFC4FF480410448BC
:1022F000FEF70AFC4FF400410148FEF707FC10BD51
:10230000000C014010B586B0044601214804FEF7D8
:1023100077FD01210420FEF793FD2248FFF78AF99B
:102320000420ADF8140003208DF8160018208DF855
:10233000170005A91C48FEF713FB0820ADF8140090
:1023400004208DF8170005A91748FEF709FB262081
:102350008DF8000003208DF801008DF802000120A7
:102360008DF803006846FEF7F5FB01940020ADF8F8
:102370000800ADF80A00ADF80C00ADF810000C2014
:10238000ADF80E0001A90748FFF7FEF9012240F25F
:1023900025510448FFF7D3F901210248FFF73EF920
:1023A00006B010BD00440040000801402DE9F04196
:1023B00005462C46002716E02646002011490860F5
:1023C00006F08006802E03D10120091D086003E07D
:1023D00000200C49091D08606006040E012009490F
:1023E0000860781CC7B2082FE6DB002005490860AA
:1023F0000320FFF7D7FB01200349C1F88001BDE8A6
:10240000F081000080812142008021420000000014
:10241000000000000000000000000000000038FC88
:10242000FC3800000000000D0D000000000E1E0032
:10243000001E0E00000000000000000020F8F82040
:10244000F8F82000020F0F020F0F0200387C4447FB
:1024500047CC9800060C0838380F07003030008051
:10246000C06030000C060301000C0C0080D87CE436
:10247000BCD84000070F0808070F080000101E0E08
:102480000000000000000000000000000000F0F864
:102490000C040000000003070C0800000000040CFE
:1024A000F8F000000000080C0703000080A0E0C066
:1024B000C0E0A0800002030101030200008080E070
:1024C000E080800000000003030000000000000026
:1024D000000000000000101E0E00000080808080C0
:1024E000808080000000000000000000000000006C
:1024F000000000000000000C0C0000000000008044
:10250000C06030000C06030100000000F8F80CC4A5
:102510000CF8F00003070C080C070300001018FC6F
:10252000FC0000000008080F0F080800080C84C415
:10253000643C18000E0F0908080C0C00080C4444F9
:1025400044FCB800040C0808080F0700C0E0B0986D
:10255000FCFC8000000000080F0F08007C7C444455
:1025600044C48400040C0808080F0700F0F84C4429
:1025700044C08000070F0808080F07000C0C0484F3
:10258000C47C3C0000000F0F00000000B8FC444475
:1025900044FCB800070F0808080F0700387C4444C3
:1025A00044FCF800000808080C0703000000003095
:1025B00030000000000000060600000000000030AF
:1025C000300000000000080E060000000080C0601F
:1025D0003018080000000103060C0800002020202D
:1025E0002020200000010101010101000008183035
:1025F00060C0800000080C0603010000181C04C421
:10260000E43C18000000000D0D000000F0F008C8C8
:10261000C8F8F000070F080B0B0B0100E0F0988CD6
:1026200098F0E0000F0F0000000F0F0004FCFC44C6
:1026300044FCB800080F0F08080F0700F0F80C045E
:10264000040C180003070C08080C060004FCFC042A
:102650000CF8F000080F0F080C07030004FCFC4402
:10266000E40C1C00080F0F08080C0E0004FCFC44CE
:10267000E40C1C00080F0F0800000000F0F80C84A8
:10268000848C980003070C0808070F00FCFC4040EE
:1026900040FCFC000F0F0000000F0F00000004FCC6
:1026A000FC0400000000080F0F08000000000004F8
:1026B000FCFC0400070F08080F07000004FCFCC026
:1026C000E03C1C00080F0F00010F0E0004FCFC048E
:1026D00000000000080F0F08080C0E00FCFC38700A
:1026E00038FCFC000F0F0000000F0F00FCFC3870DE
:1026F000E0FCFC000F0F0000000F0F00F8FC0404CA
:1027000004FCF800070F0808080F070004FCFC444D
:10271000447C3800080F0F0800000000F8FC040497
:1027200004FCF800070F080E3C3F270004FCFC44A3
:10273000C4FC3800080F0F00000F0F00183C644461
:10274000C49C1800060E0808080F0700001C0CFCAB
:10275000FC0C1C000000080F0F080000FCFC00002F
:1027600000FCFC00070F0808080F0700FCFC000035
:1027700000FCFC000103060C06030100FCFC000049
:1027800000FCFC00070F0E030E0F07000C3CF0E0EE
:10279000F03C0C000C0F0301030F0C00000C7CC07C
:1027A000C07C3C000000080F0F0800001C0C84C413
:1027B000643C1C000E0F0908080C0E000000FCFC15
:1027C0000404000000000F0F080800003870E0C08B
:1027D000800000000000000103070E000000040458
:1027E000FCFC0000000008080F0F0000080C0603A6
:1027F000060C0800000000000000000000000000BF
:1028000000000000202020202020202000000307BE
:1028100004000000000000000000000000A0A0A0D4
:10282000E0C00000070F0808070F080004FCFC20A8
:1028300060C08000000F0F08080F0700C0E02020D4
:1028400020604000070F0808080C040080C06024C6
:10285000FCFC0000070F0808070F0800C0E0A0A05C
:10286000A0E0C000070F0808080C040040F8FC4472
:102870000C180000080F0F0800000000C0E0202026
:10288000C0E02000276F48487F3F000004FCFC4068
:1028900020E0C000080F0F00000F0F00000020EC28
:1028A000EC0000000000080F0F080000000000000E
:1028B00020ECEC0000307040407F3F0004FCFC80C6
:1028C000C0602000080F0F01030E0C00000004FC84
:1028D000FC0000000000080F0F080000E0E060C0EE
:1028E00060E0C0000F0F0007000F0F0020E0C020C5
:1028F00020E0C000000F0F00000F0F00C0E02020FC
:1029000020E0C000070F0808080F070020E0C020E3
:1029100020E0C000407F7F48080F0700C0E0202073
:10292000C0E02000070F08487F7F400020E0C06023
:1029300020E0C000080F0F080000000040E0A020C9
:1029400020604000040C09090B0E04002020F8FC54
:10295000202000000000070F080C0400E0E0000049
:10296000E0E00000070F0808070F080000E0E000A3
:1029700000E0E0000003070C0C070300E0E000802B
:1029800000E0E000070F0C070C0F07002060C0807C
:10299000C0602000080C0703070C0800E0E00000FE
:1029A00000E0E000474F4848683F1F00606020A0FB
:1029B000E06020000C0E0B09080C0C00004040F8F1
:1029C000BC040400000000070F080800000000BC61
:1029D000BC0000000000000F0F000000000404BC59
:1029E000F84040000008080F07000000080C040C25
:1029F000080C0400000000000000000000000000BF
:102A00000000004F00000007000700147F147F142F
:102A1000242A7F2A12231308646236495522500063
:102A200005070000001C2241000041221C00140880
:102A30003E081408083E0808005030000008080846
:102A40000808006060000020100804023E5149455B
:102A50003E00427F400042615149462141454B3191
:102A60001814127F1027454545393C4A4949300121
:102A7000710905033649494936064949291E003678
:102A800036000000563600000814224100141414C9
:102A900014140041221408020151090632497941F7
:102AA0003E7E1111117E7F494949363E4141412206
:102AB0007F4141221C7F494949417F090909013E63
:102AC0004149497A7F0808087F00417F4100204042
:102AD000413F017F081422417F404040407F020C6B
:102AE000027F7F0408107F3E4141413E7F09090972
:102AF000063E4151215E7F0919294646494949311F
:102B000001017F01013F4040403F1F2040201F3F07
:102B10004038403F63140814630708700807615188
:102B2000494543007F414100020408102000414113
:102B30007F000402010204404040404001020400C2
:102B40000020545454787F48484830384444444422
:102B5000304848487F385454545800087E09024889
:102B60005454543C7F0808087000007A000020404C
:102B7000403D007F2028440000417F40007C043815
:102B8000047C7C0804047838444444387C141414CD
:102B900008081414147C7C08040408485454542471
:102BA00004043F44243C4040403C1C2040201C3C4A
:102BB0004030403C44281028440448300804446411
:102BC000544C440836414100000077000000414168
:102BD00036080402020201000000000000000000AC
:102BE00000000000000000000000000000000000E5
:102BF00000000000000000000000000000000000D5
:102C000000000000000000000000000000000000C4
:102C100000000000000000000000000000000000B4
:102C200000000000000000000000000000000000A4
:102C30000000000000000000000000000000000094
:102C40000000000000000000000000000000000084
:102C50000000000000000000000000000000000074
:102C60000000000000000000000000000000000064
:102C70000000008080000000000000000000000054
:102C80000000008070080000000000000000000844
:102C9000000080080000100000001000000010007C
:102CA000000010000000100000001000001C1E1E9C
:102CB0001E1C0000100000000800080080888044EE
:102CC00004040000000000000000000000000000FC
:102CD00000000000000000000000000000000000F4
:102CE0000000000000000000000080000000000064
:102CF00000080908000000000000C040000020207B
:102D000020300C030000000808C0004040202030A4
:102D10001010022527202020202000200020000065
:102D200020000210D0503830302820244442004087
:102D3000000000000008000010002000400080801B
:102D40008000000000000000000000000000000003
:102D50000000000000000000000000000000000073
:102D60000000000000000000060301000000000059
:102D7000000000E0180C0603060931202020400066
:102D800040000000000000004080070C0808080018
:102D900000008000000000000000000000000000B3
:102DA0000000807900C0000000000000000000006A
:102DB000000000000006708000000000000000001D
:102DC0008041110000000000000000000000000031
:102DD00000000000000000000000000000000000F3
:102DE0000000000000000000000006E88000000075
:102DF00000000000010100010000000000000000D0
:102E00000018101020002000301136385850580893
:102E100056919890808080800009030A0A080084F7
:102E20008681020404090808000000000000000078
:102E30000000081800000007080808080404000142
:102E40000000000000000000000000000000000082
:102E50000000000000000000000000000000000072
:102E6000000000000000000000000000010101005F
:102E70000000000000000000000000000000000052
:102E80000000000000040600000000000000000038
:102E90000000000000000004000800000800000816
:102EA00000000901010901090109000804070000E7
:102EB0000000000000000000000000000000000012
:102EC0000000000000000000000000000000000002
:102ED00000000000000000000000000000000000F2
:102EE00000000000000000000000000000000000E2
:102EF00000000000000000000000000000000000D2
:102F000000000000000000000000000000000000C1
:102F100000000000000000000000000000000000B1
:102F200000000000000000000000000000000000A1
:102F30000000000000000000000000000000000091
:102F40000000000000000000000000000000000081
:102F50000000000000000000000000000000000071
:102F60000000000000000000000000000000000061
:102F70000000000000000000000000000000000051
:102F80000000000000000000000000000000000041
:102F90000000000000000000000000000000000031
:102FA0000000000000000000000000000000000021
:102FB0000000000000000000000000000000000011
:102FC0000000000000000000000000000000000001
:102FD00000000000000000000000000000000000F1
:102FE000000000000080C0E0F0F0F8F8FCFCFEFEFD
:102FF000FEFFFFFF7F7F7F7F7F7F7F7FFFFFFEFEE4
:10300000FEDEFCFCF8F8F0E0E0C08000000000000C
:10301000000000000000000000000000000000C0F0
:10302000F0F8FCFEFFFFFF7F3E1F0F0703030101C7
:10303000000000000080C0E00010303070F0F0E1CF
:10304000C1018307070F1F3FFFFFFFFFFEFCF8E0F2
:10305000C00000000000000000000000C0FCFFFFF6
:10306000FFFFFFFF1F030100000070F8F870000071
:1030700080E0F8FEFF3F03000000000000FFFFFFBC
:10308000FFE0FFFF000000000001073FFFFFFFFF20
:10309000FFFEF80000000000000000007FFFFFFFBF
:1030A000FFFFFFFF000000000000E0F0F0800000E4
:1030B000FFFFFFFFFFF0000000C0E0F8FE7F3F9F32
:1030C0008FC7E370380E060000000080FFFFFFFF8F
:1030D000FFFFFF1F000000000000000000073FFF8F
:1030E000FFFFFFFFFEF8E08000000F1F3F3F7F7EE5
:1030F0007D7FFF7FFFFFFFFEFFFDFFDFCECFC7C756
:10310000C3E1E0F070381C8EC0E0F8FFFFFFFFFF66
:103110007F1F03000000000000000000000000000E
:1031200001070F1F3F7FFFFFFFFEFCF8F8F0F0E004
:10313000E0C0C0C0C0C1C18183C3C3C3C3C3E3E196
:10314000E1F1F0F8FCFEFFFFFFFF7F3F1F0F0301DF
:10315000000000000000000000000000000000006F
:10316000000000000000000101030707070F0F1F08
:103170001F1F1F3F3F3F3F3F3F3F3F3F3F1F1F1F1F
:103180001F0F0F07070303010000000000000000ED
:1031900000000000000000CEC2CAAAB6C8CED2BA53
:1031A000C3B2CBB0A1001060028C0000FE929292DC
:1031B0009292FE00000004047E01407E42427E4264
:1031C0007E42427E40001060028C00FE92929292FB
:1031D0009292FE00000004047E014448507F40406B
:1031E0007F50484440000000FC242424FC25262471
:1031F000FC242424040040308F80844C5525252550
:10320000554C8080800020242424FE23222020FF8F
:1032100020222CA02000000848847F024140201377
:103220000C142241F8001010F01F10F00080828270
:10323000E2928A86800040221508166100004080D4
:103240007F0000000000040444C44F4444C424240C
:103250002FB42404040040442424150C04FE040C60
:10326000152424444000FC04FC00FE42BE00F2127F
:10327000F202FE0200000F040F00FF100F000F0407
:103280004F807F0000000000A832000800000020EE
:1032900058000000081900080033000858000020FA
:1032A000E0060000181900080000000000000000FF
:1032B0000000000000A24A0400000000000000001E
:1032C00001020304060708090000000001020304CC
:1032D00001020304060708090204060800000000B2
:1032E00000000000000000000000000000000000DE
:1032F00000000000000000000000000000000000CE
:0400000508000131BD
:00000001FF
