:020000040800F2
:10000000B8070020B97100088D0300088F030008AD
:1000100093030008970300089B03000800000000FA
:100020000000000000000000000000009F03000826
:10003000A103000800000000A3030008A5030008B6
:10004000D3710008D3710008D3710008D371000880
:10005000D3710008D3710008D3710008D371000870
:10006000D3710008D3710008D3710008D371000860
:10007000D3710008D3710008D3710008D371000850
:10008000D3710008D3710008D3710008D371000840
:10009000D3710008D3710008D3710008D371000830
:1000A000D3710008D3710008D3710008D371000820
:1000B000D3710008D7020008D3710008D37100087B
:1000C000D3710008D3710008D3710008D371000800
:1000D000D37100082D710008D3710008D371000896
:1000E000D3710008D3710008D3710008D3710008E0
:1000F000D3710008D3710008D3710008D3710008D0
:10010000D3710008D3710008C14A0008D3710008F8
:10011000D3710008D3710008D3710008D3710008AF
:10012000D3710008D3710008D3710008D37100089F
:1001300000F002F800F092F80AA090E8000C824467
:100140008344AAF10107DA4501D100F087F8AFF244
:10015000090EBAE80F0013F0010F18BFFB1A43F0A5
:100160000103184750A2000070A20000103A24BFFB
:1001700078C878C1FAD8520724BF30C830C144BF0C
:1001800004680C607047000000230024002500264E
:10019000103A28BF78C1FBD8520728BF30C148BFEA
:1001A0000B6070476E2907F0DF80702907F0288206
:1001B000662908F0D786652908F0D486672908F0F3
:1001C000D1866129AFF3008003681B0A28BF41F084
:1001D0008001692907F08C80642907F089807529DE
:1001E00007F086806F2907F0B381782907F0F48142
:1001F000E92907F04B81E42907F04881F52907F048
:100200004581EF2907F0B081F82907F0F3810368F1
:10021000DB0928BF41F08001632907F07E8573293F
:1002200007F08385E32907F08E85F32907F093858E
:10023000002070471FB508F089FE07F0DDFD0400BF
:100240000020002108F0C8FA401C60600020002156
:1002500008F0ACFAE0601FBD10B510BD07F09FFDBF
:100260001146FFF7E7FF00F044F807F07BFE03B408
:10027000FFF7F2FF03BC06F0FFFE00007FB5054666
:100280000C460121022005F056FDADF80850ADF8EE
:1002900004400020ADF80A00ADF8060001A931487D
:1002A00005F078FE012211462E4806F0C8F91D20FF
:1002B0008DF8000000208DF8010003208DF8020069
:1002C00001208DF80300684604F09FFE01212548B7
:1002D00006F090F97FBD10B50121224806F049FCD7
:1002E00030B101202049087001211E4806F052FC5F
:1002F00010BD08B506F0BAFE06F056FE00F013FE7B
:1003000041F61F4140F2CF70FFF7B8FF4FF496401F
:1003100006F0C0FE00F048F847F6FF7000F0D1FD8F
:1003200012A00090154803881F220021084604F0FF
:10033000C0FA13A00090114803881F221E2100203C
:1003400004F0B7FA47214FF6FF7004F067FB07E0AF
:1003500004F01AFC04480078012801D104F08AFC5A
:10036000F6E70000000400401600002053544D330F
:100370003220C6B5C2CAB2E2CAD4000002000020D0
:10038000C6B5C2CAD6B53A2000000000704700BF0B
:10039000FEE700BFFEE700BFFEE700BFFEE77047D5
:1003A000704770477047000008B50121482005F0EC
:1003B000B5FC2020ADF8000010208DF803000320CC
:1003C0008DF802006946094805F0F4F92021074834
:1003D00005F09BFA2020ADF800006946044805F0BE
:1003E000E9F92021024805F090FA08BD000C01400F
:1003F00000180140FE4908807047FD49891C0880AB
:100400007047FB48801C00887047F94A1080921C96
:100410001180704710B504462046FFF7EBFF05201A
:1004200006F0D6FDFFF7EDFF10BDF2480089F04958
:1004300008807047EE49891C0880704730B5014636
:1004400001F01F04C1F34513CA0AE50205EB431589
:100450001544A8B230BD00BF0100A0F10102D0B226
:10046000FAD1704710B503460C46E2488088A0F5E3
:100470001341413905D0DF488088A0F5A6411039E5
:1004800014D1DC494889FFF7B5FF1812FFF7B5FF13
:10049000D8B2FFF7B2FFD7498889FFF7ABFF201228
:1004A000FFF7ABFFE0B2FFF7A8FF5DE0D14880881F
:1004B000A0F5D04104391DD1CE488079012804D15E
:1004C000CC480088401EC01A83B2CA494889FFF749
:1004D00091FF1812FFF791FFD8B2FFF78EFFC549C1
:1004E0008889FFF787FF2012FFF787FFE0B2FFF749
:1004F00084FF39E0BF488088A0F5AA41103920D197
:10050000BC494889FFF776FF1812FFF776FFB94913
:100510004989491C88B2FFF76DFFD8B2FFF76DFF1C
:10052000B4498889FFF766FF2012FFF766FFB149DB
:100530008989491C88B2FFF75DFFE0B2FFF75DFFD4
:1005400012E0AC488079012804D1AA480088401EF6
:10055000C01A83B2A74948891946FFF756FFA54933
:1005600088892146FFF751FF10BD2DE9F04105466E
:100570000E4600240027A0469E480088A84203DDBE
:100580009C484088B04202DC0020BDE8F081314642
:100590002846FFF767FF97488088A0F51341413947
:1005A0000BD094488088A0F5D041043905D09148FB
:1005B0008088A0F5A641103903D12E20FFF71AFF3D
:1005C0000DE08C488088A0F5AA41103904D14FF481
:1005D0003850FFF70FFF02E02220FFF70BFF85489E
:1005E0008088A0F51341203902D10220FFF733FFA4
:1005F0007F48801C008800B100240220FFF72BFFF9
:100600007B48801C04887B488088A0F513414139D1
:100610000BD078488088A0F5A641103905D07548E0
:100620008088A0F5AA41103909D10220FFF713FFF5
:100630006F48801CB0F80080E7B23F0208E06D48C8
:100640008088A0F5D041043902D16948801C048813
:1006500068488088A0F51341253917D065488088FF
:10066000A0F58A41353911D062488088A0F58A41C9
:1006700031390BD05F488088A0F50941893905D010
:100680005C488088A0F53541053901D120467CE7DA
:1006900058488088A0F5134141390BD055488088CF
:1006A000A0F5A641103905D052488088A0F5AA418E
:1006B000103907D1E012C002B91240EA411040EAF5
:1006C000E82062E72046FFF7B9FE5EE700B549483B
:1006D0008088A0F5134141390BD046488088A0F5A9
:1006E000D041043905D043488088A0F5A64110398F
:1006F00003D12920FFF77EFE0FE03E488088A0F559
:10070000AA41103904D14FF42450FFF773FE04E0DE
:1007100040F273110720FFF778FE00BD00B53548A1
:100720008088A0F5134141390BD032488088A0F56C
:10073000D041043905D02F488088A0F5A641103952
:1007400003D12820FFF756FE0EE02A488088A0F546
:10075000AA41103904D14FF42050FFF74BFE03E0BB
:1007600000210720FFF751FE00BD70B504460023AD
:1007700000262048807901281ED11E488088A0F5D7
:10078000D041043918D0082C15D2DFE804F0040653
:10079000080A0C0E101206240DE007240BE00424B6
:1007A00009E0052407E0012405E0002403E0032418
:1007B00001E0022400BF00BF0E488088A0F513416D
:1007C000413911D00B488088A0F5D04104390BD0B5
:1007D00008488088A0F5A641103905D005488088D2
:1007E000A0F5AA4110397DD1082C22D204E00000E6
:1007F000FE07006C54000020DFE804F00406090C3A
:100800000F12151800BF14E043F0800311E043F00D
:1008100040030EE043F0C0030BE043F0200308E088
:1008200043F0600305E043F0A00302E043F0E0037F
:1008300000BF00BFFC488088A0F5AA41103902D152
:100840004FF4585600E03626F7488088A0F5A641B8
:10085000103907D0F4488088A0F5AA41103901D09A
:1008600043F00803F0488088A0F5D041043901D155
:1008700043F0020319463046FFF7C7FD13F0200F7F
:1008800003D1E948807901280DD1E7480088E6497D
:100890004988884214DAE44805884088E24908809B
:1008A000084645800CE0E0480088DF4949888842D6
:1008B00006DDDD4805884088DB490880084645801C
:1008C000D9488088A0F5AA41103954D1D649488921
:1008D000FFF790FD0020FFF790FDD3494989491C9F
:1008E00088B200E076E0FFF785FD0020FFF785FD88
:1008F000CD494989891C88B2FFF77CFDCA4909881E
:10090000491EC1F30F20FFF778FDC7494989C91C6B
:1009100088B2FFF76FFDC4490988491EC8B2FFF7C6
:100920006CFDC1498889FFF765FD0020FFF765FD73
:10093000BD498989491C88B2FFF75CFD0020FFF79B
:100940005CFDB9498989891C88B2FFF753FDB64916
:100950004988491EC1F30F20FFF74FFDB24989892D
:10096000C91C88B2FFF746FDAF494988491EC8B285
:10097000FFF743FD60E0AC494889FFF73BFD0020ED
:10098000FFF73BFD0020FFF738FDA7490988491E06
:10099000C1F30F20FFF731FDA3490988491EC8B2F2
:1009A000FFF72BFDA0498889FFF724FD0020FFF702
:1009B00024FD0020FFF721FD9B494988491EC1F312
:1009C0000F20FFF71AFD98494988491EC8B2FFF762
:1009D00014FD31E0082C1CD2DFE804F004070A0DF6
:1009E0000F12151843F0300313E043F0100310E02A
:1009F00043F020030DE000BF0BE043F0380308E0B4
:100A000043F0280305E043F0180302E043F0080335
:100A100000BF00BF84488088A0F50941893904D10E
:100A2000112646F24000034302E0032643F48053BC
:100A300019463046FFF7E9FC70BD30B504460D4657
:100A400029462046FFF70EFDFFF7EFFC77480088A8
:100A50007749088030BD30B503460C4615467248CC
:100A60008088A0F51341413905D06F488088A0F5F2
:100A7000A641103914D16C494889FFF7BBFC181204
:100A8000FFF7BBFCD8B2FFF7B8FC67498889FFF7CE
:100A9000B1FC2012FFF7B1FCE0B2FFF7AEFC5DE065
:100AA00061488088A0F5AA41103920D15E49488963
:100AB000FFF7A0FC1812FFF7A0FC5B494989491C0D
:100AC00088B2FFF797FCD8B2FFF797FC56498889A0
:100AD000FFF790FC2012FFF790FC53498989491CCD
:100AE00088B2FFF787FCE0B2FFF787FC36E04E489C
:100AF0008088A0F5D04104391DD14B488079012868
:100B000004D149480088401EC01A83B2464948892A
:100B1000FFF770FC1812FFF770FCD8B2FFF76DFCFE
:100B200041498889FFF766FC2012FFF766FCE0B2B6
:100B3000FFF763FC12E03C488079012804D13A4871
:100B40000088401EC01A83B2374948891946FFF70A
:100B50005CFC354988892146FFF757FC32480089FB
:100B60003349891E0880881C058030BD10B50446B5
:100B7000002C67D12C498871F02008804FF4A070B8
:100B8000488008468088A0F5134141390BD026489B
:100B90008088A0F5D041043905D023488088A0F58D
:100BA000A64110391AD12C201F4908812A204881DA
:100BB0002B20888108468088A0F5D041043905D0D3
:100BC00019488088A0F5A641103906D14FF4A070CD
:100BD000154908804FF4F07048809CE012488088E6
:100BE000A0F50941893907D122200F4908814E20FB
:100BF00048814F2088818EE00B488088A0F5AA416B
:100C0000103917D14FF43050074908814FF428505C
:100C100048814FF42C5088814FF4F07008804FF4D5
:100C20004870488077E00DE054000020000000206C
:100C30000008006C2220FE490881202048812120E4
:100C4000888168E00120FA4988714FF4A07008801B
:100C5000F020488008468088A0F51341413905D02E
:100C6000F3488088A0F5A641103907D12C20F0491F
:100C700008812A2048812B20888139E0EC4880882F
:100C8000A0F5D041043907D12C20E94908812B2057
:100C900048812A2088812BE0E5488088A0F5094119
:100CA000893907D12220E24908814F2048814E200E
:100CB00088811DE0DE488088A0F5AA41103910D156
:100CC0004FF43050DA4908814FF4285048814FF4EE
:100CD0002C5088814FF4487008804FF4F0704880A1
:100CE00006E02220D24908812120488120208881E5
:100CF000CF488088A0F5D041043905D0CC48808801
:100D0000A0F5A641103906D14FF4F070C84908800B
:100D10004FF4A07048800020FFF727FD10BD2DE99B
:100D2000FF4F04460D4616461F46A019401E86B2C8
:100D3000E819401E87B2BE488088A0F513414139AA
:100D40000BD0BB488088A0F5A641103905D0B84823
:100D50008088A0F5D041043920D1B5494889FFF7F2
:100D600049FB2012FFF749FBE0B2FFF746FB3012C8
:100D7000FFF743FBF0B2FFF740FBAD498889FFF76F
:100D800039FB2812FFF739FBE8B2FFF736FB3812C0
:100D9000FFF733FBF8B2FFF730FB90E0A448808800
:100DA000A0F5AA41103944D1A1494889FFF722FB97
:100DB0002012FFF722FB9E494989491C88B2FFF7A0
:100DC00019FBE0B2FFF719FB99494989891C88B2E0
:100DD000FFF710FB3012FFF710FB95494989C91C3A
:100DE00088B2FFF707FBF0B2FFF707FB904988894D
:100DF000FFF700FB2812FFF700FB8D498989491C8A
:100E000088B2FFF7F7FAE8B2FFF7F7FA884989895D
:100E1000891C88B2FFF7EEFA3812FFF7EEFA844920
:100E20008989C91C88B2FFF7E5FAF8B2FFF7E5FA3D
:100E300045E07F48807901280ED1A846B9467C4814
:100E40000088801B401E80B2019079480088001BFA
:100E5000401E80B2009003E0A046B1460195009785
:100E600073488088A0F5094189390CD14FF0440AB4
:100E7000D34648EA09201FFA80F8C146452003906E
:100E80004620029007E04FF0500A4FF0510B5220DD
:100E900003905320029041465046FFF7B6FA494668
:100EA0005846FFF7B2FA01990398FFF7AEFA009996
:100EB0000298FFF7AAFA29462046FFF7D3FABDE8C1
:100EC000FF8F70B504460026594805884088454381
:100ED00057488088A0F5D041043916D1544880790C
:100EE000012812D10020524988712A2048812B20E4
:100EF000888100210846FFF7B5FA01204C49887126
:100F00002B2048812A20888103E000210846FFF732
:100F1000A9FAFFF78AFA002602E046480480761C08
:100F2000AE42FAD370BD00B59FB00121080204F0B3
:100F3000E8FE012140F2691004F0F0FE0120ADF856
:100F4000780010208DF87B0003208DF87A001EA910
:100F5000394804F02FFC4CF23370ADF878001820BB
:100F60008DF87B0003208DF87A001EA9334804F029
:100F700021FC4FF68070ADF8780018208DF87B00CA
:100F800003208DF87A001EA92D4804F013FC41F2CD
:100F90000100ADF8780018208DF87B0003208DF853
:100FA0007A001EA9274804F005FC012008900020C3
:100FB00009900F200A9000200B900C900D900E903D
:100FC0000190029003200390002004900590069069
:100FD000079006200F900020109011901020129082
:100FE0000020139015901490169017904FF4805095
:100FF0001890002019904FF480401A9000201B9008
:1010000008A81C9001A81D900FA804F0B6F80121B3
:10101000062004F013FA322005F0FDFF0121002024
:10102000FFF7F3F9322005F0F6FF00200CE0000096
:10103000540000200008006C000C01400014014026
:101040000018014000200140FFF7E4F9FE498880C4
:1010500008468088FF280ADB08468088A0F57F4183
:10106000FF3904D0F8488088B0F5134F7ED1D320E3
:10107000FFF7C0F9FFF7C5F9FFF7C3F9FFF7C1F9AB
:10108000F1498880084680880006000C8880FFF7B8
:10109000B8F9ED4989880843EB498880084680887B
:1010A000A0F51341413963D0BF20FFF7A3F9FFF743
:1010B000A8F9FFF7A6F9FFF7A4F9FFF7A2F9E249AB
:1010C0008880084680880006000C8880FFF799F920
:1010D000DD4989880843DC49888008468088A0F576
:1010E000D041043944D0D420FFF784F9FFF789F9BF
:1010F000FFF787F9FFF785F9D3498880084680888C
:101100000006000C8880FFF77CF9CF4989880843E6
:10111000CD49888008468088A0F5A641103927D09F
:101120004FF45A40FFF766F9FFF76BF94FF45B4055
:10113000FFF760F9FFF765F9C349888008468088A2
:101140000006000C88804FF45C40FFF753F9FFF76E
:1011500058F9BD4989880843BB498880084680887A
:10116000B0F5004F04D145F2105000E000E0888057
:10117000B5488088A0F5134141397CD1CF20FFF7D5
:1011800039F90020FFF739F9C120FFF736F930208F
:10119000FFF733F9ED20FFF72DF96420FFF72DF964
:1011A0000320FFF72AF91220FFF727F98120FFF724
:1011B00024F9E820FFF71EF98520FFF71EF910201B
:1011C000FFF71BF97A20FFF718F9CB20FFF712F988
:1011D0003920FFF712F92C20FFF70FF90020FFF755
:1011E0000CF93420FFF709F90220FFF706F9F72080
:1011F000FFF700F92020FFF700F9EA20FFF7FAF8DF
:101200000020FFF7FAF80020FFF7F7F8C020FFF7FB
:10121000F1F81B20FFF7F1F8C120FFF7EBF80120F0
:10122000FFF7EBF8C520FFF7E5F83020FFF7E5F80A
:101230003020FFF7E2F8C720FFF7DCF8B720FFF710
:10124000DCF83620FFF7D6F84820FFF7D6F83A202A
:10125000FFF7D0F85520FFF7D0F8B120FFF7CAF814
:101260000020FFF7CAF81A20FFF7C7F8B620FFF7EB
:10127000C1F80A2000E099E0FFF7BFF8A220FFF7CD
:10128000BCF8F220FFF7B6F80020FFF7B6F82620EA
:10129000FFF7B0F80120FFF7B0F8E020FFF7AAF859
:1012A0000F20FFF7AAF82A20FFF7A7F82820FFF75A
:1012B000A4F80820FFF7A1F80E20FFF79EF80820F9
:1012C000FFF79BF85420FFF798F8A920FFF795F84F
:1012D0004320FFF792F80A20FFF78FF80F20FFF75F
:1012E0008CF80020FFF789F80020FFF786F800202F
:1012F000FFF783F80020FFF780F8E120FFF77AF886
:101300000020FFF77AF81520FFF777F81720FFF78E
:1013100074F80720FFF771F81120FFF76EF8062028
:10132000FFF76BF82B20FFF768F85620FFF765F8FA
:101330003C20FFF762F80520FFF75FF81020FFF769
:101340005CF80F20FFF759F83F20FFF756F83F20D1
:10135000FFF753F80F20FFF750F82B20FFF74AF85C
:101360000020FFF74AF80020FFF747F80120FFF7B9
:1013700044F83F20FFF741F82A20FFF73BF8002010
:10138000FFF73BF80020FFF738F80020FFF735F8AB
:10139000EF20FFF732F81120FFF72CF8782005F046
:1013A0003AFE2920FFF726F803F01EB92648808868
:1013B000A0F5D04104397DD11120FFF71BF814208E
:1013C00005F029FED020FFF715F80720FFF715F8E4
:1013D0004220FFF712F81D20FFF70FF8D120FFF78A
:1013E00009F80020FFF709F81A20FFF706F809208E
:1013F000FFF703F8D220FEF7FDFF0120FEF7FDFF07
:101400002220FEF7FAFFC020FEF7F4FF1020FEF7BF
:10141000F4FF3B20FEF7F1FF0020FEF7EEFF022075
:10142000FEF7EBFF1120FEF7E8FFC520FEF7E2FF15
:101430000320FEF7E2FFC820FEF7DCFF0020FEF7E6
:10144000DCFF252002E0000054000020FEF7D5FF5D
:101450002120FEF7D2FF0520FEF7CFFF0020FEF788
:10146000CCFF0A20FEF7C9FF6520FEF7C6FF252046
:10147000FEF7C3FF7720FEF7C0FF5020FEF7BDFF49
:101480000F20FEF7BAFF0020FEF7B7FFF820FEF7A7
:10149000B1FF0120FEF7B1FFFE20FEF7ABFF0020F9
:1014A000FEF7ABFF0220FEF7A8FF2020FEF7A2FF09
:1014B000362000E02FE0FEF79DFF0820FEF79DFF9D
:1014C0003A20FEF797FF5520FEF797FF2B20FEF7F7
:1014D00091FF0020FEF791FF0020FEF78EFF012014
:1014E000FEF78BFF3F20FEF788FF2A20FEF782FFE2
:1014F0000020FEF782FF0020FEF77FFF0120FEF7AD
:101500007CFFDF20FEF779FF782005F084FD29209D
:10151000FEF770FF48E7FE488088A0F5A641103925
:1015200040F07C87ED20FEF765FF0120FEF765FFA8
:10153000FE20FEF762FFEE20FEF75CFFDE20FEF7E6
:101540005CFF2120FEF759FFF120FEF753FF012039
:10155000FEF753FFDF20FEF74DFF1020FEF74DFF93
:10156000C420FEF747FF8F20FEF747FFC620FEF797
:1015700041FF0020FEF741FFE220FEF73EFFE220A0
:10158000FEF73BFFE220FEF738FFBF20FEF732FFF9
:10159000AA20FEF732FFB020FEF72CFF0D20FEF749
:1015A0002CFF0020FEF729FF0D20FEF726FF00206C
:1015B000FEF723FF1120FEF720FF0020FEF71DFF9E
:1015C0001920FEF71AFF0020FEF717FF2120FEF773
:1015D00014FF0020FEF711FF2D20FEF70EFF002064
:1015E000FEF70BFF3D20FEF708FF0020FEF705FF8A
:1015F0005D20FEF702FF0020FEF7FFFE5D20FEF7F4
:10160000FCFE0020FEF7F9FEB120FEF7F3FE80207D
:10161000FEF7F3FE0020FEF7F0FE8B20FEF7EDFE56
:101620000020FEF7EAFE9620FEF7E7FE0020FEF718
:10163000E4FEB220FEF7DEFE0020FEF7DEFE002014
:10164000FEF7DBFE0220FEF7D8FE0020FEF7D5FEF7
:101650000320FEF7D2FE0020FEF7CFFEB320FEF7F8
:10166000C9FE0020FEF7C9FE0020FEF7C6FE0020DE
:10167000FEF7C3FE0020FEF7C0FE0020FEF7BDFE11
:101680000020FEF7BAFE0020FEF7B7FE0020FEF7AE
:10169000B4FE0020FEF7B1FE0020FEF7AEFE0020F3
:1016A000FEF7ABFE0020FEF7A8FE0020FEF7A5FE29
:1016B0000020FEF7A2FE0020FEF79FFE0020FEF7AE
:1016C0009CFE0020FEF799FE0020FEF796FE00200B
:1016D000FEF793FE0020FEF790FE0020FEF78DFE41
:1016E0000020FEF78AFE0020FEF787FE0020FEF7AE
:1016F00084FEB420FEF77EFE8B20FEF77EFE0020E7
:10170000FEF77BFE9620FEF778FE0020FEF775FEC2
:10171000A120FEF772FE0020FEF76FFEB520FEF757
:1017200069FE0220FEF769FE0020FEF766FE032038
:10173000FEF763FE0020FEF760FE0420FEF75DFE6C
:101740000020FEF75AFEB620FEF754FE0020FEF7FA
:1017500054FE0020FEF751FEB720FEF74BFE00209E
:10176000FEF74BFE0020FEF748FE3F20FEF745FE49
:101770000020FEF742FE5E20FEF73FFE0020FEF74F
:101780003CFE6420FEF739FE0020FEF736FE8C207A
:10179000FEF733FE0020FEF730FEAC20FEF72DFEF4
:1017A0000020FEF72AFEDC20FEF727FE0020FEF7D1
:1017B00024FE7020FEF721FE0020FEF71EFE902082
:1017C000FEF71BFE0020FEF718FEEB20FEF715FECD
:1017D0000020FEF712FEDC20FEF70FFE0020FEF7D1
:1017E0000CFEB820FEF706FE0020FEF706FE0020E5
:1017F000FEF703FE0020FEF700FE0020FEF7FDFDD1
:101800000020FEF7FAFD0020FEF7F7FD0020FEF7AE
:10181000F4FD0020FEF7F1FDBA20FEF7EBFD2420D9
:10182000FEF7EBFD0020FEF7E8FD0020FEF7E5FDEA
:101830000020FEF7E2FDC120FEF7DCFD2020FEF7D0
:10184000DCFD0020FEF7D9FD5420FEF7D6FD002078
:10185000FEF7D3FDFF20FEF7D0FD0020FEF7CDFD03
:10186000C220FEF7C7FD0A20FEF7C7FD0020FEF7E5
:10187000C4FD0420FEF7C1FD0020FEF7BEFDC3201D
:10188000FEF7B8FD3C20FEF7B8FD0020FEF7B5FDE1
:101890003A20FEF7B2FD0020FEF7AFFD3920FEF73B
:1018A000ACFD0020FEF7A9FD3720FEF7A6FD0020C5
:1018B000FEF7A3FD3C20FEF7A0FD0020FEF79DFDF6
:1018C0003620FEF79AFD0020FEF797FD3220FEF746
:1018D00094FD0020FEF791FD2F20FEF78EFD0020E5
:1018E000FEF78BFD2C20FEF788FD0020FEF785FD1E
:1018F0002920FEF782FD0020FEF77FFD2620FEF75F
:101900007CFD0020FEF779FD2420FEF776FD01E046
:10191000540000200020FEF770FD2420FEF76DFD2E
:101920000020FEF76AFD2320FEF767FD0020FEF78A
:1019300064FD3C20FEF761FD0020FEF75EFD3620D1
:10194000FEF75BFD0020FEF758FD3220FEF755FD47
:101950000020FEF752FD2F20FEF74FFD0020FEF77E
:101960004CFD2C20FEF749FD0020FEF746FD292006
:10197000FEF743FD0020FEF740FD2620FEF73DFD6B
:101980000020FEF73AFD2420FEF737FD0020FEF789
:1019900034FD2420FEF731FD0020FEF72EFD23202C
:1019A000FEF72BFD0020FEF728FDC420FEF722FDE8
:1019B0006220FEF722FD0020FEF71FFD0520FEF746
:1019C0001CFD0020FEF719FD8420FEF716FD002007
:1019D000FEF713FDF020FEF710FD0020FEF70DFDD1
:1019E0001820FEF70AFD0020FEF707FDA420FEF7F1
:1019F00004FD0020FEF701FD1820FEF7FEFC00208C
:101A0000FEF7FBFC5020FEF7F8FC0020FEF7F5FC8B
:101A10000C20FEF7F2FC0020FEF7EFFC1720FEF78B
:101A2000ECFC0020FEF7E9FC9520FEF7E6FC002028
:101A3000FEF7E3FCF320FEF7E0FC0020FEF7DDFC00
:101A4000E620FEF7DAFC0020FEF7D7FCC520FEF703
:101A5000D1FC3220FEF7D1FC0020FEF7CEFC442062
:101A6000FEF7CBFC0020FEF7C8FC6520FEF7C5FCA6
:101A70000020FEF7C2FC7620FEF7BFFC0020FEF738
:101A8000BCFC8820FEF7B9FC0020FEF7B6FCC6209F
:101A9000FEF7B0FC2020FEF7B0FC0020FEF7ADFC06
:101AA0001720FEF7AAFC0020FEF7A7FC0120FEF796
:101AB000A4FC0020FEF7A1FCC720FEF79BFC002041
:101AC000FEF79BFC0020FEF798FC0020FEF795FC3B
:101AD0000020FEF792FCC820FEF78CFC0020FEF7E9
:101AE0008CFC0020FEF789FC0020FEF786FC00201D
:101AF000FEF783FCC920FEF77DFC0020FEF77DFC8D
:101B00000020FEF77AFC0020FEF777FC0020FEF7AD
:101B100074FC0020FEF771FC0020FEF76EFC002034
:101B2000FEF76BFC0020FEF768FC0020FEF765FC6A
:101B30000020FEF762FC0020FEF75FFC0020FEF7AD
:101B40005CFC0020FEF759FC0020FEF756FC00204C
:101B5000FEF753FC0020FEF750FCE020FEF74AFCA5
:101B60001620FEF74AFC0020FEF747FC1C20FEF77B
:101B700044FC0020FEF741FC2120FEF73EFC002043
:101B8000FEF73BFC3620FEF738FC0020FEF735FC64
:101B90004620FEF732FC0020FEF72FFC5220FEF715
:101BA0002CFC0020FEF729FC6420FEF726FC002018
:101BB000FEF723FC7A20FEF720FC0020FEF71DFC38
:101BC0008B20FEF71AFC0020FEF717FC9920FEF789
:101BD00014FC0020FEF711FCA820FEF70EFC0020EC
:101BE000FEF70BFCB920FEF708FC0020FEF705FC11
:101BF000C420FEF702FC0020FEF7FFFBCA20FEF720
:101C0000FCFB0020FEF7F9FBD220FEF7F6FB0020DC
:101C1000FEF7F3FBD920FEF7F0FB0020FEF7EDFB0B
:101C2000E020FEF7EAFB0020FEF7E7FBF320FEF7DB
:101C3000E4FB0020FEF7E1FBE120FEF7DBFB1620D2
:101C4000FEF7DBFB0020FEF7D8FB1C20FEF7D5FBE0
:101C50000020FEF7D2FB2220FEF7CFFB0020FEF78C
:101C6000CCFB3620FEF7C9FB0020FEF7C6FB452063
:101C7000FEF7C3FB0020FEF7C0FB5220FEF7BDFBC2
:101C80000020FEF7BAFB6420FEF7B7FB0020FEF74A
:101C9000B4FB7A20FEF7B1FB0020FEF7AEFB8B20F1
:101CA000FEF7ABFB0020FEF7A8FB9920FEF7A5FB93
:101CB0000020FEF7A2FBA820FEF79FFB0020FEF706
:101CC0009CFBB920FEF799FB0020FEF796FBC42091
:101CD000FEF793FB0020FEF790FBCA20FEF78DFB7A
:101CE0000020FEF78AFBD220FEF787FB0020FEF7DC
:101CF00084FBD820FEF781FB0020FEF77EFBE0206E
:101D0000FEF77BFB0020FEF778FBF320FEF775FB68
:101D10000020FEF772FBE220FEF76CFB0520FEF7C9
:101D20006CFB0020FEF769FB0B20FEF766FB002032
:101D3000FEF763FB1B20FEF760FB0020FEF75DFB58
:101D40003420FEF75AFB0020FEF757FB4420FEF735
:101D500054FB0020FEF751FB4F20FEF74EFB002006
:101D6000FEF74BFB6120FEF748FB0020FEF745FB2A
:101D70007920FEF742FB0020FEF73FFB8820FEF7AC
:101D80003CFB0020FEF739FB9720FEF736FB0020D6
:101D9000FEF733FBA620FEF730FB0020FEF72DFBFD
:101DA000B720FEF72AFB0020FEF727FBC220FEF734
:101DB00024FB0020FEF721FBC720FEF71EFB0020BE
:101DC000FEF71BFBD120FEF718FB0020FEF715FBEA
:101DD000D620FEF712FB0020FEF70FFBDD20FEF7FA
:101DE0000CFB0020FEF709FBF320FEF706FB0020AA
:101DF000FEF703FBE320FEF7FDFA0520FEF7FDFAF0
:101E00000020FEF7FAFA0A20FEF7F7FA0020FEF7A4
:101E1000F4FA1C20FEF7F1FA0020FEF7EEFA332068
:101E2000FEF7EBFA0020FEF7E8FA4420FEF7E5FAA9
:101E30000020FEF7E2FA5020FEF7DFFA0020FEF75E
:101E4000DCFA6220FEF7D9FA0020FEF7D6FA7820F5
:101E5000FEF7D3FA0020FEF7D0FA8820FEF7CDFA7D
:101E60000020FEF7CAFA9720FEF7C7FA0020FEF717
:101E7000C4FAA620FEF7C1FA0020FEF7BEFAB7208A
:101E8000FEF7BBFA0020FEF7B8FAC220FEF7B5FA5B
:101E90000020FEF7B2FAC720FEF7AFFA0020FEF7E7
:101EA000ACFAD120FEF7A9FA0020FEF7A6FAD52059
:101EB000FEF7A3FA0020FEF7A0FADD20FEF79DFA58
:101EC0000020FEF79AFAF320FEF797FA0020FEF7BB
:101ED00094FAE420FEF78EFA0120FEF78EFA002035
:101EE000FEF78BFA0120FEF788FA0020FEF785FA4C
:101EF0000220FEF782FA0020FEF77FFA2A20FEF782
:101F00007CFA0020FEF779FA3C20FEF776FA0020F2
:101F1000FEF773FA4B20FEF770FA0020FEF76DFA19
:101F20005D20FEF76AFA0020FEF767FA7420FEF7DC
:101F300064FA0020FEF761FA8420FEF75EFA0020C2
:101F4000FEF75BFA9320FEF758FA0020FEF755FAE9
:101F5000A220FEF752FA0020FEF74FFAB320FEF758
:101F60004CFA0020FEF749FABE20FEF746FA0020A0
:101F7000FEF743FAC420FEF740FA0020FEF73DFAD0
:101F8000CD20FEF73AFA0020FEF737FAD320FEF70D
:101F900034FA0020FEF731FADD20FEF72EFA002099
:101FA000FEF72BFAF320FEF728FA0020FEF725FAB9
:101FB000E520FEF71FFA0020FEF71FFA0020FEF7CB
:101FC0001CFA0020FEF719FA0020FEF716FA02208C
:101FD000FEF713FA0020FEF710FA2920FEF70DFA9B
:101FE0000020FEF70AFA3C20FEF707FA0020FEF771
:101FF00004FA4B20FEF701FA0020FEF7FEF95D20FF
:10200000FEF7FBF90020FEF7F8F97420FEF7F5F96A
:102010000020FEF7F2F98420FEF7EFF90020FEF72A
:10202000ECF99320FEF7E9F90020FEF7E6F9A2208B
:10203000FEF7E3F90020FEF7E0F9B320FEF7DDF943
:102040000020FEF7DAF9BE20FEF7D7F90020FEF7F0
:10205000D4F9C420FEF7D1F90020FEF7CEF9CD2047
:10206000FEF7CBF90020FEF7C8F9D320FEF7C5F93B
:102070000020FEF7C2F9DC20FEF7BFF90020FEF7D2
:10208000BCF9F320FEF7B9F90020FEF7B6F9E62017
:10209000FEF7B0F91120FEF7B0F90020FEF7ADF918
:1020A0003420FEF7AAF90020FEF7A7F95620FEF724
:1020B000A4F90020FEF7A1F97620FEF79EF9002092
:1020C000FEF79BF97720FEF798F90020FEF795F9C7
:1020D0006620FEF792F90020FEF78FF98820FEF7C0
:1020E0008CF90020FEF789F99920FEF786F9002087
:1020F000FEF783F9BB20FEF780F90020FEF77DF99B
:102100009920FEF77AF90020FEF777F96620FEF7AE
:1021100074F90020FEF771F95520FEF76EF90020E2
:10212000FEF76BF95520FEF768F90020FEF765F918
:102130004520FEF762F90020FEF75FF94320FEF725
:102140005CF90020FEF759F94420FEF756F900200B
:10215000FEF753F9E720FEF74DF93220FEF74DF96F
:102160000020FEF74AF95520FEF747F90020FEF758
:1021700044F97620FEF741F90020FEF73EF966208B
:10218000FEF73BF90020FEF738F96720FEF735F936
:102190000020FEF732F96720FEF72FF90020FEF746
:1021A0002CF98720FEF729F90020FEF726F999205F
:1021B000FEF723F90020FEF720F9BB20FEF71DF9FA
:1021C0000020FEF71AF99920FEF717F90020FEF714
:1021D00014F97720FEF711F90020FEF70EF94420DC
:1021E000FEF70BF90020FEF708F95620FEF705F977
:1021F0000020FEF702F92320FEF7FFF80020FEF78B
:10220000FCF83320FEF7F9F80020FEF7F6F8452039
:10221000FEF7F3F80020FEF7F0F8E820FEF7EAF802
:102220000020FEF7EAF80020FEF7E7F89920FEF715
:10223000E4F80020FEF7E1F88720FEF7DEF8002042
:10224000FEF7DBF88820FEF7D8F80020FEF7D5F877
:102250007720FEF7D2F80020FEF7CFF86620FEF7D1
:10226000CCF80020FEF7C9F88820FEF7C6F8002059
:10227000FEF7C3F8AA20FEF7C0F80020FEF7BDF86D
:10228000BB20FEF7BAF80020FEF7B7F89920FEF75A
:10229000B4F80020FEF7B1F86620FEF7AEF8002093
:1022A000FEF7ABF85520FEF7A8F80020FEF7A5F8DA
:1022B0005520FEF7A2F80020FEF79FF84420FEF715
:1022C0009CF80020FEF799F84420FEF796F80020CD
:1022D000FEF793F85520FEF790F80020FEF78DF8F2
:1022E000E920FEF787F8AA20FEF787F80020FEF71E
:1022F00084F80020FEF781F80020FEF77EF8002029
:10230000FEF778F8AA20FEF778F8CF20FEF772F8EB
:102310000020FEF772F80020FEF76FF80020FEF7AD
:102320006CF80020FEF769F80020FEF766F8002040
:10233000FEF763F80020FEF760F80020FEF75DF876
:102340000020FEF75AF80020FEF757F80020FEF7AD
:1023500054F80020FEF751F80020FEF74EF8002058
:10236000FEF74BF80020FEF748F80020FEF745F88E
:102370000020FEF742F8F020FEF73CF80020FEF7C0
:102380003CF85020FEF739F80020FEF736F8002020
:10239000FEF733F80020FEF730F8F320FEF72AF8B6
:1023A0000020FEF72AF8F920FEF724F80620FEF7B1
:1023B00024F81020FEF721F82920FEF71EF800204F
:1023C000FEF71BF83A20FEF715F85520FEF715F832
:1023D0001120FEF70FF8642004F01DFE2920FEF7FF
:1023E00009F83520FEF706F80020FEF706F8512020
:1023F000FEF700F8FF20FEF700F85320FDF7FAFF84
:102400002C20FDF7FAFF5520FDF7F4FF8220FDF7A1
:10241000F4FF2C20FDF7EEFF02F0E6B8FE488088BE
:10242000A0F5AA4110397DD155214FF47040FDF738
:10243000ECFFAA214FF20100FDF7E7FF52214FF216
:102440000200FDF7E2FF08214FF20300FDF7DDFF78
:1024500001214FF20400FDF7D8FF0D214FF4304069
:10246000FDF7D3FF0D214BF20100FDF7CEFF0D214B
:102470004BF20200FDF7C9FF34214FF43640FDF75F
:10248000C4FF34214BF20160FDF7BFFF34214BF252
:102490000260FDF7BAFF0D214FF43140FDF7B5FFA3
:1024A0000D214BF20110FDF7B0FF0D214BF2021090
:1024B000FDF7ABFF34214FF43740FDF7A6FF342181
:1024C0004BF20170FDF7A1FF34214BF20270FDF7D2
:1024D0009CFF00214FF43240FDF797FF00214BF2A3
:1024E0000120FDF792FF00214BF20220FDF78DFF46
:1024F00024214FF43840FDF788FF24214BF60100DA
:10250000FDF783FF24214BF60200FDF77EFF01213A
:102510004FF43F40FDF779FF0F214FF43340FDF7B3
:1025200074FF00E0FDE30F214BF20130FDF76DFF7A
:102530000F214BF20230FDF768FF34214FF4394090
:10254000FDF763FF34214BF60110FDF75EFF3421E8
:102550004BF60210FDF759FF08214FF43540FDF707
:1025600054FF08214BF20150FDF74FFF08214BF2B9
:102570000250FDF74AFF03214FF44240FDF745FFAB
:1025800024214FF43A40FDF740FF24214BF601206F
:10259000FDF73BFF24214BF60220FDF736FF00211B
:1025A0004FF43C40FDF731FF78214BF60140FDF739
:1025B0002CFF00214BF60240FDF727FF00214FF4CE
:1025C0003D40FDF722FF78214BF60150FDF71DFF3E
:1025D00000214BF60250FDF718FF00214FF43E405A
:1025E000FDF713FF64214BF60160FDF70EFF00219C
:1025F0004FF45140FDF709FF33214DF20110FDF773
:1026000004FF00214DF20210FDF7FFFE34214DF2D0
:102610000310FDF7FAFE00214DF20410FDF7F5FE60
:102620003A214DF20510FDF7F0FE00214DF20610A3
:10263000FDF7EBFE4A214DF20710FDF7E6FE002103
:102640004DF20810FDF7E1FE5C214DF20910FDF797
:10265000DCFE00214DF20A10FDF7D7FE81214DF27C
:102660000B10FDF7D2FE00214DF20C10FDF7CDFE50
:10267000A6214DF20D10FDF7C8FE00214DF20E10FF
:10268000FDF7C3FEE5214DF20F10FDF7BEFE01215F
:102690004DF21010FDF7B9FE13214DF21110FDF7A8
:1026A000B4FE01214DF21210FDF7AFFE54214DF2A0
:1026B0001310FDF7AAFE01214DF21410FDF7A5FE3F
:1026C00082214DF21510FDF7A0FE01214DF21610EA
:1026D000FDF79BFECA214DF21710FDF796FE022171
:1026E0004DF21810FDF791FE00214DF21910FDF783
:1026F0008CFE02214DF21A10FDF787FE01214DF2EA
:102700001B10FDF782FE02214DF21C10FDF77DFE2D
:1027100034214DF21D10FDF778FE02214DF21E10FE
:10272000FDF773FE67214DF21F10FDF76EFE0221CB
:102730004DF22010FDF769FE84214DF22110FDF7C6
:1027400064FE02214DF22210FDF75FFEA4214DF23E
:102750002310FDF75AFE02214DF22410FDF755FE1D
:10276000B7214DF22510FDF750FE02214DF2261043
:10277000FDF74BFECF214DF22710FDF746FE02215B
:102780004DF22810FDF741FEDE214DF22910FDF734
:102790003CFE02214DF22A10FDF737FEF2214DF2E8
:1027A0002B10FDF732FE02214DF22C10FDF72DFE0D
:1027B000FE214DF22D10FDF728FE03214DF22E10C3
:1027C000FDF723FE10214DF22F10FDF71EFE032111
:1027D0004DF23010FDF719FE33214DF23110FDF7A7
:1027E00014FE03214DF23210FDF70FFE6D214DF264
:1027F0003310FDF70AFE00214FF45240FDF705FEAD
:1028000033214DF20120FDF700FE00214DF20220A0
:10281000FDF7FBFD342101E0540000204DF20320C0
:10282000FDF7F3FD00214DF20420FDF7EEFD3A2106
:102830004DF20520FDF7E9FD00214DF20620FDF7E0
:10284000E4FD4A214DF20720FDF7DFFD00214DF2A6
:102850000820FDF7DAFD5C214DF20920FDF7D5FDDA
:1028600000214DF20A20FDF7D0FD81214DF20B2011
:10287000FDF7CBFD00214DF20C20FDF7C6FDA62192
:102880004DF20D20FDF7C1FD00214DF20E20FDF7A8
:10289000BCFDE5214DF20F20FDF7B7FD01214DF202
:1028A0001020FDF7B2FD13214DF21120FDF7ADFD13
:1028B00001214DF21220FDF7A8FD54214DF2132005
:1028C000FDF7A3FD01214DF21420FDF79EFD8221AD
:1028D0004DF21520FDF799FD01214DF21620FDF76F
:1028E00094FDCA214DF21720FDF78FFD02214DF214
:1028F0001820FDF78AFD00214DF21920FDF785FD16
:1029000002214DF21A20FDF780FD01214DF21B201E
:10291000FDF77BFD02214DF21C20FDF776FD3421F1
:102920004DF21D20FDF771FD02214DF21E20FDF735
:102930006CFD67214DF21F20FDF767FD02214DF26E
:102940002020FDF762FD84214DF22120FDF75DFD81
:1029500002214DF22220FDF758FDA4214DF2232043
:10296000FDF753FD02214DF22420FDF74EFDB72166
:102970004DF22520FDF749FD02214DF22620FDF7FD
:1029800044FDCF214DF22720FDF73FFD02214DF2FE
:102990002820FDF73AFDDE214DF22920FDF735FD17
:1029A00002214DF22A20FDF730FDF2214DF22B20BD
:1029B000FDF72BFD02214DF22C20FDF726FDFE2117
:1029C0004DF22D20FDF721FD03214DF22E20FDF7C4
:1029D0001CFD10214DF22F20FDF717FD03214DF2B4
:1029E0003020FDF712FD33214DF23120FDF70DFDB2
:1029F00003214DF23220FDF708FD6D214DF2332009
:102A0000FDF703FD00214FF45340FDF7FEFC332199
:102A10004DF20130FDF7F9FC00214DF20230FDF7D7
:102A2000F4FC34214DF20330FDF7EFFC00214DF2B0
:102A30000430FDF7EAFC3A214DF20530FDF7E5FCE4
:102A400000214DF20630FDF7E0FC4A214DF207303F
:102A5000FDF7DBFC00214DF20830FDF7D6FC5C21D0
:102A60004DF20930FDF7D1FC00214DF20A30FDF79F
:102A7000CCFC81214DF20B30FDF7C7FC00214DF25B
:102A80000C30FDF7C2FCA6214DF20D30FDF7BDFC68
:102A900000214DF20E30FDF7B8FCE5214DF20F306C
:102AA000FDF7B3FC01214DF21030FDF7AEFC132110
:102AB0004DF21130FDF7A9FC01214DF21230FDF766
:102AC000A4FC54214DF21330FDF79FFC01214DF27F
:102AD0001430FDF79AFC82214DF21530FDF795FC7C
:102AE00001214DF21630FDF790FCCA214DF217304E
:102AF000FDF78BFC02214DF21830FDF786FC00211A
:102B00004DF21930FDF781FC02214DF21A30FDF72C
:102B10007CFC01214DF21B30FDF777FC02214DF2C8
:102B20001C30FDF772FC34214DF21D30FDF76DFCB9
:102B300002214DF21E30FDF768FC67214DF21F3077
:102B4000FDF763FC02214DF22030FDF75EFC84218D
:102B50004DF22130FDF759FC02214DF22230FDF7F4
:102B600054FCA4214DF22330FDF74FFC02214DF21D
:102B70002430FDF74AFCB7214DF22530FDF745FC26
:102B800002214DF22630FDF740FCCF214DF22730D7
:102B9000FDF73BFC02214DF22830FDF736FCDE212B
:102BA0004DF22930FDF731FC02214DF22A30FDF7BC
:102BB0002CFCF2214DF22B30FDF727FC02214DF2C7
:102BC0002C30FDF722FCFE214DF22D30FDF71DFCCF
:102BD00003214DF22E30FDF718FC10214DF22F305D
:102BE000FDF713FC03214DF23030FDF70EFC3321CD
:102BF0004DF23130FDF709FC03214DF23230FDF783
:102C000004FC6D214DF23330FDF7FFFB00214FF442
:102C10005440FDF7FAFB33214DF20140FDF7F5FB7F
:102C200000214DF20240FDF7F0FB34214DF203404C
:102C3000FDF7EBFB00214DF20440FDF7E6FB3A21E6
:102C40004DF20540FDF7E1FB00214DF20640FDF796
:102C5000DCFB4A214DF20740FDF7D7FB00214DF286
:102C60000840FDF7D2FB5C214DF20940FDF7CDFB9A
:102C700000214DF20A40FDF7C8FB81214DF20B40C7
:102C8000FDF7C3FB00214DF20C40FDF7BEFBA62172
:102C90004DF20D40FDF7B9FB00214DF20E40FDF75E
:102CA000B4FBE5214DF20F40FDF7AFFB01214DF2E2
:102CB0001040FDF7AAFB13214DF21140FDF7A5FBD3
:102CC00001214DF21240FDF7A0FB54214DF21340BB
:102CD000FDF79BFB01214DF21440FDF796FB82218D
:102CE0004DF21540FDF791FB01214DF21640FDF725
:102CF0008CFBCA214DF21740FDF787FB02214DF2F4
:102D00001840FDF782FB00214DF21940FDF77DFBD5
:102D100002214DF21A40FDF778FB01214DF21B40D4
:102D200000E006E3FDF771FB02214DF21C40FDF7C8
:102D30006CFB34214DF21D40FDF767FB02214DF283
:102D40001E40FDF762FB67214DF21F40FDF75DFB62
:102D500002214DF22040FDF758FB84214DF2214025
:102D6000FDF753FB02214DF22240FDF74EFBA4215B
:102D70004DF22340FDF749FB02214DF22440FDF7BF
:102D800044FBB7214DF22540FDF73FFB02214DF2F8
:102D90002640FDF73AFBCF214DF22740FDF735FBEA
:102DA00002214DF22840FDF730FBDE214DF2294093
:102DB000FDF72BFB02214DF22A40FDF726FBF22105
:102DC0004DF22B40FDF721FB02214DF22C40FDF787
:102DD0001CFBFE214DF22D40FDF717FB03214DF2A8
:102DE0002E40FDF712FB10214DF22F40FDF70DFB99
:102DF00003214DF23040FDF708FB33214DF2314005
:102E0000FDF703FB03214DF23240FDF7FEFA6D2181
:102E10004DF23340FDF7F9FA00214FF45540FDF72C
:102E2000F4FA33214DF20150FDF7EFFA00214DF293
:102E30000250FDF7EAFA34214DF20350FDF7E5FAAE
:102E400000214DF20450FDF7E0FA3A214DF2055011
:102E5000FDF7DBFA00214DF20650FDF7D6FA4A21C4
:102E60004DF20750FDF7D1FA00214DF20850FDF761
:102E7000CCFA5C214DF20950FDF7C7FA00214DF262
:102E80000A50FDF7C2FA81214DF20B50FDF7BDFA51
:102E900000214DF20C50FDF7B8FAA6214DF20D506D
:102EA000FDF7B3FA00214DF20E50FDF7AEFAE52121
:102EB0004DF20F50FDF7A9FA01214DF21050FDF728
:102EC000A4FA13214DF21150FDF79FFA01214DF2A2
:102ED0001250FDF79AFA54214DF21350FDF795FA6E
:102EE00001214DF21450FDF790FA82214DF2155058
:102EF000FDF78BFA01214DF21650FDF786FACA2133
:102F00004DF21750FDF781FA02214DF21850FDF7EE
:102F10007CFA00214DF21950FDF777FA02214DF2AB
:102F20001A50FDF772FA01214DF21B50FDF76DFAB0
:102F300002214DF21C50FDF768FA34214DF21D506C
:102F4000FDF763FA02214DF21E50FDF75EFA67218C
:102F50004DF21F50FDF759FA02214DF22050FDF7B6
:102F600054FA84214DF22150FDF74FFA02214DF21F
:102F70002250FDF74AFAA4214DF22350FDF745FAFD
:102F800002214DF22450FDF740FAB7214DF22550B1
:102F9000FDF73BFA02214DF22650FDF736FACF211C
:102FA0004DF22750FDF731FA02214DF22850FDF77E
:102FB0002CFADE214DF22950FDF727FA02214DF2BD
:102FC0002A50FDF722FAF2214DF22B50FDF71DFA9F
:102FD00002214DF22C50FDF718FAFE214DF22D5032
:102FE000FDF713FA03214DF22E50FDF70EFA1021D2
:102FF0004DF22F50FDF709FA03214DF23050FDF745
:1030000004FA33214DF23150FDF7FFF903214DF25F
:103010003250FDF7FAF96D214DF23350FDF7F5F915
:1030200000214FF45640FDF7F0F933214DF20160D5
:10303000FDF7EBF900214DF20260FDF7E6F93421CE
:103040004DF20360FDF7E1F900214DF20460FDF758
:10305000DCF93A214DF20560FDF7D7F900214DF278
:103060000660FDF7D2F94A214DF20760FDF7CDF970
:1030700000214DF20860FDF7C8F95C214DF20960AE
:10308000FDF7C3F900214DF20A60FDF7BEF9812179
:103090004DF20B60FDF7B9F900214DF20C60FDF720
:1030A000B4F9A6214DF20D60FDF7AFF900214DF204
:1030B0000E60FDF7AAF9E5214DF20F60FDF7A5F9C5
:1030C00001214DF21060FDF7A0F913214DF21160BE
:1030D000FDF79BF901214DF21260FDF796F954219D
:1030E0004DF21360FDF791F901214DF21460FDF7E7
:1030F0008CF982214DF21560FDF787F901214DF21F
:103100001660FDF782F9CA214DF21760FDF77DF9CF
:1031100002214DF21860FDF778F900214DF2196097
:10312000FDF773F902214DF21A60FDF76EF90121E6
:103130004DF21B60FDF769F902214DF21C60FDF7AD
:1031400064F934214DF21D60FDF75FF902214DF263
:103150001E60FDF75AF967214DF21F60FDF755F922
:1031600002214DF22060FDF750F984214DF22160DB
:10317000FDF74BF902214DF22260FDF746F9A4213B
:103180004DF22360FDF741F902214DF22460FDF775
:103190003CF9B7214DF22560FDF737F902214DF2D8
:1031A0002660FDF732F9CF214DF22760FDF72DF9AA
:1031B00002214DF22860FDF728F9DE214DF2296049
:1031C000FDF723F902214DF22A60FDF71EF9F221E5
:1031D0004DF22B60FDF719F902214DF22C60FDF73D
:1031E00014F9FE214DF22D60FDF70FF903214DF288
:1031F0002E60FDF70AF910214DF22F60FDF705F959
:1032000003214DF23060FDF700F933214DF23160BA
:10321000FDF7FBF803214DF23260FDF7F6F86D2162
:103220004DF23360FDF7F1F855214FF47040FDF792
:10323000ECF8AA214FF20100FDF7E7F852214FF216
:103240000200FDF7E2F808214FF20300FDF7DDF878
:1032500000214FF20400FDF7D8F8CC214FF43140A3
:10326000FDF7D3F800214BF20110FDF7CEF8052150
:103270004FF43640FDF7C9F870214FF43740FDF7A1
:10328000C4F870214BF20170FDF7BFF801214FF433
:103290003840FDF7BAF803214BF60100FDF7B5F809
:1032A00003214BF60200FDF7B0F803214BF60300B3
:1032B000FDF7ABF802214FF43C40FDF7A6F80021E2
:1032C0004BF60140FDF7A1F800214BF60240FDF757
:1032D0009CF8D0214FF44940FDF797F802214CF6B5
:1032E0000110FDF792F850214CF60210FDF78DF811
:1032F00050214CF60310FDF788F850214CF60410CD
:10330000FDF783F800214FF45450FDF77EF8552166
:103310004FF46850FDF779F84FF48850FDF76AF8DC
:10332000782003F055FE4FF42450FDF763F801F0C8
:103330005BB9FE488088A0F5134125397ED147F658
:10334000F001E520FDF761F84FF480710120FDF7F1
:103350005CF84FF4E0610220FDF757F841F23001CC
:103360000320FDF752F800210420FDF74EF840F24B
:1033700002210820FDF749F800210920FDF745F852
:1033800000210A20FDF741F800210C20FDF73DF84F
:1033900000210D20FDF739F800210F20FDF735F849
:1033A00000211020FDF731F807211120FDF72DF83D
:1033B00000211220FDF729F800211320FDF725F840
:1033C00000210720FDF721F841F290611020FDF760
:1033D0001CF840F227211120FDF717F89D2112203B
:1033E000FDF713F84FF4C8511320FDF70EF825210F
:1033F0002920FDF70AF80D212B20FDF706F80721FB
:103400003020FDF702F840F203313120FCF7FDFFD8
:1034100003213220FCF7F9FF40F206213520FCF7AA
:10342000F4FF08213620FCF7F0FF40F20641372078
:10343000FCF7EBFF4FF44171382000E057E0FCF758
:10344000E4FF07213920FCF7E0FF40F202613C2055
:10345000FCF7DBFF08213D20FCF7D7FF00215020BF
:10346000FCF7D3FFEF215120FCF7CFFF00215220C2
:10347000FCF7CBFF40F23F115320FCF7C6FF4FF49F
:1034800027416020FCF7C1FF01216120FCF7BDFF4F
:1034900000216A20FCF7B9FF00218020FCF7B5FF6E
:1034A00000218120FCF7B1FF00218220FCF7ADFF55
:1034B00000218320FCF7A9FF00218420FCF7A5FF51
:1034C00000218520FCF7A1FF10219020FCF79DFF33
:1034D0004FF4C0619220FCF798FF40F233110720AF
:1034E000FCF793FF22210020FCF78FFF1FE78F4896
:1034F0008088A0F5134128397ED141F28F01EC205C
:10350000FCF783FF41F23421EF20FCF77EFF4FF4FC
:1035100080710120FCF779FF4FF4E0610220FCF795
:1035200074FF41F230010320FCF76FFF00210420FB
:10353000FCF76BFF40F202210820FCF766FF002138
:103540000920FCF762FF00210A20FCF75EFF012141
:103550000C20FCF75AFF00210D20FCF756FF00213C
:103560000F20FCF752FF00211020FCF74EFF07212F
:103570001120FCF74AFF00211220FCF746FF002132
:103580001320FCF742FF01210720FCF73EFF322009
:1035900003F041FD41F290411020FCF736FF40F26C
:1035A00027211120FCF731FF322003F034FD8A215E
:1035B0001220FCF72AFF322003F02DFD4FF4D051EA
:1035C0001320FCF722FF06212920FCF71EFF0D2106
:1035D0002B20FCF71AFF322003F01DFD00212020D4
:1035E000FCF713FF00212120FCF70FFF322003F02E
:1035F00012FD0021302000E074E0FCF706FF40F2ED
:1036000004613120FCF701FF40F205313220FCF764
:10361000FCFE00213520FCF7F8FE40F6094136207B
:10362000FCF7F3FE4FF401713720FCF7EEFE40F299
:1036300001313820FCF7E9FE40F207713920FCF730
:10364000E4FE00213C20FCF7E0FE40F60A213D208C
:10365000FCF7DBFE322003F0DEFC00215020FCF7FB
:10366000D4FEEF215120FCF7D0FE00215220FCF7C0
:10367000CCFE40F23F115320FCF7C7FE4FF4274128
:103680006020FCF7C2FE01216120FCF7BEFE002194
:103690006A20FCF7BAFE00218020FCF7B6FE00216C
:1036A0008120FCF7B2FE00218220FCF7AEFE002153
:1036B0008320FCF7AAFE00218420FCF7A6FE00214F
:1036C0008520FCF7A2FE10219020FCF79EFE4FF40F
:1036D000C0619220FCF799FE40F233110720FCF7FD
:1036E00094FE24E611488088A0F5134120397DD14D
:1036F0000846FCF78AFE4FF480710120FCF785FE36
:103700004FF4E0610220FCF780FE41F2300103201B
:10371000FCF77BFE00210420FCF777FE40F202213B
:103720000820FCF772FE0021092001E0540000206F
:10373000FCF76BFE00210A20FCF767FE01210C203C
:10374000FCF763FE00210D20FCF75FFE00210F2037
:10375000FCF75BFE322003F05EFC40F20111072013
:10376000FCF753FE322003F056FC4FF48651102034
:10377000FCF74BFE07211120FCF747FE4FF4887140
:103780001220FCF742FE4FF430611320FCF73DFE9F
:1037900000212920FCF739FE44F210012B20FCF710
:1037A00034FE00215020FCF730FEEF215120FCF7C1
:1037B0002CFE00215220FCF728FE40F23F1153203E
:1037C000FCF723FE4FF41C516020FCF71EFE012184
:1037D0006120FCF71AFE00216A20FCF716FE00218A
:1037E0008020FCF712FE0021812000E030E0FCF791
:1037F0000CFE00218220FCF708FE00218320FCF74C
:1038000004FE00218420FCF700FE00218520FCF747
:10381000FCFD10219020FCF7F8FD00219220FCF720
:10382000F4FD01219320FCF7F0FD4FF48871952001
:10383000FCF7EBFD00219720FCF7E7FD0021982025
:10384000FCF7E3FD40F273110720FCF7DEFD6EE5A7
:10385000FE488088A0F5134131397DD141F2140131
:10386000E720FCF7D2FD4FF480710120FCF7CDFD7D
:103870004FF400710220FCF7C8FD41F2380103202B
:10388000FCF7C3FD40F202210820FCF7BEFD002139
:103890000920FCF7BAFD00210A20FCF7B6FD002143
:1038A0000C20FCF7B2FD00210D20FCF7AEFD00213D
:1038B0000F20FCF7AAFD00211020FCF7A6FD072130
:1038C0001120FCF7A2FD00211220FCF79EFD002133
:1038D0001320FCF79AFDC82003F09DFB41F2906194
:1038E0001020FCF792FD40F227211120FCF78DFDFE
:1038F000322003F090FB0C211220FCF786FD3220D1
:1039000003F089FB4FF400611320FCF77EFD1121C9
:103910002920FCF77AFD0B212B20FCF776FD3220C5
:1039200003F079FB00212020FCF76FFD40F23F11EE
:103930002120FCF76AFD00213020FCF766FD4FF4E2
:1039400083713120FCF761FD00213220FCF75DFD21
:103950004FF40171352000E064E0FCF756FD41F2C0
:103960000A613620FCF751FD40F207713720FCF761
:103970004CFD4FF483713820FCF747FD40F207718E
:103980003920FCF742FD40F202413C20FCF73DFDAE
:1039900040F60F413D20FCF738FD00215020FCF798
:1039A00034FDEF215120FCF730FD00215220FCF7BF
:1039B0002CFD40F23F115320FCF727FD4FF41C5122
:1039C0006020FCF722FD01216120FCF71EFD002193
:1039D0006A20FCF71AFD00218020FCF716FD00216B
:1039E0008120FCF712FD00218220FCF70EFD002152
:1039F0008320FCF70AFD00218420FCF706FD00214E
:103A00008520FCF702FD10219020FCF7FEFC4FF40E
:103A1000C0619220FCF7F9FC40F233110720FCF75B
:103A2000F4FC84E489488088A0F5A84108397DD158
:103A30004FF480710120FCF7E8FC4FF4E0610220B4
:103A4000FCF7E3FC41F230010320FCF7DEFC00212F
:103A50000420FCF7DAFC40F207210820FCF7D5FC33
:103A600000210920FCF7D1FC00210A20FCF7CDFC45
:103A700000210C20FCF7C9FC00210D20FCF7C5FC3F
:103A800000210F20FCF7C1FC142003F0C4FA41F21E
:103A9000B0611020FCF7B9FC01211120FCF7B5FC46
:103AA00001211720FCF7B1FC4FF49C711220FCF7A8
:103AB000ACFC4FF400611320FCF7A7FC092129207E
:103AC000FCF7A3FC09212A20FCF79FFC0021A4207D
:103AD000FCF79BFC00215020FCF797FCEF215120C4
:103AE000FCF793FC00215220FCF78FFC40F23F11C1
:103AF0005320FCF78AFC4FF41C516020FCF785FC36
:103B000001216120FCF781FC00216A20FCF77DFC8B
:103B100000218020FCF779FC00218120FCF775FC56
:103B200000218220FCF771FC002100E024E08320CA
:103B3000FCF76BFC00218420FCF767FC002185204A
:103B4000FCF763FC13219020FCF75FFC002192201E
:103B5000FCF75BFC03219320FCF757FC4FF48871C2
:103B60009520FCF752FC40F273110720FCF74DFC46
:103B7000322003F050FAB9E434488088A0F5A85107
:103B8000053965D10720FCF740FC322003F043FAE9
:103B90004FF48E711220FCF738FC0121A420FCF7B1
:103BA00034FC0F210820FCF730FC08210A20FCF728
:103BB0002CFC08210D20FCF728FC40F20771302076
:103BC000FCF723FC07213120FCF71FFC40F20361C6
:103BD0003220FCF71AFC4FF4E0613320FCF715FCAF
:103BE00040F202213420FCF710FC02213520FCF7C2
:103BF0000CFC41F60F713620FCF707FC40F2077110
:103C00003720FCF702FC00213820FCF7FEFB0021E6
:103C10003920FCF7FAFB40F207713A20FCF7F5FB7C
:103C200000213B20FCF7F1FB07213C20FCF7EDFBDA
:103C300000213D20FCF7E9FB322003F0ECF90121E3
:103C40000720FCF7E2FB0121172002E054000020CE
:103C5000AEE0FCF7DAFB322003F0DDF94FF4BD51A2
:103C60001020FCF7D2FB40F217211120FCF7CDFB0E
:103C70004FF48F711220FCF7C8FB4FF470611320D2
:103C8000FCF7C3FB00212A20FCF7BFFB0A212920F7
:103C9000FCF7BBFB4FF49F711220FCF7B6FB002131
:103CA0005020FCF7B2FBEF215120FCF7AEFB0021C6
:103CB0005220FCF7AAFB40F23F115320FCF7A5FB72
:103CC0004FF41C516020FCF7A0FB01216120FCF7A0
:103CD0009CFB00216A20FCF798FB00218020FCF768
:103CE00094FB00218120FCF790FB00218220FCF74F
:103CF0008CFB00218320FCF788FB00218420FCF74B
:103D000084FB00218520FCF780FB13219020FCF729
:103D10007CFB4FF440719220FCF777FB0521932048
:103D2000FCF773FB00219520FCF76FFB0021972027
:103D3000FCF76BFB00219820FCF767FB4FF48071C8
:103D40000120FCF762FB4FF4E0610220FCF75DFB11
:103D500041F238010320FCF758FB00210420FCF756
:103D600054FB00210C20FCF750FB00210F20FCF736
:103D70004CFB00212020FCF748FB00212120FCF710
:103D800044FB21210720FCF740FB142003F043F9FA
:103D900061210720FCF739FB142003F03CF940F2C5
:103DA00073110720FCF731FB142003F034F998E479
:103DB000FE488088A0F5354105397DD10846FCF7DD
:103DC00024FB00210846FCF720FB00210846FCF7F5
:103DD0001CFB00210846FCF718FB0121A420FCF77E
:103DE00014FB142003F017F94FF41C516020FCF76A
:103DF0000CFB40F202210820FCF707FB4FF4057191
:103E00003020FCF702FB43F215713120FCF7FDFA7C
:103E100040F204613220FCF7F8FA40F616613320D4
:103E2000FCF7F3FA42F211213420FCF7EEFA4FF4DA
:103E3000A8513520FCF7E9FA48F207513620FCF783
:103E4000E4FA41F207413720FCF7DFFA41F203417F
:103E50003820FCF7DAFA20213920FCF7D6FA1A21AB
:103E60009020FCF7D2FA00211020FCF7CEFA0721AF
:103E70001120FCF7CAFA00211220FCF7C6FA002133
:103E80001320FCF7C2FA142003F0C5F84FF4E661E2
:103E90001020FCF7BAFA40F237111120FCF7B5FAFE
:103EA000142003F0B8F84FF4DC711220FCF7ADFADF
:103EB000142003F0B0F800E083E04FF470611320A9
:103EC000FCF7A3FA80212A20FCF79FFA4821292039
:103ED000FCF79BFA142003F09EF84FF48071012048
:103EE000FCF793FA4FF4E0610220FCF78EFA41F2FE
:103EF00038010320FCF789FA40F202210820FCF780
:103F000084FA00210A20FCF780FA00210C20FCF73B
:103F10007CFA00210D20FCF778FA30210E20FCF706
:103F200074FA00215020FCF770FAEF215120FCF7C1
:103F30006CFA00215220FCF768FA40F23F1153203E
:103F4000FCF763FA4FF41C516020FCF75EFA012184
:103F50006120FCF75AFA00216A20FCF756FA112179
:103F60009020FCF752FA4FF4C0619220FCF74DFA12
:103F700040F202419320FCF748FA02219420FCF71A
:103F800044FA142003F047F801210720FCF73DFA1A
:103F9000142003F040F861210720FCF736FA40F2C4
:103FA00073110720FCF731FA00212020FCF72DFACD
:103FB00000212120FCF729FA22210020FCF725FA14
:103FC00012E37A488088A0F5454105397DD108463D
:103FD000FCF71BFA00210846FCF717FA142003F03F
:103FE0001AF800210846FCF710FA00210846FCF7F1
:103FF0000CFA00210846FCF708FA00210846FCF7F5
:1040000004FA0121A420FCF700FA142003F003F8BD
:104010004FF41C516020FCF7F8F940F60601082027
:10402000FCF7F3F940F203713020FCF7EEF90121BF
:104030003120FCF7EAF904213220FCF7E6F94FF4CD
:1040400081713320FCF7E1F94FF440713420FCF723
:10405000DCF940F203113520FCF7D7F91F21362097
:10406000FCF7D3F940F203713720FCF7CEF90121B8
:104070003820FCF7CAF904213920FCF7C6F91521CC
:104080009020FCF7C2F94FF482611020FCF7BDF9D3
:1040900040F247211120FCF7B8F94FF4DE711220ED
:1040A000FCF7B3F94FF460611320FCF7AEF9782008
:1040B00002F0B1FF4FF480710120FCF7A6F94FF434
:1040C00000710220FCF7A1F900E050E041F230015C
:1040D0000320FCF79AF908210A20FCF796F9002141
:1040E0000C20FCF792F920210E20FCF78EF900211C
:1040F0000F20FCF78AF900212020FCF786F9002127
:104100002120FCF782F93D212A20FCF77EF91420BA
:1041100002F081FF2D212920FCF777F900215020A2
:10412000FCF773F94DF2EF015120FCF76EF9002115
:104130005220FCF76AF940F23F115320FCF765F971
:1041400000216120FCF761F900216A20FCF75DF98C
:104150004FF440719220FCF758F905219320FCF7A9
:1041600054F94FF480710720FCF74FF93CE20F48F7
:104170008088A0F5094189397ED101210020FCF712
:1041800044F94AF6A4010320FCF73FF900210C2072
:10419000FCF73BF940F60C010D20FCF736F94FF423
:1041A0002C510E20FCF731F9B02101E05400002021
:1041B0001E20FCF72AF942F63F310120FCF725F9D1
:1041C0004FF4C0610220FCF720F900211020FCF719
:1041D0001CF946F278011120FCF717F9002105209F
:1041E000FCF713F900210620FCF70FF94EF61C71BD
:1041F0001620FCF70AF903211720FCF706F940F214
:1042000033210720FCF701F900210B20FCF7FDF812
:1042100000210F20FCF7F9F800214120FCF7F5F808
:1042200000214220FCF7F1F800214820FCF7EDF8CE
:1042300040F23F114920FCF7E8F800214A20FCF742
:10424000E4F800214B20FCF7E0F84FF46F414420E4
:10425000FCF7DBF800214520FCF7D7F840F23F11CE
:104260004620FCF7D2F840F207713020FCF7CDF879
:104270004FF40171312000E03FE0FCF7C6F84FF445
:1042800001713220FCF7C1F840F202513320FCF7F3
:10429000BCF840F207513420FCF7B7F84FF4017135
:1042A0003520FCF7B2F84FF401713620FCF7ADF879
:1042B00040F202513720FCF7A8F840F202313A20D0
:1042C000FCF7A3F840F202313B20FCF79EF80021F6
:1042D0002320FCF79AF800212420FCF796F84FF4ED
:1042E00000412520FCF791F800214F20FCF78DF8C4
:1042F00000214E20FCF789F876E1F8488088A0F587
:104300008A4131397ED101210020FCF77EF80A2054
:1043100002F081FE41F228611020FCF776F80E21B0
:104320001220FCF772F840F639211320FCF76DF8E3
:104330000A2002F070FE40211120FCF766F850219F
:104340001520FCF762F80A2002F065FE1E211220FB
:10435000FCF75BF80A2002F05EFE4FF4B15110202A
:10436000FCF753F842F639211320FCF74EF80A20E7
:1043700002F051FE4FF480710120FCF746F84FF433
:1043800040710220FCF741F841F238010320FCF7AC
:104390003CF840F202210820FCF737F808210A20F7
:1043A000FCF733F800213020FCF72FF840F20241EF
:1043B0003120FCF72AF84FF483713220FCF725F8FE
:1043C00040F203513320FCF720F84FF4827134207F
:1043D000FCF71BF840F201313520FCF716F840F2EB
:1043E00007713620FCF711F840F205313720FCF751
:1043F0000CF84FF402713820FCF707F840F60B7107
:10440000392000E03BE0FCF700F802214120FBF7F7
:10441000FCFF4FF41C516020FBF7F7FF01216120E6
:10442000FBF7F3FF4FF404719020FBF7EEFF4FF41E
:1044300085719220FBF7E9FF04219320FBF7E5FF4C
:104440004FF48071A020FBF7E0FF01210720FBF76C
:10445000DCFF21210720FBF7D8FF23210720FBF7F2
:10446000D4FF33210720FBF7D0FF40F233110720A0
:10447000FBF7CBFF0021A020FBF7C7FFB4E0974874
:104480008088A0F58A413539F8D130211520FBF715
:10449000BCFF10219A20FBF7B8FF20211120FBF769
:1044A000B4FF43F228411020FBF7AFFF0221122096
:1044B000FBF7ABFF41F238011320FBF7A6FF2820E2
:1044C00002F0A9FD12210846FBF79FFF282002F009
:1044D000A2FD43F220411020FBF797FF43F2380181
:1044E0001320FBF792FF462002F095FD00213020BB
:1044F000FBF78BFF40F202413120FBF786FF40F2D1
:1045000007313220FBF781FF4FF441713320FBF775
:104510007CFF04213420FBF778FF40F20141352075
:10452000FBF773FF40F207713620FBF76EFF40F296
:1045300005313720FBF769FF4FF4C2613820FBF7E4
:1045400064FF4FF4C2613920FBF75FFF4FF48071C5
:104550000120FBF75AFF4FF440710220FBF755FF93
:1045600041F230010320FBF750FF40F6080108201C
:10457000FBF74BFF08210A20FBF747FF4FF41C51C4
:104580006020FBF742FF01216120FBF73EFF4FF463
:104590009F719020FBF739FF4FF480719220FBF759
:1045A00034FF4FF480719320FBF72FFF4FF44051FD
:1045B000A020FBF72AFF1021A320FBF726FF0121F3
:1045C0000720FBF722FF21210720FBF71EFF2321F5
:1045D0000720FBF71AFF33210720FBF716FF40F2F5
:1045E00033110720FBF711FF0020FCF7BFFA012071
:1045F0003B4908604FF6FF70FCF763FC1FB000BD3D
:104600002DE9FC4F05460E4617469846DDF82C90DE
:104610000020019031488088A0F5D041043929D18B
:104620002E488079012825D1AB4635462B48008895
:10463000C01B401E86B2474628480088A0EB0B00EE
:10464000401E1FFA80F80020244988712A204881E2
:104650002B20888143463A4631462846CDF80090C3
:10466000FFF7CEFF01201D4988712B2048812A20A9
:1046700088811CE0781B401C80B20190344614E015
:1046800021462846FBF7EEFEFBF7CFFE4FF0000A6F
:1046900006E04846FBF7B1FE0AF101001FFA80FA76
:1046A00001988245F5DB601C84B24445E8DDBDE835
:1046B000FC8F2DE9F84F07460D4690469946DDF8E8
:1046C00028B0A8EB0700401C80B20090A9EB0500C1
:1046D000401C1FFA80FA00241AE000005400002059
:1046E00080812142281981B23846FBF7BBFEFBF7D7
:1046F0009CFE002607E004FB0A603BF81000C3495B
:104700000880701C86B200988642F4DB601C84B27C
:104710005445E7DBBDE8F88F2DE9FF4F84B08146B3
:104720008A460020039002900698A0EB090507989E
:10473000A0EB0A06CDF80490CDF800A0002D01DD15
:10474000012705E00DB9002702E04FF0FF376D4269
:10475000002E02DD4FF0010806E016B94FF0000808
:1047600002E04FF0FF387642B54201DD2C4600E012
:1047700034464FF0000B21E0009881B2019880B2DE
:10478000FCF75BF9039828440390029830440290A8
:104790000398A04205DD0398001B0390019838445C
:1047A00001900298A04205DD0298001B029000983B
:1047B000404400900BF101001FFA80FB601C834510
:1047C000DADD08B0BDE8F08FF0B504460D461646B8
:1047D0001F462B46324629462046FFF79DFF3B46A3
:1047E000224629462046FFF797FF3B463246394688
:1047F0002046FFF791FF3B46324629463046FFF7F9
:104800008BFFF0BD2DE9F04306460F46904600248D
:1048100045460320A0EB48093CE07A1B91B23219CF
:1048200090B2FCF70AF93A1B91B2721990B2FCF7F8
:1048300004F93A1991B2721990B2FCF7FEF87A199C
:1048400091B2321990B2FCF7F8F87A1991B2321B92
:1048500090B2FCF7F2F83A1991B2721B90B2FCF7E1
:10486000ECF87A1B91B2321B90B2FCF7E6F83A1BD7
:1048700091B2721B90B2FCF7E0F8641CB9F1000F22
:1048800003DAA000801D814404E0601B80000A3030
:1048900081446D1EAC42C0DDBDE8F08310B5024618
:1048A000012000E050430B00A1F10104E1B2F9D175
:1048B00010BD0FB42DE9F04F95B093460026DDF8FA
:1048C00078A01F98019023A8149003A8149A229905
:1048D00002F094FCC0B20290002014908DE003A876
:1048E000805D00F0FF0903A9701C085C1390B9F10A
:1048F000800F2CDC1823102250460199FCF70FFA88
:10490000FBF793FD00241BE0A9F1200000EB400021
:1049100004EB00103E490D5C00270DE015F0800F00
:1049200003D03A48A0F800B002E038492198088046
:104930006806050E781CC7B2082FEFDB601CC4B2F6
:10494000302CE1DB0AF110001FFA80FA4DE04FF045
:10495000000817E008EB880000EB48102D4911F81B
:10496000100048450AD108EB880000EB481001EB25
:10497000400041781398814200D106E008F101001F
:104980001FFA80F8B8F1050FE4D300BF18231A46C8
:1049900050460199FCF7C3F9FBF747FD00241CE0E2
:1049A00008EB880000EB48101A4901EB4000801C1E
:1049B000055D00270DE015F0800F03D01348A0F827
:1049C00000B002E01149219808806806050E781CA5
:1049D000C7B2082FEFDB601CC4B2482CE0DB0AF141
:1049E00018001FFA80FA701CC6B20B4800885045A8
:1049F00001DC4FF0000A701CC6B202988642FFF636
:104A00006EAF15B0BDE8F00F5DF814FB0008006C48
:104A1000688F000868A100085400002030B589B0F4
:104A200005460C460121082001F085F901210420EA
:104A300001F074F90120ADF8200028208DF8230042
:104A400008A9DD4800F0B6FE0121DB4800F05FFF59
:104A5000ADF81850ADF814400020ADF81A00ADF8CC
:104A6000160005A9D54801F095FA0020ADF804001C
:104A7000ADF806000120ADF808000020ADF80A00EE
:104A8000ADF80C0001A9CD4801F0F6FC32208DF8FC
:104A9000100002208DF8110000208DF81200012076
:104AA0008DF8130004A800F0B0FA01220321C348D6
:104AB00001F0C5FD0121C14801F09CFD09B030BDE8
:104AC00010B5BF48007810F0800F58D10121BB48C5
:104AD00002F04FF8B0B1BA48007810F0400F11D092
:104AE000B748007800F03F003F2806D18020B44945
:104AF00008700020B349086004E0B1480078401C09
:104B0000AF4908700221AD4802F033F858B3AC4801
:104B1000007810F0400F27D0A84802F00BF8AA49FF
:104B2000088008460088A949098888420BDDA44806
:104B30000078402807D1A4480088A4490988401A71
:104B4000A049086009E0A14800884FF6FF71081AE3
:104B50009D49098808449B4908609948007840F0BD
:104B60008000974908700AE0944801F0E3FF9749F4
:104B70000880002093490860402091490870032173
:104B80008E4802F007F810BD2DE9F0474FF00008FD
:104B90008B48007810F0800F53D08D480078401C6F
:104BA0008B4908708B480078401C8A4908708848F7
:104BB00000780A2802DB00208549087080480078C8
:104BC00000F03F084FEA0848B8F5803F03D87D4819
:104BD000D0F8008005E0A8F580307A49096800EB3C
:104BE00001087D487A49097840F821804FF0000893
:104BF000784800780A281EDBC14607E0764850F85E
:104C00002900804409F1010000F0FF09B9F10A0F01
:104C1000F4DB404603F08CFF044622460B4600209E
:104C20006E4903F02DFE064603F0ECFD6C4908606A
:104C30000A206849087000206149087069490860C5
:104C400016E068480068401C66490860084600682D
:104C5000654988420CD965496148006804F06EF8DE
:104C60005F49086001206249087000205D490860C2
:104C7000BDE8F0872DE9FF415948D0F80080404653
:104C800004F030F8044600225A4B03F0F5FF14D22A
:104C9000404604F027F806460022574B03F0F0FD8B
:104CA000CDE9020155A00090574803884FF478429F
:104CB0001E215920FFF7FDFD79E0404604F012F86F
:104CC000044600224C4B03F0D7FF1DD2404604F0AF
:104CD00009F804460022474B03F03EFF14D2404639
:104CE00004F000F804460022434B03F0C9FDCDE96F
:104CF000020146A00090444803884FF478421E21E8
:104D00005920FFF7D6FD52E0404603F0EBFF044682
:104D10000022394B03F020FF18D2404603F0E2FF97
:104D2000044600223C4B03F0A7FF0FD2404603F09D
:104D3000D9FFCDE9020139A00090334803884FF430
:104D400078421E215920FFF7B4FD30E0404603F0C1
:104D5000C9FF04460022304B03F0FEFE18D2404645
:104D600003F0C0FF044600222F4B03F085FF0FD253
:104D7000404603F0B7FFCDE902012CA00090224885
:104D800003884FF478421E215920FFF792FD0EE070
:104D9000404603F0A7FFCDE9020127A000901A4882
:104DA00003884FF478421E215920FFF782FD00202E
:104DB0000F490870BDE8FF8100080140000C004069
:104DC00004000020180000201E0000201C0000200D
:104DD000140000201500002064000020D012634160
:104DE000080000201000002080FC0A000000204184
:104DF000160000200088C34000408F4025352E3229
:104E000066204B487A0000000200002025352E3332
:104E100066204B487A0000000000594025352E31AD
:104E20006620487A200000000000244025352E32FC
:104E30006620487A2000000025352E336620487A07
:104E40002000000000210020654A126842F48032F0
:104E5000634B1A6000BF624A126802F40030491CBA
:104E600010B9B1F5A06FF6D15D4A126812F4003F97
:104E700001D0012000E00020012842D1594A1268E7
:104E800042F01002574B1A601A46126822F00302D1
:104E90001A601A46126842F002021A60504A5268BA
:104EA0004F4B5A601A4652685A601A46526842F48A
:104EB00080625A601A46526822F47C125A601A467E
:104EC000526842F4E8125A601A46126842F0807240
:104ED0001A6000BF424A126812F0007FFAD0404ABE
:104EE000526822F003023E4B5A601A46526842F062
:104EF00002025A6000BF3A4A526802F00C02082AC5
:104F0000F9D1704710B5FFF79DFF10BD10B53448BB
:104F1000006840F0010032490860084640683249A4
:104F200008402F49486008460068304908402C492D
:104F300008600846006820F4802008600846406841
:104F400020F4FE0048604FF41F008860FFF7DAFF8E
:104F500010BD10B5002100200022214B5B6803F03A
:104F60000C0121B1042906D0082928D107E0204BE3
:104F7000204C236027E01E4B1E4C236023E0184B7F
:104F80005B6803F47010164B5B6803F480320223F5
:104F900003EB904022B9184B4343164C23600DE0BD
:104FA0000F4B5B6813F4003F04D0134B4343114C89
:104FB000236003E00E4B43430E4C236003E00C4B95
:104FC0000C4C236000BF00BF054B5B68C3F30313A9
:104FD0000A4CE15C074B1B68CB40064C236010BDBC
:104FE00000100240002002400000FFF8FFFFF6FE24
:104FF00000127A002000002000093D00240000205B
:1050000031490143314A1160704770B500210023D6
:105010000F22C4780CB32D4C246804F4E064C4F56A
:10502000E064210AC1F10403CA40447804FA03F1A0
:105030008478144021430901254C0678A155047851
:1050400004F01F050124AC4005786D114FF0E026F7
:1050500006EB8505C5F8004109E0047804F01F055A
:105060000124AC401B4D0678761145F8264070BDF2
:10507000194A0A400243154B1B1F1A60704739B189
:10508000124A121D12680243104B1B1D1A6006E0E3
:105090000E4A121D126882430C4B1B1D1A6070478A
:1050A000042808D14FF0E021096941F004014FF0D4
:1050B000E022116107E04FF0E021096921F00401CD
:1050C0004FF0E022116170470000FA050CED00E09E
:1050D00000E400E080E100E080FFFF1F30B943F210
:1050E000DB014FF0204242F8201005E043F2D201EC
:1050F0004FF0204242F820106FF07042411C4FF0F8
:10510000204343F8212011461A4602EB8002C2F8E0
:105110000411704710280AD118214FF0204211665F
:10512000402151664FF0FC319166D16610E01821A4
:10513000F84A11604FF040014FF02042C2F884104D
:105140004FF0FC31F44A11604FF02042C2F88C104D
:1051500070471820F14908604FF000004FF02041DF
:10516000C1F8A4004FF0FC30ED49086001F10401E2
:10517000086001F1040108607047D0E90112114391
:10518000C2681143026911434269114382691143A4
:10519000C2691143026A1143426A1143826A114390
:1051A000C26A1143026B11434FF02043026843F877
:1051B00022108168082908D11A46016852F8211086
:1051C00041F04001026843F82210416B0968426BCC
:1051D000526841EA0211426B926841EA0221426B35
:1051E000D26841EA0241426B126941EA0251426BC4
:1051F000526941EA0261426B926911430268521C92
:105200004FF0204343F82210C16AB1F5804F1AD104
:10521000816B0968826B526841EA0211826B926865
:1052200041EA0221826B126941EA0251826B5269A2
:1052300041EA0261826B92691143026803EB8202C8
:10524000C2F8041108E06FF070414FF0204302688B
:1052500003EB8202C2F80411704730B5002100222E
:105260000023446844F0080485682C43C5682C4337
:1052700005692C43456944EA4524856944EA45317A
:10528000C4692468C5696D6844EA0524C569AD68C8
:1052900044EA0544C569ED6844EA0562046A246885
:1052A000056A6D6844EA0524056AAD6844EA054468
:1052B000056AED6844EA05630468102C05D14FF0D7
:1052C00020442166A266E36607E0924C21604FF01D
:1052D0002044C4F88820934C236030BD016841F01D
:1052E0001001426841EA4221826841EA42318B4A18
:1052F0001160C1680968C268526841EA0221C26847
:10530000926841EA0241C268D26841EA0261844A75
:105310001160016909680269526841EA0221026963
:10532000926841EA02410269D26841EA02617E4A1A
:105330001160416909684269526841EA0221426983
:10534000926841EA02414269D26841EA02614FF043
:105350002042C2F8B0107047002101600221416074
:1053600000218160C160016141618161C1610162AF
:105370004FF480514162490081620021C1620163A2
:105380000F21426B1160426B5160FF21426B9160B3
:105390000F21426BD160426B1161426B5161002160
:1053A000426B91610F21826B1160826B5160FF2112
:1053B000826B91600F21826BD160826B1161826B75
:1053C00051610021826B91617047102101600021C1
:1053D00041608160C160016141618161FC21C269FC
:1053E0001160C2695160C2699160C269D160026A8C
:1053F0001160026A5160026A9160026AD16070476E
:105400000021016041608160FC21C2681160C268B6
:105410005160C2689160C268D1600269116002691E
:105420005160026991600269D1604269116042690C
:105430005160426991604269D160704751B14FF04B
:10544000204252F8202042F001024FF0204343F85E
:10545000202009E04FF0204252F82020334B1A4020
:105460004FF0204343F82020704799B1102808D10D
:105470004FF02042126E42F004024FF020431A66B1
:105480001DE0244A126842F004024FF02043C3F8A2
:10549000802014E0102809D14FF02042126E234BD7
:1054A000DB1E1A404FF020431A6608E0194A1268C2
:1054B0001F4B02EA03024FF02043C3F880207047DD
:1054C00040B11649096841F004014FF02042C2F88A
:1054D000A01008E011490968154A01EA02014FF0DD
:1054E0002042C2F8A010704799B1102808D14FF09F
:1054F0002042126E42F040024FF020431A662DE027
:10550000044A126842F040024FF02043C3F8802062
:1055100024E00FE0800000A0880000A0A00000A010
:10552000A80000A08C0000A0AC0000A0FEFF0F00AF
:10553000FBFF0F00102808D14FF02042126E684B7D
:105540001A404FF020431A6608E0664A1268644B1E
:1055500002EA03024FF02043C3F88020704701465F
:105560000020102903D14FF02042506F01E05E4A25
:105570001068704710B5F2B1102807D14FF02043E2
:105580005B6E0B434FF02044636632E0B0F5807FE2
:1055900008D1564B1B6843EA01034FF02044C4F87E
:1055A000843026E0524B1B6843EA01034FF020444D
:1055B000C4F8A4301DE0102807D14FF020435B6EE3
:1055C0008B434FF02044636613E0B0F5807F08D131
:1055D000464B1B6823EA01034FF02044C4F8843093
:1055E00007E0434B1B6823EA01034FF02044C4F853
:1055F000A43010BD10B5024600200023102A03D1AC
:105600004FF02044636E07E0B2F5807F02D1374C43
:10561000236801E0364C23680B4201D0012000E0F2
:10562000002010BD102807D14FF02042526E8A434F
:105630004FF020435A6613E0B0F5807F08D12B4A23
:10564000126822EA01024FF02043C3F8842007E0E9
:10565000274A126822EA01024FF02043C3F8A4202F
:10566000704770B502460020002300240025102A50
:1056700003D14FF02046736E07E0B2F5807F02D170
:105680001A4E336801E01A4E336803EA010403EA54
:10569000D10514B10DB1012000E0002070BD10282B
:1056A00008D14FF02042526E22EAD1024FF020433F
:1056B0005A6613E0B0F5807F08D10C4A126822EADE
:1056C000D1024FF02043C3F8842007E0084A126853
:1056D00022EAD1024FF02043C3F8A4207047000013
:1056E000BFFF0F00800000A0940000A0840000A075
:1056F000A40000A010B50446CA48844208D1012184
:10570000042000F025FB0021042000F021FB46E0EE
:10571000C548844208D10121082000F019FB00216E
:10572000082000F015FB3AE0C048844208D101216E
:10573000102000F00DFB0021102000F009FB2EE0EE
:10574000BB48844208D10121202000F001FB002148
:10575000202000F0FDFA22E0B648844208D1012161
:10576000402000F0F5FA0021402000F0F1FA16E0A8
:10577000B148844208D10121802000F0E9FA0021DB
:10578000802000F0E5FA0AE0AC48844207D101210C
:10579000801500F0DDFA0021A01500F0D9FA10BD47
:1057A00010B50121084600F0D3FA0021012000F0D5
:1057B000CFFA10BD2DE9F041024600250026002059
:1057C00000230024002791F803C00CF00F0591F886
:1057D00003C01CF0100F03D091F802C04CEA05057D
:1057E000B1F800C01CF0FF0F31D0146800202BE08E
:1057F0004FF0010C0CFA00F3B1F800C00CEA0306FC
:105800009E4220D183004FF00F0C0CFA03F7BC43EB
:1058100005FA03FC4CEA040491F803C0BCF1280F1C
:1058200006D14FF0010C0CFA00FCC2F814C00AE0DB
:1058300091F803C0BCF1480F05D14FF0010C0CFAF0
:1058400000FCC2F810C0401C0828D1D31460B1F885
:1058500000C0BCF1FF0F34DD546800202EE000F1E1
:10586000080C4FF0010808FA0CF3B1F800C00CEA7C
:1058700003069E4221D183004FF00F0C0CFA03F770
:10588000BC4305FA03FC4CEA040491F803C0BCF1E4
:10589000280F05D100F1080C08FA0CF8C2F81480A2
:1058A00091F803C0BCF1480F07D100F1080C4FF08C
:1058B000010808FA0CF8C2F81080401C0828CED362
:1058C0005460BDE8F0814FF6FF71018002218170C4
:1058D0000421C17070470246002093680B4201D03A
:1058E000012000E0002070470146886880B27047C0
:1058F00002460020D3680B4201D0012000E00020C6
:1059000070470146C86880B27047016170474161C5
:1059100070470AB1016100E041617047C1607047A2
:105920004FF480320A4382618161826182698269B7
:10593000704702460020424B18684FF680731840AB
:1059400040EA021008433E4B186070473D49C86169
:105950007047F0B50A46002300240021002500F01E
:105960000046B6F1004F02D1354EF16901E0344EE8
:105970007168C0F3034583B200F44016B6F5401FCA
:1059800008D121F070612E4E766826F070662C4F9B
:105990007E6012E000F48016B6F5801F06D1032663
:1059A00006FA05F4A14341F0706106E0460D3601A8
:1059B00003FA06F6B14341F0706122B1460D36019B
:1059C00003FA06F6314300F00046B6F1004F02D16B
:1059D0001B4EF16101E01A4E7160F0BD30B500223E
:1059E0008B071C0F0F2303FA04F2154B08338C109E
:1059F00053F824309343124C08348D1044F825306A
:105A000023468C1053F824308C07240F00FA04F43A
:105A100023430B4C08348D1044F8253030BD0A491F
:105A20000860704700080140000C01400010014070
:105A30000014014000180140001C014000200140FA
:105A40000000014000002042DC002042DC480068E9
:105A500040F00100DA49086008464068D94908402A
:105A6000D749486008460068D7490840D4490860CB
:105A70000846006820F4802008600846406820F44A
:105A8000FE0048604FF41F0088607047CC490968E9
:105A900021F48031CA4A11601146096821F480213D
:105AA0001160B0F5803F03D0B0F5802F0ED106E035
:105AB000C349096841F48031C14A116007E0C04917
:105AC000096841F4A021BE4A116000E000BF00BF98
:105AD000704710B501460022002300204A11012A18
