:020000040800F2
:10000000500E002049080008A9050008AB050008AB
:10001000AF050008B3050008B705000800000000A0
:10002000000000000000000000000000BB05000808
:10003000BD05000800000000BF050008C10500085C
:1000400063080008630800086308000863080008E4
:1000500063080008630800086308000863080008D4
:1000600063080008630800086308000863080008C4
:1000700063080008630800086308000863080008B4
:1000800063080008630800086308000863080008A4
:100090006308000863080008630800086308000894
:1000A0006308000863080008630800086308000884
:1000B0006308000863080008630800086308000874
:1000C0006308000863080008630800086308000864
:1000D0006308000863280008630800086308000834
:1000E0006308000863080008630800086308000844
:1000F0006308000863080008630800086308000834
:1001000063080008630800089D29000863080008C8
:100110006308000863080008630800086308000813
:100120006308000863080008630800086308000803
:1001300000F002F800F05AF80AA090E8000C82449F
:100140008344AAF10107DA4501D100F04FF8AFF27C
:10015000090EBAE80F0013F0010F18BFFB1A43F0A5
:1001600001031847EC4100000C4200000A444FF024
:10017000000C10F8013B13F0070408BF10F8014B06
:100180001D1108BF10F8015B641E05D010F8016B4B
:10019000641E01F8016BF9D113F0080F1EBF10F8AF
:1001A000014BAD1C0C1B09D16D1E58BF01F801CBD2
:1001B000FAD505E014F8016B01F8016B6D1EF9D555
:1001C0009142D6D37047000000230024002500266A
:1001D000103A28BF78C1FBD8520728BF30C148BFAA
:1001E0000B6070471FB51FBD10B510BD03F0CDFBF0
:1001F0001146FFF7F7FF00F0DAF803F0EBFB03B46A
:10020000FFF7F2FF03BC02F0D1FA00002DE9F0473E
:1002100000264FF00A084FF6FF70AC4908604FF413
:100220007840AB490860ABA214210A2003F08BF898
:10023000ACA232210A2003F086F8ADA23221692057
:1002400003F081F8AB49AC4803F021F90223A94837
:1002500002783221552003F014F803F04FFAA74931
:10026000086000BFA6A214216E2003F06CF8A3481A
:1002700000680A21B0FBF1F902234A4614217D20CF
:1002800002F0FFFF9FA21421912003F05CF89B482D
:1002900000680A21B0FBF1F201FB120902234A4671
:1002A0001421932002F0EDFF03F0D9FA824696A2C2
:1002B0006E210A2003F047F8032352466E215F2087
:1002C00002F0DFFF03F03BFB0546282D00D2352569
:1002D00090A250210A2003F036F890A250215F200E
:1002E00003F031F8322002F034FA03232A46502179
:1002F000412002F0C6FF002708E0894800F058FCC2
:100300000644052002F025FA781CC7B24745F4D30D
:10031000B6FBF8F64FF47A70704340F6FF71B0FB0D
:10032000F1F000F10A04B4F57A7F01D94FF47A7440
:10033000C82C02D901207B4908707BA28C210A209D
:1003400003F001F8042322468C216E2002F099FF6D
:1003500079A28C21962002F0F6FFBDE8F08710B557
:1003600076A2AA21282002F0EEFF10BD10B579A2D6
:10037000AA21282002F0E7FF10BD10B57BA2AA2118
:10038000282002F0E0FF10BD08B50121402001F057
:100390002DF80220ADF8000010208DF80300032096
:1003A0008DF802006946774800F064FD08BDFFF74C
:1003B000EBFF03F077FA00F0F5F94FF4E13002F0CB
:1003C00004FA4FF4A06000F05FFA02F085F902F041
:1003D0008DFA02F05EFC4FF6FF7002F095FD4FF6CD
:1003E000FF703A4908604FF478403949086003F0DB
:1003F0007AF803F066F903F0CDF9FFF707FF64E040
:10040000FFF704FF02F08AFB5F4908700846007896
:1004100000282FD008460078622816D0A22802D0E3
:10042000E22825D117E002F034FC4FF6FF7002F00D
:100430006BFDFFF7EBFE03E002F070FB5249087022
:1004400051480078A228F7D013E04FF400714F48CC
:1004500000F0BFFD0DE002214A4800F0BAFD002087
:10046000304908704AA2AA21282002F06CFF00E05F
:1004700000BF00BF0121434800F08FFD28B90221D1
:10048000404800F0A4FDFFF771FF04213D4800F053
:1004900084FD28B102213B4800F099FDFFF75FFF82
:1004A00003F02CF9B0F5877F05DD0221354800F017
:1004B0008EFDFFF754FF1B480078012805D102216B
:1004C000304800F084FDFFF758FF99E71C07002033
:1004D0002007002074656D70657261747572653AED
:1004E0000000000068756D69646974793A00000065
:1004F0002500000009000020080000200400002062
:10050000200000002E0000004272696768746E656A
:1005100073733A00536F756E643A000064420000D2
:100520000028014001000020416972207175616C52
:100530006974793A0000000070706D004669726558
:10054000205761726E696E672020202020202020B5
:1005500020202000476173204C65616B2057617239
:100560006E696E67202020202020200044656C6585
:10057000746572696F757320476173205761726E7D
:10058000696E67000018014000000020001401405F
:10059000202020202020202020202020202020205B
:1005A0002020202020202000704700BFFEE700BF51
:1005B000FEE700BFFEE700BFFEE7704770477047E9
:1005C000704700000CB50020019000906C48006856
:1005D00040F480306A49086000BF6948006800F450
:1005E000003000900198401C0190009818B90198C3
:1005F000B0F5A06FF1D16248006800F4003010B18E
:100600000120009001E0002000900098012843D1D3
:100610005C48006840F010005A49086008460068CD
:1006200020F0030008600846006840F002000860FF
:100630005348406852494860084640684860084648
:10064000406840F4806048600846406820F47C10B0
:1006500048600846406840F4E81048600846006872
:1006600040F08070086000BF4548006800F00070EE
:100670000028F9D04248406820F003004049486013
:100680000846406840F00200486000BF3C484068AF
:1006900000F00C000828F9D10CBD10B5FFF792FF4F
:1006A00010BD10B53648006840F0010034490860BC
:1006B00008464068344908403149486008460068A7
:1006C000324908402E4908600846006820F480201E
:1006D00008600846406820F4FE0048604FF41F00A0
:1006E0008860FFF7DAFF4FF000602949086010BD0D
:1006F00010B5002100200022214B5B6803F00C01A3
:1007000021B1042906D0082928D107E0214B224C29
:10071000236027E01F4B204C236023E0184B5B68CD
:1007200003F47010164B5B6803F48032022303EB72
:10073000904022B9194B4343174C23600DE0104BF6
:100740005B6803F4003323B1144B4343124C236022
:1007500003E0104B4343104C236003E00D4B0E4C61
:10076000236000BF00BF064B5B68C3F303130C4C50
:10077000E15C094B1B68CB40074C236010BD0000B7
:1007800000100240002002400000FFF8FFFFF6FECC
:1007900008ED00E000127A001C00002000093D0076
:1007A0002000002000B587B00121880200F01EFE65
:1007B0000121102000F01AFE0120ADF818000020E1
:1007C0008DF81B0006A91E4800F054FB4FF4804032
:1007D00000F070FD0020019001208DF808008DF8D8
:1007E00009004FF4602003900020049001208DF850
:1007F000140001A9134800F0DCF8052301220A21A6
:10080000104800F06EF901210E4800F0FEF80D4886
:1008100000F01DF900BF0B4800F01EF90028FAD1C6
:10082000084800F023F900BF064800F024F900282A
:10083000FAD10121034800F028F907B000BD0000FB
:10084000001001400028014009488047094800473E
:10085000FEE7FEE7FEE7FEE7FEE7FEE7FEE7FEE770
:10086000FEE7FEE704480549054A064B70470000CD
:10087000A30600083101000850080020500E002097
:10088000500A0020500A002031490143314A1160CA
:10089000704770B5002100230F22C47804B32D4C9B
:1008A000246804F4E064C4F5E064210AC1F104039F
:1008B000CA40447804FA03F18478144021430901C2
:1008C000254C0678A155047804F01F050124AC409E
:1008D00005786D11AD0005F1E025C5F8004109E08E
:1008E000047804F01F050124AC401C4D06787611F5
:1008F00045F8264070BD1A4A0A400243154B1B1F9B
:100900001A60704739B1134A121D12680243114B25
:100910001B1D1A6006E00F4A121D126882430D4B20
:100920001B1D1A607047042808D14FF0E0210969A7
:1009300041F004014FF0E022116107E04FF0E021A7
:10094000096921F004014FF0E022116170470000B5
:100950000000FA050CED00E000E400E080E100E0BA
:1009600080FFFF1F10B50446FA48844208D10121D8
:10097000401500F055FD0021601500F051FD17E015
:10098000F548844208D10121001500F049FD0021FD
:10099000201500F045FD0BE0F048844208D101210C
:1009A000C80300F03DFD00214FF4004000F038FD89
:1009B00010BD30B50246002000235068E84C2040AE
:1009C0000D790C6844EA0524204350609068E54C9A
:1009D0002040D1E902542C434D7944EA4504204398
:1009E0009060D06A20F470000C7C641EE4B2234353
:1009F00040EA0350D06230BD0021016001714171B5
:100A00008160C16001210174704721B1826842F0A8
:100A10000102826003E0826822F001028260704776
:100A200021B1826842F48072826003E0826822F41D
:100A300080728260704710B50023CBB21AB144684F
:100A40001C43446002E044689C43446010BD8168DC
:100A500041F0080181607047014600208A6802F079
:100A600008020AB1012000E000207047816841F0CF
:100A7000040181607047014600208A6802F0040288
:100A80000AB1012000E00020704721B1826842F4E1
:100A9000A002826003E0826822F4A00282607047B4
:100AA000014600208A6802F480020AB1012000E0B9
:100AB0000020704710B50A4600210023416821F448
:100AC0006041531E41EA4331416010BD21B142688B
:100AD00042F40062426003E0426822F40062426035
:100AE0007047F0B504460D4600200021092D11DDA8
:100AF000E068A5F10A0606EB4607072606FA07F1A5
:100B00008843A5F10A0606EB460603FA06F10843F8
:100B1000E0600CE0206905EB4507072606FA07F1BF
:100B2000884305EB450603FA06F108432061072ACE
:100B30000FDA606B561E06EB86071F2606FA07F1D2
:100B40008843561E06EB860605FA06F108436063E5
:100B500022E00D2A0FDA206BD61F06EB86071F2630
:100B600006FA07F18843D61F06EB860605FA06F15A
:100B70000843206310E0E06AA2F10D0606EB860749
:100B80001F2606FA07F18843A2F10D0606EB86063A
:100B900005FA06F10843E062F0BD21B1826842F433
:100BA0008012826003E0826822F4801282607047C3
:100BB0000146C86C80B2704766484C300068704788
:100BC00021B1426842F48062426003E0426822F44C
:100BD00080624260704721B1426842F480524260B4
:100BE00003E0426822F48052426070470A460021C6
:100BF000816821F4E04111438160704721B182682E
:100C000042F40042826003E0826822F40042826083
:100C1000704721B1826842F40212826003E0826868
:100C200022F4021282607047014600208A6802F4B2
:100C300000120AB1012000E000207047F0B5044620
:100C40001546002000220026092911DDE068A1F1E7
:100C50000A0707EB470C072707FA0CF29043A1F1AC
:100C60000A0707EB470703FA07F21043E0600CE0BE
:100C7000206901EB410C072707FA0CF2904301EBC6
:100C8000410703FA07F210432061A06BC0F301563D
:100C9000EF1C06F1010CA7EB0C0707EB870C1F27D5
:100CA00007FA0CF29043EF1C06F1010CA7EB0C07BE
:100CB00007EB870701FA07F21043A063F0BD10B5F8
:100CC0000A4600210023816B21F44011531E41EAA2
:100CD0000351816310BD08B5002300930090009B71
:100CE0000B440093009B1A6008BD08B50246002023
:100CF0000090009201F12800009B18440090009899
:100D0000006880B208BD0A4600214168164B1940B0
:100D10001143416070474162826270470A46002178
:100D2000416821F01F0111434160704740B10949FA
:100D30000831096841F40001064A0832116007E0F1
:100D400004490831096821F40001024A083211609F
:100D5000704700000024014000280140003C014091
:100D6000FFFEF0FFFDF7F1FFFFFD3FFF0246002011
:100D700013680B400BB1012000E000207047CA430C
:100D80000260704770B502460020002300240B1259
:100D90005568CEB205EA060415681D4015B10CB1C0
:100DA000012000E0002070BD00220A12D34303603E
:100DB0007047000010B50446CC48844208D1012198
:100DC000042000F02DFB0021042000F029FB46E068
:100DD000C748844208D10121082000F021FB0021EE
:100DE000082000F01DFB3AE0C248844208D10121EE
:100DF000102000F015FB0021102000F011FB2EE068
:100E0000BD48844208D10121202000F009FB0021C7
:100E1000202000F005FB22E0B848844208D10121DF
:100E2000402000F0FDFA0021402000F0F9FA16E021
:100E3000B348844208D10121802000F0F1FA00215A
:100E4000802000F0EDFA0AE0AE48844207D101218B
:100E5000801500F0E5FA0021A01500F0E1FA10BDC0
:100E600010B50121084600F0DBFA0021012000F056
:100E7000D7FA10BD2DE9F0410246002500260020DA
:100E800000230024002791F803C00CF00F0591F80F
:100E900003C00CF0100CBCF1000F03D091F802C09D
:100EA0004CEA050591F800C0BCF1000F31D0146880
:100EB00000202BE04FF0010C0CFA00F3B1F800C059
:100EC0000CEA03069E4220D183004FF00F0C0CFA6F
:100ED00003F7BC4305FA03FC4CEA040491F803C091
:100EE000BCF1280F06D14FF0010C0CFA00FCC2F83F
:100EF00014C00AE091F803C0BCF1480F05D14FF0CF
:100F0000010C0CFA00FCC2F810C0401C0828D1D318
:100F10001460B1F800C0BCF1FF0F34DD546800204C
:100F20002EE000F1080C4FF0010808FA0CF3B1F8BC
:100F300000C00CEA03069E4221D183004FF00F0C43
:100F40000CFA03F7BC4305FA03FC4CEA040491F8DD
:100F500003C0BCF1280F05D100F1080C08FA0CF809
:100F6000C2F8148091F803C0BCF1480F07D100F11A
:100F7000080C4FF0010808FA0CF8C2F81080401C69
:100F80000828CED35460BDE8F0814FF6FF71018090
:100F9000022181700421C1707047024600209368CD
:100FA0000B400BB1012000E000207047014688682B
:100FB00080B2704702460020D3680B400BB101207D
:100FC00000E0002070470146C86880B270470161A8
:100FD0007047416170470AB1016100E041617047AB
:100FE000C16070474FF480320A438261816182613F
:100FF00082698269704702460020434B18684FF6A9
:101000008073184040EA021008433F4B1860704755
:101010003E49C8617047F0B50A460023002400210C
:10102000002500F00046B6F1004F02D1364EF169BE
:1010300001E0354E7168C0F3034583B200F44016F9
:10104000B6F5401F08D121F070612F4E766826F06A
:1010500070662D4F7E6012E000F48016B6F5801F9A
:1010600006D1032606FA05F4A14341F0706106E0BB
:10107000460D360103FA06F6B14341F0706122B124
:10108000460D360103FA06F6314300F00046B6F18C
:10109000004F02D11C4EF16101E01B4E7160F0BDAA
:1010A00030B500228B071C0F0F2303FA04F2164BF6
:1010B00008338C1053F824309343134C08348D10AC
:1010C00044F8253023468C1053F824308C07240F25
:1010D00000FA04F423430C4C08348D1044F82530F6
:1010E00030BD0A49DC31086070470000000801404B
:1010F000000C0140001001400014014000180140A4
:10110000001C01400020014000000140000020427E
:10111000DF48006840F00100DD490860084640688B
:10112000DC490840DA49486008460068DA49084066
:10113000D74908600846006820F480200860084607
:10114000406820F4FE0048604FF41F00886070473C
:10115000CF49096821F48031CD4A116011460968F0
:1011600021F480211160B0F5803F03D0B0F5802FCD
:101170000ED106E0C649096841F48031C44A1160C5
:1011800007E0C349096841F4A021C14A116000E0A9
:1011900000BF00BF704710B50146002200230020A9
:1011A0004A11012A02D1BA4C236806E0022A02D170
:1011B000B74C236A01E0B64C636A01F01F020124B8
:1011C00094401C400CB1012000E0002010BD38B557
:1011D000002000900024002500BF3120FFF7DBFF36
:1011E00005460098401C00900098B0F5A06F01D013
:1011F000002DF2D03120FFF7CEFF08B1012400E02E
:101200000024204638BD01460020A14A106820F085
:10121000F80040EAC10010607047A04908607047BC
:10122000024600209A4B586820F47C1042EA0103E1
:101230001843974B586070479849086670470146B5
:101240000020934A506820F0030008435060704724
:101250008F48406800F00C007047014600208C4A1F
:10126000506820F0F00008435060704701460020AD
:10127000874A506820F4E060084350607047014698
:101280000020834A506820F4605040EAC10050605A
:10129000704729B17E4A527A02437D4B5A7204E06C
:1012A0007B4A527A82437A4B5A7270477B49D831D3
:1012B0000860704701460020754A506820F440409D
:1012C0000843506070470021714A20321170704A03
:1012D00082F82010012802D004280AD104E001215C
:1012E0006B4A2032117005E00521694A20321170E5
:1012F00000E000BF00BF704769490860704764495B
:10130000096A0143624A11627047654944390860BD
:10131000704730B500210022002400235C4D6D6829
:1013200005F00C0121B1042905D0082923D105E0DD
:101330005C4D056022E05B4D05601FE0544D6D681B
:1013400005F47012524D6D6805F48034022505EBEA
:1013500092421CB9544D554305600BE04C4D6D68ED
:1013600005F400351DB1504D5543056002E04D4D6B
:101370005543056002E04B4D056000BF00BF444D82
:101380006D6805F0F0010909484D6B5C0568DD40AA
:1013900045603F4D6D6805F4E061090A434D6B5CA3
:1013A0004568DD4085603A4D6D6805F46051C90AB5
:1013B0003E4D6B5C4568DD40C560354D6D6805F49C
:1013C0004041890B3A4D6B5CC568B5FBF3F505618F
:1013D00030BD29B12E4A526902432D4B5A6104E0B7
:1013E0002B4A526982432A4B5A61704729B1284AD5
:1013F00092690243264B9A6104E0254A926982432E
:10140000234B9A61704729B1214AD2690243204B8C
:10141000DA6104E01E4AD26982431D4BDA617047EB
:1014200029B11B4AD2680243194BDA6004E0184A1A
:10143000D2688243164BDA60704729B1144A1269A8
:101440000243134B1A6104E0114A12698243104BA4
:101450001A61704712494039086070470F49C864E3
:1014600070470B49C87170470948406A40F0807066
:1014700007494862704701460020054A92680A40C1
:101480000AB1012000E000207047014988727047CE
:10149000001002400000FFF8FFFFF6FE000042428D
:1014A0008004424200127A0000093D003000002012
:1014B0004000002010B50446FE48844208D10121B6
:1014C000C014FFF7ADFF0021E014FFF7A9FFC4E04F
:1014D000B4F1804F08D101210846FFF7AEFF00218B
:1014E0000120FFF7AAFFB8E0F348844208D10121A8
:1014F0000220FFF7A2FF00210220FFF79EFFACE0D1
:10150000EE48844208D101210420FFF796FF002114
:101510000420FFF792FFA0E0E948844208D10121AE
:101520000820FFF78AFF00210820FFF786FF94E0DC
:10153000E448844208D101211020FFF77EFF0021FA
:101540001020FFF77AFF88E0DF48844208D10121AC
:101550002020FFF772FF00212020FFF76EFF7CE0C4
:10156000DA48844208D101214014FFF759FF0021D5
:101570006014FFF755FF70E0D548844209D101217E
:10158000C804FFF74DFF00214FF40020FFF748FF8C
:1015900063E0D048844209D101210805FFF740FFEC
:1015A00000214FF48010FFF73BFF56E0CA48844209
:1015B00009D101214805FFF733FF00214FF4001046
:1015C000FFF72EFF49E0C548844208D101214020A1
:1015D000FFF733FF00214020FFF72FFF3DE0C04819
:1015E000844208D101218020FFF727FF00218020BD
:1015F000FFF723FF31E0BB48844208D10121801569
:10160000FFF71BFF0021A015FFF717FF25E0B648E5
:10161000844209D101210804FFF702FF00214FF4A1
:101620008030FFF7FDFE18E0B048844209D1012167
:101630004804FFF7F5FE00214FF40030FFF7F0FEFD
:101640000BE0AB48844208D101218804FFF7E8FE93
:1016500000214FF48020FFF7E3FE10BD0022028836
:10166000944B98420ED0994B98420BD0B0F1804FDA
:1016700008D0914B984205D0904B984202D0904BA5
:10168000984204D14FF68F731A404B881A438D4B02
:10169000984207D08C4B984204D04FF6FF431A4033
:1016A000CB881A4302808B8883850B880385814B06
:1016B00098420BD0854B984208D08B4B984205D06E
:1016C0008A4B984202D08A4B984201D10B7A03860A
:1016D00001238382704770B5002400220023058C0B
:1016E0004FF6FE7635400584028C8388048B4FF6D6
:1016F0008F752C40B51E2C400D882C43751E2A403A
:101700000D892A434D882A436A4DA8420BD06F4D5C
:10171000A84208D0744DA84205D0744DA84202D00A
:10172000734DA84213D14FF6F7752A404D892A43CD
:101730004FF6FB752A408D882A434FF6FF652B40F4
:101740004FF6FF552B408D892B43CD892B4383804A
:101750000483CD888586028470BD70B50024002284
:101760000023058C4FF6EF7635400584028C838884
:10177000048B48F6FF752C404FF6FF452C400D8832
:101780004FF6FF7606EA05252C434FF6DF752A4013
:101790000D8906EA05152A434D8806EA05152A43F0
:1017A000444DA84202D0494DA8421DD14FF67F7545
:1017B0002A404D894FF6FF7606EA05152A434FF673
:1017C000BF752A408D8806EA05152A434FF6FF3576
:1017D0002B404FF2FF752B408D8906EA85052B4380
:1017E000CD8906EA85052B4383800483CD88058750
:1017F000028470BD70B5002400220023058C4FF6D2
:10180000FF6635400584028C8388848B4FF68F7584
:101810002C404FF6FC752C400D882C434FF6FF559D
:101820002A400D894FF6FF7606EA05252A434D88A2
:1018300006EA05252A431F4DA84202D0234DA8429F
:101840001DD14FF2FF752A404D894FF6FF7606EA0B
:1018500005252A434FF6FF352A408D8806EA0525DF
:101860002A434EF6FF752B404DF6FF752B408D89B0
:1018700006EA05152B43CD8906EA05152B4383801F
:101880008483CD888587028470BD70B500220023D3
:101890000024058C4EF6FF7635400584038C848841
:1018A000828B48F6FF752A404FF6FF452A400D8887
:1018B00020E00000002C014000040040000800402F
:1018C000000C0040001000400014004000340140B3
:1018D000004C0140005001400054014000180040FD
:1018E000001C004000200040004001400044014036
:1018F000004801404FF6FF7606EA05252A434DF6DB
:10190000FF752B400D8906EA05352B434D8806EA05
:1019100005352B43FA4DA84202D0FA4DA84208D112
:101920004BF6FF752C408D894FF6FF7606EA85153C
:101930002C4384808283CD88A0F84050038470BDFE
:10194000828B4FF2FF331A408283828B4FF6FF73F4
:1019500003EA01231A4382837047F0B50C4615460B
:10196000002200210026078C4EF6FF7C07EA0C07B8
:101970000784828B018C4FF6FF7707EA043640F626
:10198000FF473A404FF6FF7707EA05273A434FF6FD
:10199000FF7707EA03373A43D94FB8420ED0D94F01
:1019A000B8420BD0B0F1804F08D0D74FB84205D025
:1019B000D64FB84202D0D64FB84206D14DF6FF7787
:1019C000394046F48057394305E047F6FF57394020
:1019D00044F48057394382830184F0BD828B4FF6F3
:1019E000F3731A408283828B0A4382837047F0B577
:1019F0000C461546002200210026078C4FF6FF6C8E
:101A000007EA0C070784828B018C4FF6FF7707EA01
:101A100004264FF60C773A404FF6FF7707EA031794
:101A20002F433A43B64FB8420ED0B64FB8420BD010
:101A3000B0F1804F08D0B44FB84205D0B34FB84290
:101A400002D0B34FB84206D14FF6FF57394046F4A3
:101A50008077394305E04FF2FF57394044F48077EF
:101A6000394382830184F0BD028B4FF2FF331A4069
:101A70000283028B4FF6FF7303EA01231A430283AA
:101A80007047F0B50C461546002200210026078C51
:101A90004FF6EF7C07EA0C070784028B018C4FF6A8
:101AA000FF7707EA041640F6FF473A404FF6FF7704
:101AB00007EA03373A434FF6FF7707EA05273A4329
:101AC0008F4FB8420ED08F4FB8420BD0B0F1804F3D
:101AD00008D08D4FB84205D08C4FB84202D08C4F01
:101AE000B84206D14FF6DF77394046F01007394348
:101AF00005E04FF65F77394044F010073943028321
:101B00000184F0BD028B4FF6F3731A400283028BFF
:101B10000A4302837047F0B50C46154600220021A7
:101B2000068C4FF6FE773E400684028B018C4FF602
:101B30000C7632407E1C06EA03162E433243704E6A
:101B4000B0420ED06F4EB0420BD0B0F1804F08D0F3
:101B50006D4EB04205D06D4EB04202D06C4EB042D8
:101B600006D14FF6FD76314044F00106314305E0E1
:101B70004FF6F576314044F001063143028301848B
:101B8000F0BD70B505460C465D4885420ED05D48F7
:101B900085420BD0B5F1804F08D05B48854205D017
:101BA0005A48854202D05A48854200D100E000BF21
:101BB000208850B92389A28861882846FFF7ABFFA7
:101BC000E1882846FFF79EFF25E0208804280AD1F7
:101BD0002389A28861882846FFF753FFE1882846B9
:101BE000FFF742FF17E0208808280AD12389A2883E
:101BF00061882846FFF7FBFEE1882846FFF7EEFEE6
:101C000009E02389A28861882846FFF7A6FEE188BB
:101C10002846FFF795FE70BD2DE9F04105460C46BC
:101C200000260127608808B9022600E00026A08867
:101C3000012801D1022700E001272088A0B92389CB
:101C4000A28861882846FFF766FFE1882846FFF7EB
:101C500059FF23893A4631462846FFF712FFE188AB
:101C60002846FFF701FF13E02389A28861882846F0
:101C7000FFF707FFE1882846FFF7F6FE23893A467B
:101C800031462846FFF747FFE1882846FFF73AFF2D
:101C9000BDE8F0810A884B881A438B881A43CB88A9
:101CA0001A430B891A434B891A438B891A43A0F8AC
:101CB000442070474FF6FF71818000210180C18070
:101CC0004180017270470021018041808180C18084
:101CD000018141818181C181704700210180418062
:101CE000012181800021C180018170470021018094
:101CF00041808180C18001814181818170470000E4
:101D0000002C014000340140000400400008004065
:101D1000000C004021B1028842F00102028004E080
:101D200002884FF6FE731A400280704731B1B0F856
:101D3000442042F40042A0F8442005E0B0F84420DA
:101D4000C2F30E02A0F8442070471AB183890B43F6
:101D5000838102E083898B4383817047818270474E
:101D600041EA0203A0F8483070471AB183890B4357
:101D7000838102E083898B438381704701894FF619
:101D8000F8721140018170470A46002101894FF61F
:101D90008F73194011430181704730B504460D46D9
:101DA00029462046FFF7F0FF208940F007002081F8
:101DB00030BD2DE9F04104460D4616461F46602D04
:101DC00006D13B46012231462046FFF75AFE05E088
:101DD0003B46012231462046FFF79DFE294620461C
:101DE000FFF7D2FF208940F007002081BDE8F08195
:101DF00030B50C4600210189C9B24FF6FF7505EADE
:101E00000325154325432943018130BD2DE9F041C8
:101E100005460E4617469846002443463A46314644
:101E20002846FFF7E5FF2C894FF6F870044044F090
:101E300007044FF68F70044044F070042C81BDE815
:101E4000F081F0B504460D4616461F463B46324625
:101E500029462046FFF7CCFF208940F480402081AE
:101E6000F0BD0185828270470A46002101884FF645
:101E70008F731940114301807047F0B50C46154629
:101E80001E460021002200230189028B038C4FF69D
:101E9000F877394021434FF6FC473A4040F20117AA
:101EA0003A434FF6DD773B404FF6FF7707EA0617D8
:101EB0002F433B43018102830384F0BD0A46002186
:101EC000018B4FF68F7319401143018370470A4607
:101ED0000021018B48F6FF7319404FF6FF7303EAA8
:101EE00002231943018370470A460021818B4FF674
:101EF0008F7319401143818370470A460021818BFB
:101F000048F6FF7319404FF6FF7303EA02231943A3
:101F10008183704721B1028842F08002028004E090
:101F200002884FF67F731A400280704721B1828881
:101F300042F00402828004E082884FF6FB731A406C
:101F40008280704721B1828842F00802828004E0DA
:101F500082884FF6F7731A408280704721B18288D9
:101F600042F00102828004E082884FF6FE731A403C
:101F7000828070470A460021018B4FF6F7731940A3
:101F80001143018370470A460021018B4FF2FF7312
:101F900019404FF6FF7303EA022319430183704788
:101FA0000A460021818B4FF6F77319401143818354
:101FB00070470A460021818B4FF2FF7319404FF69C
:101FC000FF7303EA02231943818370470A46002105
:101FD000018B4FF6FB7319401143018370470A468A
:101FE0000021018B4FF6FF3319404FF6FF7303EAD0
:101FF00002231943018370470A460021818B4FF663
:10200000FB7319401143818370470A460021818B7D
:102010004FF6FF3319404FF6FF7303EA02231943CB
:10202000818370470A460021018B4FF67F73194068
:102030001143018370470A460021018BC1F30E0151
:102040004FF6FF7303EA02231943018370470A46E0
:102050000021818B4FF67F731940114381837047B4
:102060000A460021818BC1F30E014FF6FF7303EA8C
:1020700002231943818370470A460021018C4FF6E1
:10208000FD7319401143018470470A460021018CF9
:102090004FF6F77319401143018470470A46002137
:1020A000018C4FF6DF7319404FF6FF7303EA0213FA
:1020B0001943018470470A460021018C4FF67F7353
:1020C00019404FF6FF7303EA021319430184704766
:1020D0000A460021018C4FF6FF5319404FF6FF735B
:1020E00003EA02231943018470470A460021018C48
:1020F0004FF2FF7319404FF6FF7303EA02231943AF
:10210000018470470A460021018C4DF6FF73194087
:102110004FF6FF7303EA023319430184704730B569
:10212000002301248C40A3B2048C9C430484048CBF
:1021300002FA01F5ADB22C43048430BD30B5002362
:1021400004248C40A3B2048C9C430484048C02FAC3
:1021500001F5ADB22C43048430BD70B503460020B8
:1021600000241846183001258D40ACB21D8CA543C3
:102170001D8409B1082909D100EB6100056825F02B
:10218000700505600568154305600EE00D1FC5F379
:102190004E052844056825F4E045056005684FF6BE
:1021A000FF7606EA02263543056070BD21B102883C
:1021B00042F00202028004E002884FF6FD731A40EA
:1021C0000280704721B1028842F00402028004E0DC
:1021D00002884FF6FB731A400280704721B1828853
:1021E00042F08002828004E082884FF67F731A40BA
:1021F0008280704702884FF6F7731A400280028887
:102200000A430280704782884FF68F731A4082809B
:1022100082880A438280704702894FF6F8731A4019
:10222000028102890A430281704702894FF67F7357
:102230001A40028102890A430281704781847047F3
:102240008185704781867047018770478187704715
:10225000A0F84010704702884FF6FF431A400280F2
:1022600002880A43028070470146888E7047014603
:10227000088F70470146888F70470146B1F84000CB
:1022800070470146888C70470146088D70470246AA
:102290000020138A0B400BB1012000E000207047A2
:1022A000CA430282704730B5024600200023002452
:1022B000158A05EA0103958905EA010413B10CB1F9
:1022C000012000E0002030BDCA43028270470000B8
:1022D00010B50446FB48844209D101218803FFF769
:1022E0009FF800214FF48040FFF79AF832E0F6485B
:1022F000844209D101214804FFF79FF800214FF4DF
:102300000030FFF79AF825E0F048844209D1012116
:102310008804FFF792F800214FF48020FFF78DF832
:1023200018E0EB48844209D10121C804FFF785F881
:1023300000214FF40020FFF780F80BE0E5488442CD
:1023400008D101210805FFF778F800214FF480102B
:10235000FFF773F810BD2DE9F04786B005460E462D
:102360000024A24600BFA1460027B08900B100BFEB
:102370002F462C8A4CF6FF700440F08804432C82D0
:10238000AC894EF6F3100440B08831890843718956
:1023900008430443AC81AC8A4FF6FF400440B08947
:1023A0000443AC8201A8FEF7B4FFC648874202D1BD
:1023B000DDF810A001E0DDF80CA0A88900F40040D1
:1023C00040B10AEBCA0000EB0A1031684900B0FBCB
:1023D000F1F807E00AEBCA0000EB0A103168890047
:1023E000B0FBF1F86420B8FBF0F00401200964218F
:1023F00001FB1089A88900F4004040B1322000EBB5
:10240000C900B0FBF1F000F00700044308E03220FF
:1024100000EB09106421B0FBF1F000F00F00044361
:102420002C8106B0BDE8F0874FF416510160002101
:102430008180C18001810C2141810021818170470F
:1024400010B502460020108A4FF2FF0318400B8897
:102450004C8823438C882343CC8823431843108221
:1024600010BD0021018041808180C180704721B171
:10247000828942F40052828104E082894DF6FF7322
:102480001A4082817047F0B50346002400260025DB
:10249000002040F66A17B94200D100BF1846C1F3C8
:1024A000421401F01F06012707FA06F5012C01D19D
:1024B0000C3004E0022C01D1103000E014301AB1CD
:1024C00007682F43076002E00768AF430760F0BD6D
:1024D0001AB1838A0B43838202E0838A8B4383820F
:1024E0007047028A4FF6F0731A400282028A0A434A
:1024F0000282704782894FF2FF731A40828182897B
:102500000A438281704721B1828942F002028281AE
:1025100004E082894FF6FD731A4082817047028A77
:102520004FF6DF731A400282028A0A430282704722
:1025300021B1028A42F48042028204E0028A4BF610
:10254000FF731A4002827047C1F30802828070470D
:1025500001468888C0F308007047818941F0010175
:1025600081817047028BD2B20283028B42EA012240
:1025700002837047028B02F47F420283028B0A437C
:102580000283704721B1828A42F02002828204E0F5
:10259000828A4FF6DF731A408282704721B1828AA5
:1025A00042F01002828204E0828A4FF6EF731A40F2
:1025B0008282704721B1828A42F00802828204E05E
:1025C000828A4FF6F7731A408282704721B182895E
:1025D00042F40042828103E08289C2F30E028281CA
:1025E000704721B1828A42F40062828204E0828ACA
:1025F0004FF2FF731A4082827047828A4FF6FB7354
:102600001A408282828A0A438282704721B1828A7A
:1026100042F00202828204E0828A4FF6FD731A4081
:102620008282704702460020B1F5007F00D100BFD2
:1026300013880B400BB1012000E00020704701F42B
:102640000072B2F5007F00D100BFCA43028070471C
:1026500070B50246002400230025002040F66A16CB
:10266000B14200D100BFC1F3421501F01F030126A2
:1026700006FA03F3012D02D19689334006E0022DBC
:1026800002D1168A334001E0968A33400C120126AB
:1026900006FA04F41688344013B10CB1012000E0AE
:1026A000002070BD10B50022002340F66A14A1423C
:1026B00000D100BF0A1201249440A3B2DC4304807D
:1026C00010BD0000003801400044004000480040B8
:1026D000004C00400050004010B56FF00400FEF7C1
:1026E00022F92E4800682E49B0FBF1F02D49087000
:1026F0000846007800EB4001C1EBC0104FF6FF71B7
:1027000001EAC0002849088010BD0146254A127818
:102710004A434FF0E0235A6100229A611A46126937
:1027200042F001021A6100BF4FF0E022106900F090
:1027300001021AB100F48032002AF5D04FF0E022F5
:10274000126922F001024FF0E0231A6100229A611F
:1027500070470146144A12884A434FF0E0235A61F9
:1027600000229A611A46126942F001021A6100BF02
:102770004FF0E022106900F001021AB100F480323B
:10278000002AF5D04FF0E022126922F001024FF04A
:10279000E0231A6100229A61704700001C000020AB
:1027A00000127A004400002046000020014600BFCD
:1027B000704700BF494A128802F04002002AF9D04F
:1027C000C2B2464B1B1D1A80704710B586B0044636
:1027D000012144F20400FEF709FE4FF40070ADF849
:1027E000140003208DF8160018208DF8170005A995
:1027F0003B48FEF73FFB4FF48060ADF81400042027
:102800008DF8170005A93648FEF734FB25208DF812
:10281000000003208DF801008DF8020001208DF8E2
:1028200003006846FEF735F801940020ADF8080073
:10283000ADF80A00ADF80C00ADF810000C20ADF8B2
:102840000E0001A92548FFF786FD012240F225511F
:102850002248FFF718FE01212048FFF708FE06B0C6
:1028600010BD10B540F225511C48FFF7F1FE10B322
:102870001A48FFF76DFEC4B21A48008800F4004001
:10288000C8B91848008800F4804060B10A2C03D011
:1028900000201449088020E01248008840F40040DD
:1028A0001049088019E00D2C06D10E48008840F42C
:1028B00080400C49088010E00A480088C0F30D00F1
:1028C00009490C5407480088401C064908800846FE
:1028D0000088C72801DD0020088010BD00380140B5
:1028E000000801404C0000202407002000B589B0FA
:1028F00001210420FEF77AFD01210820FEF783FD67
:102900000220ADF8200048208DF8230003208DF828
:10291000220008A99848FEF7ADFA02219648FEF772
:1029200056FB42F21070ADF814004720ADF81000CD
:102930000020ADF81600ADF8120004A98F48FEF78C
:102940008DFE0420ADF804000020ADF80600012043
:10295000ADF808000020ADF80A000320ADF80C0027
:1029600001A98648FFF70DF901218448FFF7D2F944
:1029700032208DF81C0001208DF81D0003208DF8F9
:102980001E0001208DF81F0007A8FDF782FF01221D
:1029900005217A48FFF7D9F909B000BD10B501212A
:1029A0007648FFF780FCF8B17548007800F08000A9
:1029B000D0B17348007820F01000714908700846C3
:1029C000007800F00F0020B90846007840F0400081
:1029D00008706B48007800F00F000E2805DA684890
:1029E0000078401C664908700AE06548007820F0CD
:1029F0008000634908700846007800F0F000087015
:102A000004215E48FFF74FFC002810D05D480068A5
:102A100070B102215948FFF741FB00215748FFF7E9
:102A20000DFC5748007840F010005549087070E0E0
:102A30005248FFF71CFC5449088000214F48FFF71B
:102A40002DFB4F48007800F0100000285BD04C4868
:102A5000007800F08000E8B34B480088B0F5967F1E
:102A60000DDD49480088B0F5487F08DA474800681E
:102A700040004649086008460068086043E0424854
:102A80000088B0F5AF6F0FDD3F480088B0F5E16F0B
:102A90000ADA3E48006840003C4908600846006881
:102AA00040F0010008602EE03748008840F69801A9
:102AB000884228DD3448008840F62821884222DAFE
:102AC00033480078401C324908702D48007800F0E7
:102AD000F00000E002E02A49087014E02A4800886B
:102AE00041F2680188420EDD2748008841F25C21EE
:102AF000884208DA2248007840F0800020490870B7
:102B00000020234908701E48007820F010001C495E
:102B1000087005211948FFF7C3FB10BD10B5002050
:102B2000174B1B7803F040032BB3184B1B68190E8F
:102B3000164B1B68C3F30742D343DBB28B420BD166
:102B400051B9124B1B88C3F30721104B1A78D3439A
:102B5000DBB28B4200D1084620B1094B1B7803F051
:102B6000800343B9064B1B7823F04003044C2370C9
:102B70000023074C237010BD00080140000C0040EA
:102B80005000002004012142520000205400002087
:102B90005800002070B5044600251BE04FF400519A
:102BA000FE48FEF716FA04F0800028B14FF4004109
:102BB000FA48FEF70CFA04E04FF40041F748FEF73C
:102BC00008FA4FF40051F548FEF701FA6006040ECA
:102BD000681CC5B2082DE1DB70BD10B504464FF48A
:102BE0008061EE48FEF7F3F92046FFF7D3FF10BDF2
:102BF00010B504464FF48061E848FEF7E8F9C4F3E5
:102C00000720FFF7C7FFE0B2FFF7C4FF10BD10B504
:102C100004464FF48061E148FEF7DBF92046FFF7F8
:102C2000B9FF10BD70B504460D46E0B2FFF7EFFFE7
:102C30002846FFF7DDFF70BD2DE9F04104460D4643
:102C400016461F462A20FFF7E2FFC4F30720FFF7CE
:102C5000C4FFE0B2FFF7C1FFC6F30720FFF7BDFFD7
:102C6000F0B2FFF7BAFF2B20FFF7D1FFC5F3072023
:102C7000FFF7B3FFE8B2FFF7B0FFC7F30720FFF796
:102C8000ACFFF8B2FFF7A9FF2C20FFF7C0FFBDE8AB
:102C9000F08108B501212020FEF7A8FB4FF4007059
:102CA000ADF8000010208DF8030003208DF802001D
:102CB0006946BB48FEF7DEF84FF40071B848FEF7EE
:102CC00086F901210820FEF791FB4FF43C40ADF856
:102CD000000010208DF8030003208DF802006946E3
:102CE000AE48FEF7C7F84FF43C41AC48FEF76FF929
:102CF0004FF40061A948FEF76CF91420FFF729FD95
:102D00004FF40061A548FEF762F91420FFF721FD9A
:102D10004FF48051A148FEF75AF9CF20FFF777FF13
:102D20000020FFF75AFFD920FFF757FF3020FFF7A9
:102D300054FFED20FFF76BFF6420FFF74EFF0320E9
:102D4000FFF74BFF1220FFF748FF8120FFF745FFF9
:102D5000E820FFF75CFF8520FFF73FFF1020FFF71B
:102D60003CFF7820FFF739FFCB20FFF750FF3920D9
:102D7000FFF733FF2C20FFF730FF0020FFF72DFF78
:102D80003420FFF72AFF0220FFF727FFF720FFF785
:102D90003EFF2020FFF721FFEA20FFF738FF002049
:102DA000FFF71BFF0020FFF718FFC020FFF72FFFE2
:102DB0002120FFF712FFC120FFF729FF1220FFF7A4
:102DC0000CFFC520FFF723FF3220FFF706FF3C2052
:102DD000FFF703FFC720FFF71AFFC120FFF7FDFE33
:102DE0003620FFF714FF0820FFF7F7FE3A20FFF721
:102DF0000EFF5520FFF7F1FEB120FFF708FF00207E
:102E0000FFF7EBFE1820FFF7E8FEB620FFF7FFFE06
:102E10000A20FFF7E2FEA220FFF7DFFEF220FFF715
:102E2000F6FE0020FFF7D9FE2620FFF7F0FE012076
:102E3000FFF7D3FEE020FFF7EAFE0F20FFF7CDFEFD
:102E40002020FFF7CAFE1E20FFF7C7FE0920FFF76C
:102E5000C4FE1220FFF7C1FE0B20FFF7BEFE50207C
:102E6000FFF7BBFEBA20FFF7B8FE4420FFF7B5FE20
:102E70000920FFF7B2FE1420FFF7AFFE0520FFF791
:102E8000ACFE2320FFF7A9FE2120FFF7A6FE0020BD
:102E9000FFF7A3FEE120FFF7BAFE0020FFF79DFE3B
:102EA0001920FFF79AFE1920FFF797FE0020FFF781
:102EB00094FE1220FFF791FE0720FFF78EFE2D20D3
:102EC000FFF78BFE2820FFF788FE3F20FFF785FEE7
:102ED0000220FFF782FE0A20FFF77FFE0820FFF79F
:102EE0007CFE2520FFF779FE2D20FFF776FE0F20D0
:102EF000FFF773FE1120FFF78AFE7820FFF729FC09
:102F00002920FFF784FE08BD70B5064640F23F1346
:102F1000EF2200210846FFF78FFE002409E000257C
:102F200003E03046FFF764FE6D1CB5F5A07FF8D3D3
:102F3000641CF02CF3D370BD2DE9F047074688469A
:102F40001446184E08F11F0307F11F024146384688
:102F5000FFF772FE06EBC4164FF0000918E00025DB
:102F60000FE030780121A940084020B10E480068E8
:102F7000FFF73EFE03E00D480068FFF739FE681CCE
:102F8000C5B2082DEDDB761C09F1010000F0FF0948
:102F9000B9F1800FE3DBBDE8F0870000000C0140D1
:102FA000001401405C000020200700201C070020C6
:102FB00070B504460D462B46224629462046FFF7AB
:102FC0003BFEF0480068FFF713FE70BD2DE9F047A7
:102FD00004460D4616461F46DDF820A03B46324605
:102FE00029462046FFF728FEA8460AE0A14604E04D
:102FF0005046FFF7FDFD09F10109B145F8D908F187
:103000000108B845F2D9BDE8F08738B504460D4649
:10301000DC480068691E0090601E6B1C621CFFF794
:10302000D5FF38BD2DE9FF4F85B081468A46002087
:10303000049003900798A0EB09050898A0EB0A06F6
:10304000CDF80890CDF804A0002D01DD012705E0A2
:103050000DB9002702E04FF0FF376D42002E02DD70
:103060004FF0010806E016B94FF0000802E04FF0FB
:10307000FF387642B54201DD2C4600E034464FF081
:10308000000B1DE0DDE90110FFF792FF04982844D2
:1030900004900398304403900498A04205DD0498FE
:1030A000001B04900298384402900398A04205DD6A
:1030B0000398001B03900198404401900BF1010B11
:1030C000601C8345DED909B0BDE8F08F2DE9F041E1
:1030D00004460D4616461F462B46324629462046D4
:1030E000FFF7A0FF3B46224629462046FFF79AFFFE
:1030F0003B46324639462046FFF794FF3B46324670
:1031000029463046FFF78EFFBDE8F0812DE9F047F4
:1031100006460F469046002445460320A0EB48098A
:1031200034E0391B701BFFF743FF391B7019FFF7A1
:103130003FFF7919301BFFF73BFF391B701BFFF76F
:1031400037FF791B301BFFF733FF39197019FFF771
:103150002FFF791B3019FFF72BFF79193019FFF773
:1031600027FF3919701BFFF723FF641CB9F1000F0B
:1031700003DAA000801D814404E0601B80000A3057
:1031800081446D1E79193019FFF712FFAC42C8DD7A
:10319000BDE8F0872DE9F84F05460F4616469A46DA
:1031A000AB46784800680090E02D02D8B7F5987FCC
:1031B00001D9BDE8F88FA6F12000C6B207F10F03D0
:1031C000EA1D39462846FFF737FDBAF1000F29D12D
:1031D000002424E004EB06106B4911F800904FF036
:1031E000000815E009F0010018B166490098086070
:1031F00003E0664800686349086062480068FFF7BA
:10320000F7FC4FEA69096D1C08F1010000F0FF08A6
:10321000B8F1080FE6DB5D467F1C601CC4B2102CC1
:10322000D8DB1EE000241AE004EB0610564911F822
:1032300000904FF000080DE009F0010020B13919AD
:1032400005EB0800FFF7B4FE4FEA690908F1010039
:1032500000F0FF08B8F1080FEEDB601CC4B2102CC0
:10326000E2DB48490098086000BFA2E710B50246BB
:10327000012000E050430B1EA1F10104E1B2F9D19D
:1032800010BD2DE9F0470646894617461D464FF00A
:10329000000A00BF00242DE0281B401EC1B20A20F6
:1032A000FFF7E4FFB7FBF0F00A21B0FBF1F201FBFE
:1032B0001208BAF1000F10D1681EA0420DDDB8F15E
:1032C000000F08D1082101FB046000232022494699
:1032D000FFF760FF0CE04FF0010A08F13001CAB2BD
:1032E000082101FB046000234946FFF753FF00BF9C
:1032F000601CC4B2AC42CFDBBDE8F0872DE9F047DB
:103300000646894617461D46002418E0281B401E25
:10331000C1B20A20FFF7AAFFB7FBF0F00A21B0FB09
:10332000F1F201FB120808F13001CAB2082101FBD9
:10333000046000234946FFF72DFF601CC4B2AC4275
:10334000E4DBBDE8F08770B505460E46144615E08F
:10335000E02D01D900251036B6F5987F06D900205A
:10336000054606464FF47840FFF7CEFD227800234D
:1033700031462846FFF70EFF0835641C20780028E8
:10338000E6D170BD20070020603D00081C0700202A
:1033900010B56348406820F47040614948600846B1
:1033A000406840F44050486000205E4908601420A6
:1033B000FFF7CFF901205C49C1F8AC011E20FFF7EF
:1033C000A4F910BD10B500245548406820F47040A1
:1033D000534948600846406840F40040486004E0B3
:1033E000601CC4B20120FFF790F94E488038006895
:1033F00008B1642CF4DB642C01DB012010BD002437
:1034000004E0601CC4B20120FFF77FF94548803812
:10341000006808B9642CF4DB642C01DB0120EDE7C3
:103420000020EBE710B5002404E0601CC4B20120CA
:10343000FFF76BF93B488038006808B1642CF4DB77
:10344000002404E0601CC4B20120FFF75EF9354897
:103450008038006808B9642CF4DB2820FFF755F9A0
:1034600030488038006808B1012010BD0020FCE71A
:1034700070B50024002506E06006040EFFF7D2FFB9
:103480000443681CC5B2082DF6DB204670BD7CB530
:1034900005460E46FFF77CFFFFF794FFF8B90024BE
:1034A00005E0FFF7E5FF0DF80400601CC4B2052C31
:1034B000F7DB9DF800009DF8011008449DF802100C
:1034C00008449DF8031008449DF80410884208D170
:1034D0009DF8000030709DF80200287001E0012086
:1034E0007CBD0020FCE708B501210802FDF77EFF46
:1034F0004FF40060ADF8000004208DF803000320B5
:103500008DF8020069460648FDF7B4FC4FF40061EF
:103510000348FDF75CFDFFF73BFFFFF753FF08BDD6
:1035200000200140AC0124420000244210B595481F
:10353000406820F47040934948600846406840F471
:103540004050486000209049086040F2EE20FFF7AC
:10355000DCF801208D49C1F8A4010F20FFF7D5F850
:1035600010BD10B500248748406820F4704085499C
:1035700048600846406840F40040486004E0601C31
:10358000C4B20120FFF7C1F87F488038006808B155
:10359000C82CF4DBC82C01DB012010BD002404E0A2
:1035A000601CC4B20120FFF7B0F87748803800688B
:1035B00008B9F02CF4DBF02C01DB0120EDE7002052
:1035C000EBE710B56F48406820F470406D494860E3
:1035D0000846406840F44050486000206A4908604E
:1035E0000220FFF792F801206849C1F8A40165485C
:1035F000406820F47040634948600846406840F4E1
:10360000004048600C20FFF780F85F488038006871
:1036100008B1012400E000243220FFF776F82046AC
:1036200010BD70B50026012508E0FFF7CAFF04466B
:10363000E00140EA6600C6B2681CC5B2082DF4DDA0
:10364000304670BD70B504464E48406820F4704066
:103650004C4948600846406840F4405048600125A5
:1036600020E004F0010664106EB1002046490860B5
:103670000220FFF74AF801204449C1F8A4013C2088
:10368000FFF743F80CE000203F4908603C20FFF7BB
:103690003CF801203D49C1F8A4010220FFF735F8AC
:1036A000681CC5B2082DDCDD70BD10B5FFF73EFF0C
:1036B000FFF757FFCC20FFF7C5FF4420FFF7C2FFFD
:1036C00010BD08B501210802FDF790FE4FF400700F
:1036D000ADF8000010208DF8030003208DF80200E3
:1036E00069462848FDF7C6FB4FF400712548FDF7F1
:1036F0006EFCFFF71BFFFFF734FF08BD2DE9F84F05
:10370000FFF7D3FFFFF712FFFFF72BFFCC20FFF7E8
:1037100099FFBE20FFF796FFFFF783FF8346FFF771
:1037200080FF0446072C08DDE043C4B26FEA0B00BB
:1037300000F0FF0B4FF0000A01E04FF0010AA14634
:103740004FEA09200FFA80F909EB0B000FFA80F914
:10375000484600F0A7FA009000F078FA07460022E9
:103760000B4B00F075F9054600F042F90FFA80F9AD
:10377000BAF1000F02D04846BDE8F88FC9F1000049
:1037800000B2F9E700200140A401244200002442D5
:103790000000E43F00B587B00121C803FDF726FE15
:1037A00001218020FDF722FE4FF48070ADF8180053
:1037B00000208DF81B0006A93848FDF75BFB4FF48D
:1037C0008040FDF777FD0020019001208DF8080072
:1037D0008DF809004FF46020039000200490012030
:1037E0008DF8140001A92E48FDF7E3F80523012206
:1037F00006212B48FDF775F901212948FDF705F948
:103800002748FDF724F900BF2548FDF725F90028D2
:10381000FAD12348FDF72AF900BF2148FDF72BF91B
:103820000028FAD101211E48FDF72FF907B000BD8D
:1038300010B504460723012221461948FDF751F926
:1038400001211748FDF721F900BF02211448FDF7B7
:103850008DFA0028F9D01248FDF7AAF910BD70B50D
:103860000024002508E00620FFF7E2FF04440520BD
:10387000FEF76FFF681CC5B20A2DF4DB0A20B4FB0B
:10388000F0F4B4F57A6F01D94FF47A642820B4FBD0
:10389000F0F08000C0F16400C0B270BD001C0140B7
:1038A000003C014000B587B001214802FDF79EFDB4
:1038B00001210820FDF79AFD0120ADF81800002035
:1038C0008DF81B0006A92C48FDF7D4FA4FF4804070
:1038D000FDF7F0FC0020019001208DF808008DF824
:1038E00009004FF4602003900020049001208DF81F
:1038F000140001A92148FDF75CF8052301220821E5
:103900001E48FDF7EEF801211C48FDF77EF81B4824
:10391000FDF79DF800BF1948FDF79EF80028FAD181
:103920001648FDF7A3F800BF1448FDF7A4F80028D7
:10393000FAD101211148FDF7A8F807B000BD70B514
:1039400000240A25002608E00C48FDF731F904445C
:103950000520FEF7FEFE701CC6B2AE42F4D3B4FBE7
:10396000F5F48C20604340F6FF71B0FBF1F0C0F13C
:103970008C00C0B270BD0000000C0140002401406A
:1039800070477047704770477047754600F02CF8D5
:10399000AE4605006946534620F00700854618B03C
:1039A00020B5FCF75FFFBDE820404FF000064FF068
:1039B00000074FF000084FF0000B21F00701AC4664
:1039C000ACE8C009ACE8C009ACE8C009ACE8C00983
:1039D0008D46704710B50446AFF300802046BDE821
:1039E0001040FCF70CBC000000487047EC070020BA
:1039F0004FEA41034FEA5353A3F58063D3F11E030B
:103A0000C8BFD3F1210C0CDD4FF0004242EAC122C5
:103A100042EA505232FA03FC8CEAE17CACEBE170F2
:103A20007047102BC4BF0020704703F5787CBCF1B1
:103A3000FF3F04D06FF0004282EA2100704770B56A
:103A400000F0B0F84992248000207047F2E70000AF
:103A5000DFF848C170B51CEA111E1EBF1CEA131521
:103A60009EEA0C0F95EA0C0F00F06F8081EA0304C8
:103A700023EA4C134EEAD47E21EA4C1141F4801122
:103A800043F48013AE44A1FB024CA0FB0365AEF1EE
:103A90007F7E361955EB0C05A1FB034C4CF100035E
:103AA000A0FB021C16EB0C06654153F10003094212
:103AB00018BF46F0010613F4007F0BD14FEA033123
:103AC0004FEA0530340341EA155140EA16506FF0D1
:103AD00003020AE04FEAC3214FEAC520F40241EA9B
:103AE000555140EA56506FF0020202EB2E4201EBB4
:103AF000025585EACE710AD05FEA440C18BF24F063
:103B0000004450F1000041F1000120EAD47040F27D
:103B1000FE7C624500D270BDA84214BF4FF08044C5
:103B20004FF04044002E08BF0024BEF1806FA8BFB4
:103B3000A1F1C041BDE8704080F282804FF00000EA
:103B400001F1C04101F0004170479EEA0C0F0CEA00
:103B5000131518BF95EA0C0F06D04FF0000081EA4C
:103B6000030E0EF0004170BD00F01CF88900013E0C
:103B700000F007B800F009B84FEA430C5FEA5C5C5C
:103B800008D081EA030100F05BB84FEA410C5FEA1C
:103B90005C5CF6D14FF00000014970470000FF0760
:103BA0000000F87F0EF1020E2EF0030E5EF8046B9B
:103BB000364205D4012A43EB030515F5001F12D840
:103BC000012841EB010C1CF5001F0CD80ED14FEA67
:103BD000D17C15F5001F0CEB4C0C0CF1020C08BF4E
:103BE0004CEBD37C04E04FF0080C01E04FEAD37CAF
:103BF0000CEB4C0526FA05F606F00706B6F1040CA8
:103C000006D20EEB860CBDE870404CF0010C60470C
:103C1000DFE80CF0090B02024FF000414FF000000A
:103C2000A1F5002170BD19461046012851EB010491
:103C300018BFD4F5001484BF002001F0004170BD0E
:103C40000808A0F500114FEA3101704743004FEA20
:103C5000D30C4FEA3C0C43401FBF40070CF16051AE
:103C600013F0FE4F70471CF0006F03D100200CF0E2
:103C7000004170470CF0004343EA507010B540EA31
:103C8000CC0000F027F800BF000000924FEA0001CE
:103C9000FFF7D6BF4FF000414FF00000A1F5002123
:103CA0007047000010F0004148BF4042B0FA80F376
:103CB00010FA03F2C3F19D030BD051EAC35101EB9B
:103CC0001220530638BF704700F1010008BF20F0F2
:103CD000010070470EF1020E2EF0030E5EF8044B49
:103CE000244204D44FEA4102B2F17F4F11D84FEA87
:103CF0004003B3F17F4F0CD80ED14FEAD07CB2F124
:103D00007F4F0CEB4C0C0CF1020C08BF4CEBD17C40
:103D100004E04FF0080C01E04FEAD17C0CEB4C03BF
:103D200024FA03F404F00704B4F1040C06D20EEBF9
:103D3000840CBDE810404CF0010C6047DFE80CF04B
:103D4000070802024FF00040A0F5800010BD0846B1
:103D5000420018BFD2F1807288BF00F0004010BD51
:103D60000000000000000000000000000000000053
:103D700000000008080808080808000018180000DB
:103D800000486C2412000000000000000000000049
:103D90000000002424247F1212127F12121200004D
:103DA0000000081C2A2A0A0C1828282A2A1C08089D
:103DB00000000022251515152A58545454220000DD
:103DC0000000000C1212120A76252911916E0000D3
:103DD00000060604030000000000000000000000D0
:103DE00000402010100808080808081010204000A3
:103DF0000002040808101010101010080804020037
:103E00000000000008086B1C1C6B08080000000084
:103E100000000000080808087F08080808000000E3
:103E2000000000000000000000000000060604037F
:103E30000000000000000000FE0000000000000084
:103E40000000000000000000000000000606000066
:103E500000008040402020101008080404020200E6
:103E6000000000182442424242424242241800000C
:103E7000000000080E08080808080808083E0000AE
:103E80000000003C4242422020100804427E000014
:103E90000000003C4242201820404042221C00000A
:103EA000000000203028242422227E2020780000D8
:103EB0000000007E0202021A26404042221C00003E
:103EC000000000382402021A264242422418000050
:103ED0000000007E222210100808080808080000D0
:103EE0000000003C4242422418244242423C00006E
:103EF000000000182442424264584040241C000044
:103F00000000000000001818000000001818000051
:103F10000000000000000008000000000008080485
:103F20000000004020100804020408102040000097
:103F30000000000000007F0000007F000000000083
:103F400000000002040810204020100804020000B5
:103F50000000003C424246402010100018180000AB
:103F60000000001C225A555555552D42221C0000B8
:103F70000000000808181414243C224242E7000004
:103F80000000001F2222221E22424242221F000065
:103F90000000007C4242010101010142221C00009C
:103FA0000000001F2242424242424242221F0000C1
:103FB0000000003F4212121E12120242423F000055
:103FC0000000003F4212121E1212020202070000FD
:103FD0000000003C2222010101712122221C00006C
:103FE000000000E7424242427E42424242E7000075
:103FF0000000003E0808080808080808083E0000FD
:104000000000007C10101010101010101010110F74
:104010000000007722120A0E0A12122222770000F4
:10402000000000070202020202020202427F0000B8
:1040300000000077363636362A2A2A2A2A6B0000F4
:10404000000000E346464A4A52525262624700006C
:104050000000001C2241414141414141221C00001D
:104060000000003F424242423E02020202070000BC
:104070000000001C2241414141414D53321C60006F
:104080000000003F4242423E1212222242C700007C
:104090000000007C4242020418204042423E0000E0
:1040A0000000007F4908080808080808081C0000EC
:1040B000000000E74242424242424242423C00008B
:1040C000000000E7424222242414141808080000CB
:1040D0000000006B4949494955553622222200000B
:1040E000000000E7422424181818242442E70000A6
:1040F000000000772222141408080808081C000099
:104100000000007E2120101008040442423F0000FD
:10411000007808080808080808080808080878004F
:10412000000002020404080808101020202040406B
:10413000001E1010101010101010101010101E0083
:1041400000384400000000000000000000000000F3
:10415000000000000000000000000000000000FF60
:104160000006080000000000000000000000000041
:10417000000000000000003C4278444242FC000085
:10418000000000030202021A26424242261A0000E0
:104190000000000000000038440202024438000021
:1041A00000000060404040784442424264D8000031
:1041B000000000000000003C427E0202423C000081
:1041C000000000F08808087E08080808083E000083
:1041D000000000000000007C22221C023C42423C05
:1041E000000000030202023A4642424242E7000057
:1041F0000000000C0C00000E08080808083E000033
:104200000000003030000038202020202020221E16
:104210000000000302020272120A16122277000046
:104220000000000E0808080808080808083E0000FA
:10423000000000000000007F9292929292B700006E
:10424000000000000000003B4642424242E70000FE
:10425000000000000000003C42424242423C00009C
:10426000000000000000001B26424242221E0207FE
:10427000000000000000007844424242447840E0E0
:1042800000000000000000774C040404041F00003C
:10429000000000000000007C42023C40423E000062
:1042A000000000000008083E080808080830000068
:1042B00000000000000000634242424262DC000055
:1042C00000000000000000E7422424140808000059
:1042D00000000000000000EB494955552222000073
:1042E000000000000000007624181818246E00005A
:1042F00000000000000000E742242414180808070A
:10430000000000000000007E22100808447E00002B
:1043100000C0202020202010202020202020C000AD
:10432000101010101010101010101010101010108D
:104330000006080808080810080808080808060009
:104340000C32C2000000000000000000000000006D
:104350007043000800000020240700006C010008E2
:10436000A0470008240700202C070000C80100080F
:10437000C123B63C239D2B328C429284A24A04680E
:104380000901020304060708090C6910052102044B
:1043900006082A80041A03041201200C608081019F
:1043A000C08181038083C12387611B8621041A1188
:1043B0001C195B3008800104F0FFFF1F0A120C0477
:1043C0000D16C0FFFF0F1C2904193C692079B85154
:1043D0001B02201622701B1830041A180413080838
:1043E000700810041CFCFFFF3F14032060C808077E
:1043F000E07F18036060040920141A0804111A02EF
:1044000004280C03603CF0036030C0012010F1E18F
:1044100013301010080160F0FF03C0302A010411AE
:104420001A34041A32041DF2FF0104081318311B58
:104430000138041A30041E10F1FF0180242380107B
:10444000294A13C004180B0440FCFF0F408C3106AE
:1044500060041A7C041A70040A103004061136A095
:10446000FFFF7F2B8001E331140708201C021CE0B2
:10447000F8146010201C6060E0042A60041A0C1418
:104480005A1F0C890413E07F146020201A20861024
:104490000820FCFF013020C0143040E01430806060
:1044A000141080311210121B1218120E1208121F53
:1044B0001408C079180B0470E00F041C801FC2039D
:1044C00013F11A10CC1760F0FF0FE0301B06C00488
:1044D0001A4004111A32041DF2FF070408131831A0
:1044E0001B0638041E30F1FF0730081C803021768F
:1044F00012631AC004181540046318600C631C6032
:1045000018630C3C38630630306303041501303007
:10451000E31A30204A38041A100C12380410FFFF36
:104520007F148011302B8031041211101CFCFF1BF2
:1045300010A031F83FE0801C02E0FF150330C426D4
:1045400001D0CFA20148CCE01444CCC015C04FE04C
:10455000031460181F14F8043C33B00327010CFC4B
:10456000FFFF1F12407480FFFF22C06CFFFF011489
:104570008C8001C0043910CA4080290412831809B4
:10458000038081FF078081010859043E890103FEF1
:104590009F0C1D018081F10412C1190C11181880A3
:1045A000B10106808DFF0F80830506F0810503BEF3
:1045B0008109038C8119201A91041AB1245AE1044B
:1045C0001AB1101A1940180C090E8081077CFC8161
:1045D0000118E040199EE1298F1A80AF1129D01AE5
:1045E000030F1B0308131B1CC0D822601404702087
:1045F000340230E0190D1112301A08041A1CF4129A
:104600003F1A181129044B0C30041B0618041A1CFD
:104610003A220C33E0071A1F58227B14C0E003141F
:10462000708007121C1A0E0603100C7829911AC00C
:10463000801AE0041A60042330021B38045C194815
:104640002A0C54195C1B03E0A314C003C0180C40CF
:104650001FE0FFFF3E108001090CB42A02B83904A4
:104660001A81044FC10180FFFF0310F9041A0804E6
:104670002B1CF8B8711201100A2108110809100941
:1046800020011B7FF8D8011012082B083F181902CF
:104690000912202009101008100820FFFE07103E04
:1046A00008224822481A3E141B2248060008120815
:1046B00022082A282410F80F23F81208120883F879
:1046C0004208420813F860113E27FCE4A424021AB1
:1046D0002F66011029D628093FFE222022203FFC08
:1046E00006F95E13E020000D122FF0241042204145
:1046F000C08630380EF80E27F81408140887F844DE
:104700000844081780080D1211202120E9242528CB
:1047100023302120800011102420FF20247E7EC41D
:1047200082287A104A287AC612051AFF361A3F588C
:104730002D3FF8200808E9E0100C11FC11041104C9
:10474000FD14110811031015FC0011101944314417
:10475000D12811281110112851442182120212016E
:1047600018083FFC20044208020C296CE1001110DB
:104770000420082018400640018002600C107008D8
:104780001A0102080D1202800440082010102FE8C0
:10479000C106202B1FF0061201FA7F9EA100000027
:0400000508000131BD
:00000001FF
